{
	"PersonalRepo/RemixIDE/RemixIDE/contracts/Identity.sol": {
		"Identity": {
			"abi": [
				{
					"inputs": [
						{
							"internalType": "uint256",
							"name": "_idNumber",
							"type": "uint256"
						},
						{
							"internalType": "bool",
							"name": "_isWorking",
							"type": "bool"
						},
						{
							"internalType": "string",
							"name": "_name",
							"type": "string"
						}
					],
					"stateMutability": "nonpayable",
					"type": "constructor"
				},
				{
					"inputs": [],
					"name": "getIdNumber",
					"outputs": [
						{
							"internalType": "uint256",
							"name": "number",
							"type": "uint256"
						}
					],
					"stateMutability": "view",
					"type": "function"
				},
				{
					"inputs": [],
					"name": "idNumber",
					"outputs": [
						{
							"internalType": "uint256",
							"name": "",
							"type": "uint256"
						}
					],
					"stateMutability": "view",
					"type": "function"
				},
				{
					"inputs": [],
					"name": "isWorking",
					"outputs": [
						{
							"internalType": "bool",
							"name": "",
							"type": "bool"
						}
					],
					"stateMutability": "view",
					"type": "function"
				},
				{
					"inputs": [],
					"name": "name",
					"outputs": [
						{
							"internalType": "string",
							"name": "",
							"type": "string"
						}
					],
					"stateMutability": "view",
					"type": "function"
				},
				{
					"inputs": [
						{
							"internalType": "address payable",
							"name": "receiver",
							"type": "address"
						}
					],
					"name": "sendEther",
					"outputs": [],
					"stateMutability": "payable",
					"type": "function"
				},
				{
					"inputs": [
						{
							"internalType": "int256",
							"name": "a",
							"type": "int256"
						},
						{
							"internalType": "int256",
							"name": "b",
							"type": "int256"
						}
					],
					"name": "sum",
					"outputs": [
						{
							"internalType": "int256",
							"name": "result",
							"type": "int256"
						}
					],
					"stateMutability": "pure",
					"type": "function"
				},
				{
					"inputs": [
						{
							"internalType": "string",
							"name": "param2",
							"type": "string"
						}
					],
					"name": "test",
					"outputs": [
						{
							"internalType": "string",
							"name": "value",
							"type": "string"
						}
					],
					"stateMutability": "nonpayable",
					"type": "function"
				},
				{
					"inputs": [],
					"name": "wallet",
					"outputs": [
						{
							"internalType": "address",
							"name": "",
							"type": "address"
						}
					],
					"stateMutability": "view",
					"type": "function"
				}
			],
			"devdoc": {
				"kind": "dev",
				"methods": {},
				"version": 1
			},
			"evm": {
				"assembly": "    /* \"PersonalRepo/RemixIDE/RemixIDE/contracts/Identity.sol\":74:916  contract Identity {... */\n  mstore(0x40, 0x80)\n    /* \"PersonalRepo/RemixIDE/RemixIDE/contracts/Identity.sol\":209:400  constructor(uint _idNumber, bool _isWorking, string memory _name) {... */\n  callvalue\n  dup1\n  iszero\n  tag_1\n  jumpi\n  0x00\n  dup1\n  revert\ntag_1:\n  pop\n  mload(0x40)\n  sub(codesize, bytecodeSize)\n  dup1\n  bytecodeSize\n  dup4\n  codecopy\n  dup2\n  dup2\n  add\n  0x40\n  mstore\n  dup2\n  add\n  swap1\n  tag_2\n  swap2\n  swap1\n  tag_3\n  jump\t// in\ntag_2:\n    /* \"PersonalRepo/RemixIDE/RemixIDE/contracts/Identity.sol\":297:306  _idNumber */\n  dup3\n    /* \"PersonalRepo/RemixIDE/RemixIDE/contracts/Identity.sol\":286:294  idNumber */\n  0x00\n    /* \"PersonalRepo/RemixIDE/RemixIDE/contracts/Identity.sol\":286:306  idNumber = _idNumber */\n  dup2\n  swap1\n  sstore\n  pop\n    /* \"PersonalRepo/RemixIDE/RemixIDE/contracts/Identity.sol\":329:339  _isWorking */\n  dup2\n    /* \"PersonalRepo/RemixIDE/RemixIDE/contracts/Identity.sol\":317:326  isWorking */\n  0x01\n  0x00\n    /* \"PersonalRepo/RemixIDE/RemixIDE/contracts/Identity.sol\":317:339  isWorking = _isWorking */\n  0x0100\n  exp\n  dup2\n  sload\n  dup2\n  0xff\n  mul\n  not\n  and\n  swap1\n  dup4\n  iszero\n  iszero\n  mul\n  or\n  swap1\n  sstore\n  pop\n    /* \"PersonalRepo/RemixIDE/RemixIDE/contracts/Identity.sol\":357:362  _name */\n  dup1\n    /* \"PersonalRepo/RemixIDE/RemixIDE/contracts/Identity.sol\":350:354  name */\n  0x02\n    /* \"PersonalRepo/RemixIDE/RemixIDE/contracts/Identity.sol\":350:362  name = _name */\n  swap1\n  dup2\n  tag_6\n  swap2\n  swap1\n  tag_7\n  jump\t// in\ntag_6:\n  pop\n    /* \"PersonalRepo/RemixIDE/RemixIDE/contracts/Identity.sol\":382:392  msg.sender */\n  caller\n    /* \"PersonalRepo/RemixIDE/RemixIDE/contracts/Identity.sol\":373:379  wallet */\n  0x03\n  0x00\n    /* \"PersonalRepo/RemixIDE/RemixIDE/contracts/Identity.sol\":373:392  wallet = msg.sender */\n  0x0100\n  exp\n  dup2\n  sload\n  dup2\n  0xffffffffffffffffffffffffffffffffffffffff\n  mul\n  not\n  and\n  swap1\n  dup4\n  0xffffffffffffffffffffffffffffffffffffffff\n  and\n  mul\n  or\n  swap1\n  sstore\n  pop\n    /* \"PersonalRepo/RemixIDE/RemixIDE/contracts/Identity.sol\":209:400  constructor(uint _idNumber, bool _isWorking, string memory _name) {... */\n  pop\n  pop\n  pop\n    /* \"PersonalRepo/RemixIDE/RemixIDE/contracts/Identity.sol\":74:916  contract Identity {... */\n  jump(tag_8)\n    /* \"#utility.yul\":7:82   */\ntag_9:\n    /* \"#utility.yul\":40:46   */\n  0x00\n    /* \"#utility.yul\":73:75   */\n  0x40\n    /* \"#utility.yul\":67:76   */\n  mload\n    /* \"#utility.yul\":57:76   */\n  swap1\n  pop\n    /* \"#utility.yul\":7:82   */\n  swap1\n  jump\t// out\n    /* \"#utility.yul\":88:205   */\ntag_10:\n    /* \"#utility.yul\":197:198   */\n  0x00\n    /* \"#utility.yul\":194:195   */\n  dup1\n    /* \"#utility.yul\":187:199   */\n  revert\n    /* \"#utility.yul\":211:328   */\ntag_11:\n    /* \"#utility.yul\":320:321   */\n  0x00\n    /* \"#utility.yul\":317:318   */\n  dup1\n    /* \"#utility.yul\":310:322   */\n  revert\n    /* \"#utility.yul\":334:411   */\ntag_12:\n    /* \"#utility.yul\":371:378   */\n  0x00\n    /* \"#utility.yul\":400:405   */\n  dup2\n    /* \"#utility.yul\":389:405   */\n  swap1\n  pop\n    /* \"#utility.yul\":334:411   */\n  swap2\n  swap1\n  pop\n  jump\t// out\n    /* \"#utility.yul\":417:539   */\ntag_13:\n    /* \"#utility.yul\":490:514   */\n  tag_52\n    /* \"#utility.yul\":508:513   */\n  dup2\n    /* \"#utility.yul\":490:514   */\n  tag_12\n  jump\t// in\ntag_52:\n    /* \"#utility.yul\":483:488   */\n  dup2\n    /* \"#utility.yul\":480:515   */\n  eq\n    /* \"#utility.yul\":470:533   */\n  tag_53\n  jumpi\n    /* \"#utility.yul\":529:530   */\n  0x00\n    /* \"#utility.yul\":526:527   */\n  dup1\n    /* \"#utility.yul\":519:531   */\n  revert\n    /* \"#utility.yul\":470:533   */\ntag_53:\n    /* \"#utility.yul\":417:539   */\n  pop\n  jump\t// out\n    /* \"#utility.yul\":545:688   */\ntag_14:\n    /* \"#utility.yul\":602:607   */\n  0x00\n    /* \"#utility.yul\":633:639   */\n  dup2\n    /* \"#utility.yul\":627:640   */\n  mload\n    /* \"#utility.yul\":618:640   */\n  swap1\n  pop\n    /* \"#utility.yul\":649:682   */\n  tag_55\n    /* \"#utility.yul\":676:681   */\n  dup2\n    /* \"#utility.yul\":649:682   */\n  tag_13\n  jump\t// in\ntag_55:\n    /* \"#utility.yul\":545:688   */\n  swap3\n  swap2\n  pop\n  pop\n  jump\t// out\n    /* \"#utility.yul\":694:784   */\ntag_15:\n    /* \"#utility.yul\":728:735   */\n  0x00\n    /* \"#utility.yul\":771:776   */\n  dup2\n    /* \"#utility.yul\":764:777   */\n  iszero\n    /* \"#utility.yul\":757:778   */\n  iszero\n    /* \"#utility.yul\":746:778   */\n  swap1\n  pop\n    /* \"#utility.yul\":694:784   */\n  swap2\n  swap1\n  pop\n  jump\t// out\n    /* \"#utility.yul\":790:906   */\ntag_16:\n    /* \"#utility.yul\":860:881   */\n  tag_58\n    /* \"#utility.yul\":875:880   */\n  dup2\n    /* \"#utility.yul\":860:881   */\n  tag_15\n  jump\t// in\ntag_58:\n    /* \"#utility.yul\":853:858   */\n  dup2\n    /* \"#utility.yul\":850:882   */\n  eq\n    /* \"#utility.yul\":840:900   */\n  tag_59\n  jumpi\n    /* \"#utility.yul\":896:897   */\n  0x00\n    /* \"#utility.yul\":893:894   */\n  dup1\n    /* \"#utility.yul\":886:898   */\n  revert\n    /* \"#utility.yul\":840:900   */\ntag_59:\n    /* \"#utility.yul\":790:906   */\n  pop\n  jump\t// out\n    /* \"#utility.yul\":912:1049   */\ntag_17:\n    /* \"#utility.yul\":966:971   */\n  0x00\n    /* \"#utility.yul\":997:1003   */\n  dup2\n    /* \"#utility.yul\":991:1004   */\n  mload\n    /* \"#utility.yul\":982:1004   */\n  swap1\n  pop\n    /* \"#utility.yul\":1013:1043   */\n  tag_61\n    /* \"#utility.yul\":1037:1042   */\n  dup2\n    /* \"#utility.yul\":1013:1043   */\n  tag_16\n  jump\t// in\ntag_61:\n    /* \"#utility.yul\":912:1049   */\n  swap3\n  swap2\n  pop\n  pop\n  jump\t// out\n    /* \"#utility.yul\":1055:1172   */\ntag_18:\n    /* \"#utility.yul\":1164:1165   */\n  0x00\n    /* \"#utility.yul\":1161:1162   */\n  dup1\n    /* \"#utility.yul\":1154:1166   */\n  revert\n    /* \"#utility.yul\":1178:1295   */\ntag_19:\n    /* \"#utility.yul\":1287:1288   */\n  0x00\n    /* \"#utility.yul\":1284:1285   */\n  dup1\n    /* \"#utility.yul\":1277:1289   */\n  revert\n    /* \"#utility.yul\":1301:1403   */\ntag_20:\n    /* \"#utility.yul\":1342:1348   */\n  0x00\n    /* \"#utility.yul\":1393:1395   */\n  0x1f\n    /* \"#utility.yul\":1389:1396   */\n  not\n    /* \"#utility.yul\":1384:1386   */\n  0x1f\n    /* \"#utility.yul\":1377:1382   */\n  dup4\n    /* \"#utility.yul\":1373:1387   */\n  add\n    /* \"#utility.yul\":1369:1397   */\n  and\n    /* \"#utility.yul\":1359:1397   */\n  swap1\n  pop\n    /* \"#utility.yul\":1301:1403   */\n  swap2\n  swap1\n  pop\n  jump\t// out\n    /* \"#utility.yul\":1409:1589   */\ntag_21:\n    /* \"#utility.yul\":1457:1534   */\n  0x4e487b7100000000000000000000000000000000000000000000000000000000\n    /* \"#utility.yul\":1454:1455   */\n  0x00\n    /* \"#utility.yul\":1447:1535   */\n  mstore\n    /* \"#utility.yul\":1554:1558   */\n  0x41\n    /* \"#utility.yul\":1551:1552   */\n  0x04\n    /* \"#utility.yul\":1544:1559   */\n  mstore\n    /* \"#utility.yul\":1578:1582   */\n  0x24\n    /* \"#utility.yul\":1575:1576   */\n  0x00\n    /* \"#utility.yul\":1568:1583   */\n  revert\n    /* \"#utility.yul\":1595:1876   */\ntag_22:\n    /* \"#utility.yul\":1678:1705   */\n  tag_67\n    /* \"#utility.yul\":1700:1704   */\n  dup3\n    /* \"#utility.yul\":1678:1705   */\n  tag_20\n  jump\t// in\ntag_67:\n    /* \"#utility.yul\":1670:1676   */\n  dup2\n    /* \"#utility.yul\":1666:1706   */\n  add\n    /* \"#utility.yul\":1808:1814   */\n  dup2\n    /* \"#utility.yul\":1796:1806   */\n  dup2\n    /* \"#utility.yul\":1793:1815   */\n  lt\n    /* \"#utility.yul\":1772:1790   */\n  0xffffffffffffffff\n    /* \"#utility.yul\":1760:1770   */\n  dup3\n    /* \"#utility.yul\":1757:1791   */\n  gt\n    /* \"#utility.yul\":1754:1816   */\n  or\n    /* \"#utility.yul\":1751:1839   */\n  iszero\n  tag_68\n  jumpi\n    /* \"#utility.yul\":1819:1837   */\n  tag_69\n  tag_21\n  jump\t// in\ntag_69:\n    /* \"#utility.yul\":1751:1839   */\ntag_68:\n    /* \"#utility.yul\":1859:1869   */\n  dup1\n    /* \"#utility.yul\":1855:1857   */\n  0x40\n    /* \"#utility.yul\":1848:1870   */\n  mstore\n    /* \"#utility.yul\":1638:1876   */\n  pop\n    /* \"#utility.yul\":1595:1876   */\n  pop\n  pop\n  jump\t// out\n    /* \"#utility.yul\":1882:2011   */\ntag_23:\n    /* \"#utility.yul\":1916:1922   */\n  0x00\n    /* \"#utility.yul\":1943:1963   */\n  tag_71\n  tag_9\n  jump\t// in\ntag_71:\n    /* \"#utility.yul\":1933:1963   */\n  swap1\n  pop\n    /* \"#utility.yul\":1972:2005   */\n  tag_72\n    /* \"#utility.yul\":2000:2004   */\n  dup3\n    /* \"#utility.yul\":1992:1998   */\n  dup3\n    /* \"#utility.yul\":1972:2005   */\n  tag_22\n  jump\t// in\ntag_72:\n    /* \"#utility.yul\":1882:2011   */\n  swap2\n  swap1\n  pop\n  jump\t// out\n    /* \"#utility.yul\":2017:2325   */\ntag_24:\n    /* \"#utility.yul\":2079:2083   */\n  0x00\n    /* \"#utility.yul\":2169:2187   */\n  0xffffffffffffffff\n    /* \"#utility.yul\":2161:2167   */\n  dup3\n    /* \"#utility.yul\":2158:2188   */\n  gt\n    /* \"#utility.yul\":2155:2211   */\n  iszero\n  tag_74\n  jumpi\n    /* \"#utility.yul\":2191:2209   */\n  tag_75\n  tag_21\n  jump\t// in\ntag_75:\n    /* \"#utility.yul\":2155:2211   */\ntag_74:\n    /* \"#utility.yul\":2229:2258   */\n  tag_76\n    /* \"#utility.yul\":2251:2257   */\n  dup3\n    /* \"#utility.yul\":2229:2258   */\n  tag_20\n  jump\t// in\ntag_76:\n    /* \"#utility.yul\":2221:2258   */\n  swap1\n  pop\n    /* \"#utility.yul\":2313:2317   */\n  0x20\n    /* \"#utility.yul\":2307:2311   */\n  dup2\n    /* \"#utility.yul\":2303:2318   */\n  add\n    /* \"#utility.yul\":2295:2318   */\n  swap1\n  pop\n    /* \"#utility.yul\":2017:2325   */\n  swap2\n  swap1\n  pop\n  jump\t// out\n    /* \"#utility.yul\":2331:2577   */\ntag_25:\n    /* \"#utility.yul\":2412:2413   */\n  0x00\n    /* \"#utility.yul\":2422:2535   */\ntag_78:\n    /* \"#utility.yul\":2436:2442   */\n  dup4\n    /* \"#utility.yul\":2433:2434   */\n  dup2\n    /* \"#utility.yul\":2430:2443   */\n  lt\n    /* \"#utility.yul\":2422:2535   */\n  iszero\n  tag_80\n  jumpi\n    /* \"#utility.yul\":2521:2522   */\n  dup1\n    /* \"#utility.yul\":2516:2519   */\n  dup3\n    /* \"#utility.yul\":2512:2523   */\n  add\n    /* \"#utility.yul\":2506:2524   */\n  mload\n    /* \"#utility.yul\":2502:2503   */\n  dup2\n    /* \"#utility.yul\":2497:2500   */\n  dup5\n    /* \"#utility.yul\":2493:2504   */\n  add\n    /* \"#utility.yul\":2486:2525   */\n  mstore\n    /* \"#utility.yul\":2458:2460   */\n  0x20\n    /* \"#utility.yul\":2455:2456   */\n  dup2\n    /* \"#utility.yul\":2451:2461   */\n  add\n    /* \"#utility.yul\":2446:2461   */\n  swap1\n  pop\n    /* \"#utility.yul\":2422:2535   */\n  jump(tag_78)\ntag_80:\n    /* \"#utility.yul\":2569:2570   */\n  0x00\n    /* \"#utility.yul\":2560:2566   */\n  dup5\n    /* \"#utility.yul\":2555:2558   */\n  dup5\n    /* \"#utility.yul\":2551:2567   */\n  add\n    /* \"#utility.yul\":2544:2571   */\n  mstore\n    /* \"#utility.yul\":2393:2577   */\n  pop\n    /* \"#utility.yul\":2331:2577   */\n  pop\n  pop\n  pop\n  jump\t// out\n    /* \"#utility.yul\":2583:3017   */\ntag_26:\n    /* \"#utility.yul\":2672:2677   */\n  0x00\n    /* \"#utility.yul\":2697:2763   */\n  tag_82\n    /* \"#utility.yul\":2713:2762   */\n  tag_83\n    /* \"#utility.yul\":2755:2761   */\n  dup5\n    /* \"#utility.yul\":2713:2762   */\n  tag_24\n  jump\t// in\ntag_83:\n    /* \"#utility.yul\":2697:2763   */\n  tag_23\n  jump\t// in\ntag_82:\n    /* \"#utility.yul\":2688:2763   */\n  swap1\n  pop\n    /* \"#utility.yul\":2786:2792   */\n  dup3\n    /* \"#utility.yul\":2779:2784   */\n  dup2\n    /* \"#utility.yul\":2772:2793   */\n  mstore\n    /* \"#utility.yul\":2824:2828   */\n  0x20\n    /* \"#utility.yul\":2817:2822   */\n  dup2\n    /* \"#utility.yul\":2813:2829   */\n  add\n    /* \"#utility.yul\":2862:2865   */\n  dup5\n    /* \"#utility.yul\":2853:2859   */\n  dup5\n    /* \"#utility.yul\":2848:2851   */\n  dup5\n    /* \"#utility.yul\":2844:2860   */\n  add\n    /* \"#utility.yul\":2841:2866   */\n  gt\n    /* \"#utility.yul\":2838:2950   */\n  iszero\n  tag_84\n  jumpi\n    /* \"#utility.yul\":2869:2948   */\n  tag_85\n  tag_19\n  jump\t// in\ntag_85:\n    /* \"#utility.yul\":2838:2950   */\ntag_84:\n    /* \"#utility.yul\":2959:3011   */\n  tag_86\n    /* \"#utility.yul\":3004:3010   */\n  dup5\n    /* \"#utility.yul\":2999:3002   */\n  dup3\n    /* \"#utility.yul\":2994:2997   */\n  dup6\n    /* \"#utility.yul\":2959:3011   */\n  tag_25\n  jump\t// in\ntag_86:\n    /* \"#utility.yul\":2678:3017   */\n  pop\n    /* \"#utility.yul\":2583:3017   */\n  swap4\n  swap3\n  pop\n  pop\n  pop\n  jump\t// out\n    /* \"#utility.yul\":3037:3392   */\ntag_27:\n    /* \"#utility.yul\":3104:3109   */\n  0x00\n    /* \"#utility.yul\":3153:3156   */\n  dup3\n    /* \"#utility.yul\":3146:3150   */\n  0x1f\n    /* \"#utility.yul\":3138:3144   */\n  dup4\n    /* \"#utility.yul\":3134:3151   */\n  add\n    /* \"#utility.yul\":3130:3157   */\n  slt\n    /* \"#utility.yul\":3120:3242   */\n  tag_88\n  jumpi\n    /* \"#utility.yul\":3161:3240   */\n  tag_89\n  tag_18\n  jump\t// in\ntag_89:\n    /* \"#utility.yul\":3120:3242   */\ntag_88:\n    /* \"#utility.yul\":3271:3277   */\n  dup2\n    /* \"#utility.yul\":3265:3278   */\n  mload\n    /* \"#utility.yul\":3296:3386   */\n  tag_90\n    /* \"#utility.yul\":3382:3385   */\n  dup5\n    /* \"#utility.yul\":3374:3380   */\n  dup3\n    /* \"#utility.yul\":3367:3371   */\n  0x20\n    /* \"#utility.yul\":3359:3365   */\n  dup7\n    /* \"#utility.yul\":3355:3372   */\n  add\n    /* \"#utility.yul\":3296:3386   */\n  tag_26\n  jump\t// in\ntag_90:\n    /* \"#utility.yul\":3287:3386   */\n  swap2\n  pop\n    /* \"#utility.yul\":3110:3392   */\n  pop\n    /* \"#utility.yul\":3037:3392   */\n  swap3\n  swap2\n  pop\n  pop\n  jump\t// out\n    /* \"#utility.yul\":3398:4228   */\ntag_3:\n    /* \"#utility.yul\":3493:3499   */\n  0x00\n    /* \"#utility.yul\":3501:3507   */\n  dup1\n    /* \"#utility.yul\":3509:3515   */\n  0x00\n    /* \"#utility.yul\":3558:3560   */\n  0x60\n    /* \"#utility.yul\":3546:3555   */\n  dup5\n    /* \"#utility.yul\":3537:3544   */\n  dup7\n    /* \"#utility.yul\":3533:3556   */\n  sub\n    /* \"#utility.yul\":3529:3561   */\n  slt\n    /* \"#utility.yul\":3526:3645   */\n  iszero\n  tag_92\n  jumpi\n    /* \"#utility.yul\":3564:3643   */\n  tag_93\n  tag_10\n  jump\t// in\ntag_93:\n    /* \"#utility.yul\":3526:3645   */\ntag_92:\n    /* \"#utility.yul\":3684:3685   */\n  0x00\n    /* \"#utility.yul\":3709:3773   */\n  tag_94\n    /* \"#utility.yul\":3765:3772   */\n  dup7\n    /* \"#utility.yul\":3756:3762   */\n  dup3\n    /* \"#utility.yul\":3745:3754   */\n  dup8\n    /* \"#utility.yul\":3741:3763   */\n  add\n    /* \"#utility.yul\":3709:3773   */\n  tag_14\n  jump\t// in\ntag_94:\n    /* \"#utility.yul\":3699:3773   */\n  swap4\n  pop\n    /* \"#utility.yul\":3655:3783   */\n  pop\n    /* \"#utility.yul\":3822:3824   */\n  0x20\n    /* \"#utility.yul\":3848:3909   */\n  tag_95\n    /* \"#utility.yul\":3901:3908   */\n  dup7\n    /* \"#utility.yul\":3892:3898   */\n  dup3\n    /* \"#utility.yul\":3881:3890   */\n  dup8\n    /* \"#utility.yul\":3877:3899   */\n  add\n    /* \"#utility.yul\":3848:3909   */\n  tag_17\n  jump\t// in\ntag_95:\n    /* \"#utility.yul\":3838:3909   */\n  swap3\n  pop\n    /* \"#utility.yul\":3793:3919   */\n  pop\n    /* \"#utility.yul\":3979:3981   */\n  0x40\n    /* \"#utility.yul\":3968:3977   */\n  dup5\n    /* \"#utility.yul\":3964:3982   */\n  add\n    /* \"#utility.yul\":3958:3983   */\n  mload\n    /* \"#utility.yul\":4010:4028   */\n  0xffffffffffffffff\n    /* \"#utility.yul\":4002:4008   */\n  dup2\n    /* \"#utility.yul\":3999:4029   */\n  gt\n    /* \"#utility.yul\":3996:4113   */\n  iszero\n  tag_96\n  jumpi\n    /* \"#utility.yul\":4032:4111   */\n  tag_97\n  tag_11\n  jump\t// in\ntag_97:\n    /* \"#utility.yul\":3996:4113   */\ntag_96:\n    /* \"#utility.yul\":4137:4211   */\n  tag_98\n    /* \"#utility.yul\":4203:4210   */\n  dup7\n    /* \"#utility.yul\":4194:4200   */\n  dup3\n    /* \"#utility.yul\":4183:4192   */\n  dup8\n    /* \"#utility.yul\":4179:4201   */\n  add\n    /* \"#utility.yul\":4137:4211   */\n  tag_27\n  jump\t// in\ntag_98:\n    /* \"#utility.yul\":4127:4211   */\n  swap2\n  pop\n    /* \"#utility.yul\":3929:4221   */\n  pop\n    /* \"#utility.yul\":3398:4228   */\n  swap3\n  pop\n  swap3\n  pop\n  swap3\n  jump\t// out\n    /* \"#utility.yul\":4234:4333   */\ntag_28:\n    /* \"#utility.yul\":4286:4292   */\n  0x00\n    /* \"#utility.yul\":4320:4325   */\n  dup2\n    /* \"#utility.yul\":4314:4326   */\n  mload\n    /* \"#utility.yul\":4304:4326   */\n  swap1\n  pop\n    /* \"#utility.yul\":4234:4333   */\n  swap2\n  swap1\n  pop\n  jump\t// out\n    /* \"#utility.yul\":4339:4519   */\ntag_29:\n    /* \"#utility.yul\":4387:4464   */\n  0x4e487b7100000000000000000000000000000000000000000000000000000000\n    /* \"#utility.yul\":4384:4385   */\n  0x00\n    /* \"#utility.yul\":4377:4465   */\n  mstore\n    /* \"#utility.yul\":4484:4488   */\n  0x22\n    /* \"#utility.yul\":4481:4482   */\n  0x04\n    /* \"#utility.yul\":4474:4489   */\n  mstore\n    /* \"#utility.yul\":4508:4512   */\n  0x24\n    /* \"#utility.yul\":4505:4506   */\n  0x00\n    /* \"#utility.yul\":4498:4513   */\n  revert\n    /* \"#utility.yul\":4525:4845   */\ntag_30:\n    /* \"#utility.yul\":4569:4575   */\n  0x00\n    /* \"#utility.yul\":4606:4607   */\n  0x02\n    /* \"#utility.yul\":4600:4604   */\n  dup3\n    /* \"#utility.yul\":4596:4608   */\n  div\n    /* \"#utility.yul\":4586:4608   */\n  swap1\n  pop\n    /* \"#utility.yul\":4653:4654   */\n  0x01\n    /* \"#utility.yul\":4647:4651   */\n  dup3\n    /* \"#utility.yul\":4643:4655   */\n  and\n    /* \"#utility.yul\":4674:4692   */\n  dup1\n    /* \"#utility.yul\":4664:4745   */\n  tag_102\n  jumpi\n    /* \"#utility.yul\":4730:4734   */\n  0x7f\n    /* \"#utility.yul\":4722:4728   */\n  dup3\n    /* \"#utility.yul\":4718:4735   */\n  and\n    /* \"#utility.yul\":4708:4735   */\n  swap2\n  pop\n    /* \"#utility.yul\":4664:4745   */\ntag_102:\n    /* \"#utility.yul\":4792:4794   */\n  0x20\n    /* \"#utility.yul\":4784:4790   */\n  dup3\n    /* \"#utility.yul\":4781:4795   */\n  lt\n    /* \"#utility.yul\":4761:4779   */\n  dup2\n    /* \"#utility.yul\":4758:4796   */\n  sub\n    /* \"#utility.yul\":4755:4839   */\n  tag_103\n  jumpi\n    /* \"#utility.yul\":4811:4829   */\n  tag_104\n  tag_29\n  jump\t// in\ntag_104:\n    /* \"#utility.yul\":4755:4839   */\ntag_103:\n    /* \"#utility.yul\":4576:4845   */\n  pop\n    /* \"#utility.yul\":4525:4845   */\n  swap2\n  swap1\n  pop\n  jump\t// out\n    /* \"#utility.yul\":4851:4992   */\ntag_31:\n    /* \"#utility.yul\":4900:4904   */\n  0x00\n    /* \"#utility.yul\":4923:4926   */\n  dup2\n    /* \"#utility.yul\":4915:4926   */\n  swap1\n  pop\n    /* \"#utility.yul\":4946:4949   */\n  dup2\n    /* \"#utility.yul\":4943:4944   */\n  0x00\n    /* \"#utility.yul\":4936:4950   */\n  mstore\n    /* \"#utility.yul\":4980:4984   */\n  0x20\n    /* \"#utility.yul\":4977:4978   */\n  0x00\n    /* \"#utility.yul\":4967:4985   */\n  keccak256\n    /* \"#utility.yul\":4959:4985   */\n  swap1\n  pop\n    /* \"#utility.yul\":4851:4992   */\n  swap2\n  swap1\n  pop\n  jump\t// out\n    /* \"#utility.yul\":4998:5091   */\ntag_32:\n    /* \"#utility.yul\":5035:5041   */\n  0x00\n    /* \"#utility.yul\":5082:5084   */\n  0x20\n    /* \"#utility.yul\":5077:5079   */\n  0x1f\n    /* \"#utility.yul\":5070:5075   */\n  dup4\n    /* \"#utility.yul\":5066:5080   */\n  add\n    /* \"#utility.yul\":5062:5085   */\n  div\n    /* \"#utility.yul\":5052:5085   */\n  swap1\n  pop\n    /* \"#utility.yul\":4998:5091   */\n  swap2\n  swap1\n  pop\n  jump\t// out\n    /* \"#utility.yul\":5097:5204   */\ntag_33:\n    /* \"#utility.yul\":5141:5149   */\n  0x00\n    /* \"#utility.yul\":5191:5196   */\n  dup3\n    /* \"#utility.yul\":5185:5189   */\n  dup3\n    /* \"#utility.yul\":5181:5197   */\n  shl\n    /* \"#utility.yul\":5160:5197   */\n  swap1\n  pop\n    /* \"#utility.yul\":5097:5204   */\n  swap3\n  swap2\n  pop\n  pop\n  jump\t// out\n    /* \"#utility.yul\":5210:5603   */\ntag_34:\n    /* \"#utility.yul\":5279:5285   */\n  0x00\n    /* \"#utility.yul\":5329:5330   */\n  0x08\n    /* \"#utility.yul\":5317:5327   */\n  dup4\n    /* \"#utility.yul\":5313:5331   */\n  mul\n    /* \"#utility.yul\":5352:5449   */\n  tag_109\n    /* \"#utility.yul\":5382:5448   */\n  0xffffffffffffffffffffffffffffffffffffffffffffffffffffffffffffffff\n    /* \"#utility.yul\":5371:5380   */\n  dup3\n    /* \"#utility.yul\":5352:5449   */\n  tag_33\n  jump\t// in\ntag_109:\n    /* \"#utility.yul\":5470:5509   */\n  tag_110\n    /* \"#utility.yul\":5500:5508   */\n  dup7\n    /* \"#utility.yul\":5489:5498   */\n  dup4\n    /* \"#utility.yul\":5470:5509   */\n  tag_33\n  jump\t// in\ntag_110:\n    /* \"#utility.yul\":5458:5509   */\n  swap6\n  pop\n    /* \"#utility.yul\":5542:5546   */\n  dup1\n    /* \"#utility.yul\":5538:5547   */\n  not\n    /* \"#utility.yul\":5531:5536   */\n  dup5\n    /* \"#utility.yul\":5527:5548   */\n  and\n    /* \"#utility.yul\":5518:5548   */\n  swap4\n  pop\n    /* \"#utility.yul\":5591:5595   */\n  dup1\n    /* \"#utility.yul\":5581:5589   */\n  dup7\n    /* \"#utility.yul\":5577:5596   */\n  and\n    /* \"#utility.yul\":5570:5575   */\n  dup5\n    /* \"#utility.yul\":5567:5597   */\n  or\n    /* \"#utility.yul\":5557:5597   */\n  swap3\n  pop\n    /* \"#utility.yul\":5286:5603   */\n  pop\n  pop\n    /* \"#utility.yul\":5210:5603   */\n  swap4\n  swap3\n  pop\n  pop\n  pop\n  jump\t// out\n    /* \"#utility.yul\":5609:5669   */\ntag_35:\n    /* \"#utility.yul\":5637:5640   */\n  0x00\n    /* \"#utility.yul\":5658:5663   */\n  dup2\n    /* \"#utility.yul\":5651:5663   */\n  swap1\n  pop\n    /* \"#utility.yul\":5609:5669   */\n  swap2\n  swap1\n  pop\n  jump\t// out\n    /* \"#utility.yul\":5675:5817   */\ntag_36:\n    /* \"#utility.yul\":5725:5734   */\n  0x00\n    /* \"#utility.yul\":5758:5811   */\n  tag_113\n    /* \"#utility.yul\":5776:5810   */\n  tag_114\n    /* \"#utility.yul\":5785:5809   */\n  tag_115\n    /* \"#utility.yul\":5803:5808   */\n  dup5\n    /* \"#utility.yul\":5785:5809   */\n  tag_12\n  jump\t// in\ntag_115:\n    /* \"#utility.yul\":5776:5810   */\n  tag_35\n  jump\t// in\ntag_114:\n    /* \"#utility.yul\":5758:5811   */\n  tag_12\n  jump\t// in\ntag_113:\n    /* \"#utility.yul\":5745:5811   */\n  swap1\n  pop\n    /* \"#utility.yul\":5675:5817   */\n  swap2\n  swap1\n  pop\n  jump\t// out\n    /* \"#utility.yul\":5823:5898   */\ntag_37:\n    /* \"#utility.yul\":5866:5869   */\n  0x00\n    /* \"#utility.yul\":5887:5892   */\n  dup2\n    /* \"#utility.yul\":5880:5892   */\n  swap1\n  pop\n    /* \"#utility.yul\":5823:5898   */\n  swap2\n  swap1\n  pop\n  jump\t// out\n    /* \"#utility.yul\":5904:6173   */\ntag_38:\n    /* \"#utility.yul\":6014:6053   */\n  tag_118\n    /* \"#utility.yul\":6045:6052   */\n  dup4\n    /* \"#utility.yul\":6014:6053   */\n  tag_36\n  jump\t// in\ntag_118:\n    /* \"#utility.yul\":6075:6166   */\n  tag_119\n    /* \"#utility.yul\":6124:6165   */\n  tag_120\n    /* \"#utility.yul\":6148:6164   */\n  dup3\n    /* \"#utility.yul\":6124:6165   */\n  tag_37\n  jump\t// in\ntag_120:\n    /* \"#utility.yul\":6116:6122   */\n  dup5\n    /* \"#utility.yul\":6109:6113   */\n  dup5\n    /* \"#utility.yul\":6103:6114   */\n  sload\n    /* \"#utility.yul\":6075:6166   */\n  tag_34\n  jump\t// in\ntag_119:\n    /* \"#utility.yul\":6069:6073   */\n  dup3\n    /* \"#utility.yul\":6062:6167   */\n  sstore\n    /* \"#utility.yul\":5980:6173   */\n  pop\n    /* \"#utility.yul\":5904:6173   */\n  pop\n  pop\n  pop\n  jump\t// out\n    /* \"#utility.yul\":6179:6252   */\ntag_39:\n    /* \"#utility.yul\":6224:6227   */\n  0x00\n    /* \"#utility.yul\":6179:6252   */\n  swap1\n  jump\t// out\n    /* \"#utility.yul\":6258:6447   */\ntag_40:\n    /* \"#utility.yul\":6335:6367   */\n  tag_123\n  tag_39\n  jump\t// in\ntag_123:\n    /* \"#utility.yul\":6376:6441   */\n  tag_124\n    /* \"#utility.yul\":6434:6440   */\n  dup2\n    /* \"#utility.yul\":6426:6432   */\n  dup5\n    /* \"#utility.yul\":6420:6424   */\n  dup5\n    /* \"#utility.yul\":6376:6441   */\n  tag_38\n  jump\t// in\ntag_124:\n    /* \"#utility.yul\":6311:6447   */\n  pop\n    /* \"#utility.yul\":6258:6447   */\n  pop\n  pop\n  jump\t// out\n    /* \"#utility.yul\":6453:6639   */\ntag_41:\n    /* \"#utility.yul\":6513:6633   */\ntag_126:\n    /* \"#utility.yul\":6530:6533   */\n  dup2\n    /* \"#utility.yul\":6523:6528   */\n  dup2\n    /* \"#utility.yul\":6520:6534   */\n  lt\n    /* \"#utility.yul\":6513:6633   */\n  iszero\n  tag_128\n  jumpi\n    /* \"#utility.yul\":6584:6623   */\n  tag_129\n    /* \"#utility.yul\":6621:6622   */\n  0x00\n    /* \"#utility.yul\":6614:6619   */\n  dup3\n    /* \"#utility.yul\":6584:6623   */\n  tag_40\n  jump\t// in\ntag_129:\n    /* \"#utility.yul\":6557:6558   */\n  0x01\n    /* \"#utility.yul\":6550:6555   */\n  dup2\n    /* \"#utility.yul\":6546:6559   */\n  add\n    /* \"#utility.yul\":6537:6559   */\n  swap1\n  pop\n    /* \"#utility.yul\":6513:6633   */\n  jump(tag_126)\ntag_128:\n    /* \"#utility.yul\":6453:6639   */\n  pop\n  pop\n  jump\t// out\n    /* \"#utility.yul\":6645:7188   */\ntag_42:\n    /* \"#utility.yul\":6746:6748   */\n  0x1f\n    /* \"#utility.yul\":6741:6744   */\n  dup3\n    /* \"#utility.yul\":6738:6749   */\n  gt\n    /* \"#utility.yul\":6735:7181   */\n  iszero\n  tag_131\n  jumpi\n    /* \"#utility.yul\":6780:6818   */\n  tag_132\n    /* \"#utility.yul\":6812:6817   */\n  dup2\n    /* \"#utility.yul\":6780:6818   */\n  tag_31\n  jump\t// in\ntag_132:\n    /* \"#utility.yul\":6864:6893   */\n  tag_133\n    /* \"#utility.yul\":6882:6892   */\n  dup5\n    /* \"#utility.yul\":6864:6893   */\n  tag_32\n  jump\t// in\ntag_133:\n    /* \"#utility.yul\":6854:6862   */\n  dup2\n    /* \"#utility.yul\":6850:6894   */\n  add\n    /* \"#utility.yul\":7047:7049   */\n  0x20\n    /* \"#utility.yul\":7035:7045   */\n  dup6\n    /* \"#utility.yul\":7032:7050   */\n  lt\n    /* \"#utility.yul\":7029:7078   */\n  iszero\n  tag_134\n  jumpi\n    /* \"#utility.yul\":7068:7076   */\n  dup2\n    /* \"#utility.yul\":7053:7076   */\n  swap1\n  pop\n    /* \"#utility.yul\":7029:7078   */\ntag_134:\n    /* \"#utility.yul\":7091:7171   */\n  tag_135\n    /* \"#utility.yul\":7147:7169   */\n  tag_136\n    /* \"#utility.yul\":7165:7168   */\n  dup6\n    /* \"#utility.yul\":7147:7169   */\n  tag_32\n  jump\t// in\ntag_136:\n    /* \"#utility.yul\":7137:7145   */\n  dup4\n    /* \"#utility.yul\":7133:7170   */\n  add\n    /* \"#utility.yul\":7120:7131   */\n  dup3\n    /* \"#utility.yul\":7091:7171   */\n  tag_41\n  jump\t// in\ntag_135:\n    /* \"#utility.yul\":6750:7181   */\n  pop\n  pop\n    /* \"#utility.yul\":6735:7181   */\ntag_131:\n    /* \"#utility.yul\":6645:7188   */\n  pop\n  pop\n  pop\n  jump\t// out\n    /* \"#utility.yul\":7194:7311   */\ntag_43:\n    /* \"#utility.yul\":7248:7256   */\n  0x00\n    /* \"#utility.yul\":7298:7303   */\n  dup3\n    /* \"#utility.yul\":7292:7296   */\n  dup3\n    /* \"#utility.yul\":7288:7304   */\n  shr\n    /* \"#utility.yul\":7267:7304   */\n  swap1\n  pop\n    /* \"#utility.yul\":7194:7311   */\n  swap3\n  swap2\n  pop\n  pop\n  jump\t// out\n    /* \"#utility.yul\":7317:7486   */\ntag_44:\n    /* \"#utility.yul\":7361:7367   */\n  0x00\n    /* \"#utility.yul\":7394:7445   */\n  tag_139\n    /* \"#utility.yul\":7442:7443   */\n  0x00\n    /* \"#utility.yul\":7438:7444   */\n  not\n    /* \"#utility.yul\":7430:7435   */\n  dup5\n    /* \"#utility.yul\":7427:7428   */\n  0x08\n    /* \"#utility.yul\":7423:7436   */\n  mul\n    /* \"#utility.yul\":7394:7445   */\n  tag_43\n  jump\t// in\ntag_139:\n    /* \"#utility.yul\":7390:7446   */\n  not\n    /* \"#utility.yul\":7475:7479   */\n  dup1\n    /* \"#utility.yul\":7469:7473   */\n  dup4\n    /* \"#utility.yul\":7465:7480   */\n  and\n    /* \"#utility.yul\":7455:7480   */\n  swap2\n  pop\n    /* \"#utility.yul\":7368:7486   */\n  pop\n    /* \"#utility.yul\":7317:7486   */\n  swap3\n  swap2\n  pop\n  pop\n  jump\t// out\n    /* \"#utility.yul\":7491:7786   */\ntag_45:\n    /* \"#utility.yul\":7567:7571   */\n  0x00\n    /* \"#utility.yul\":7713:7742   */\n  tag_141\n    /* \"#utility.yul\":7738:7741   */\n  dup4\n    /* \"#utility.yul\":7732:7736   */\n  dup4\n    /* \"#utility.yul\":7713:7742   */\n  tag_44\n  jump\t// in\ntag_141:\n    /* \"#utility.yul\":7705:7742   */\n  swap2\n  pop\n    /* \"#utility.yul\":7775:7778   */\n  dup3\n    /* \"#utility.yul\":7772:7773   */\n  0x02\n    /* \"#utility.yul\":7768:7779   */\n  mul\n    /* \"#utility.yul\":7762:7766   */\n  dup3\n    /* \"#utility.yul\":7759:7780   */\n  or\n    /* \"#utility.yul\":7751:7780   */\n  swap1\n  pop\n    /* \"#utility.yul\":7491:7786   */\n  swap3\n  swap2\n  pop\n  pop\n  jump\t// out\n    /* \"#utility.yul\":7791:9186   */\ntag_7:\n    /* \"#utility.yul\":7908:7945   */\n  tag_143\n    /* \"#utility.yul\":7941:7944   */\n  dup3\n    /* \"#utility.yul\":7908:7945   */\n  tag_28\n  jump\t// in\ntag_143:\n    /* \"#utility.yul\":8010:8028   */\n  0xffffffffffffffff\n    /* \"#utility.yul\":8002:8008   */\n  dup2\n    /* \"#utility.yul\":7999:8029   */\n  gt\n    /* \"#utility.yul\":7996:8052   */\n  iszero\n  tag_144\n  jumpi\n    /* \"#utility.yul\":8032:8050   */\n  tag_145\n  tag_21\n  jump\t// in\ntag_145:\n    /* \"#utility.yul\":7996:8052   */\ntag_144:\n    /* \"#utility.yul\":8076:8114   */\n  tag_146\n    /* \"#utility.yul\":8108:8112   */\n  dup3\n    /* \"#utility.yul\":8102:8113   */\n  sload\n    /* \"#utility.yul\":8076:8114   */\n  tag_30\n  jump\t// in\ntag_146:\n    /* \"#utility.yul\":8161:8228   */\n  tag_147\n    /* \"#utility.yul\":8221:8227   */\n  dup3\n    /* \"#utility.yul\":8213:8219   */\n  dup3\n    /* \"#utility.yul\":8207:8211   */\n  dup6\n    /* \"#utility.yul\":8161:8228   */\n  tag_42\n  jump\t// in\ntag_147:\n    /* \"#utility.yul\":8255:8256   */\n  0x00\n    /* \"#utility.yul\":8279:8283   */\n  0x20\n    /* \"#utility.yul\":8266:8283   */\n  swap1\n  pop\n    /* \"#utility.yul\":8311:8313   */\n  0x1f\n    /* \"#utility.yul\":8303:8309   */\n  dup4\n    /* \"#utility.yul\":8300:8314   */\n  gt\n    /* \"#utility.yul\":8328:8329   */\n  0x01\n    /* \"#utility.yul\":8323:8941   */\n  dup2\n  eq\n  tag_149\n  jumpi\n    /* \"#utility.yul\":8985:8986   */\n  0x00\n    /* \"#utility.yul\":9002:9008   */\n  dup5\n    /* \"#utility.yul\":8999:9076   */\n  iszero\n  tag_150\n  jumpi\n    /* \"#utility.yul\":9051:9060   */\n  dup3\n    /* \"#utility.yul\":9046:9049   */\n  dup8\n    /* \"#utility.yul\":9042:9061   */\n  add\n    /* \"#utility.yul\":9036:9062   */\n  mload\n    /* \"#utility.yul\":9027:9062   */\n  swap1\n  pop\n    /* \"#utility.yul\":8999:9076   */\ntag_150:\n    /* \"#utility.yul\":9102:9169   */\n  tag_151\n    /* \"#utility.yul\":9162:9168   */\n  dup6\n    /* \"#utility.yul\":9155:9160   */\n  dup3\n    /* \"#utility.yul\":9102:9169   */\n  tag_45\n  jump\t// in\ntag_151:\n    /* \"#utility.yul\":9096:9100   */\n  dup7\n    /* \"#utility.yul\":9089:9170   */\n  sstore\n    /* \"#utility.yul\":8958:9180   */\n  pop\n    /* \"#utility.yul\":8293:9180   */\n  jump(tag_148)\n    /* \"#utility.yul\":8323:8941   */\ntag_149:\n    /* \"#utility.yul\":8375:8379   */\n  0x1f\n    /* \"#utility.yul\":8371:8380   */\n  not\n    /* \"#utility.yul\":8363:8369   */\n  dup5\n    /* \"#utility.yul\":8359:8381   */\n  and\n    /* \"#utility.yul\":8409:8446   */\n  tag_152\n    /* \"#utility.yul\":8441:8445   */\n  dup7\n    /* \"#utility.yul\":8409:8446   */\n  tag_31\n  jump\t// in\ntag_152:\n    /* \"#utility.yul\":8468:8469   */\n  0x00\n    /* \"#utility.yul\":8482:8690   */\ntag_153:\n    /* \"#utility.yul\":8496:8503   */\n  dup3\n    /* \"#utility.yul\":8493:8494   */\n  dup2\n    /* \"#utility.yul\":8490:8504   */\n  lt\n    /* \"#utility.yul\":8482:8690   */\n  iszero\n  tag_155\n  jumpi\n    /* \"#utility.yul\":8575:8584   */\n  dup5\n    /* \"#utility.yul\":8570:8573   */\n  dup10\n    /* \"#utility.yul\":8566:8585   */\n  add\n    /* \"#utility.yul\":8560:8586   */\n  mload\n    /* \"#utility.yul\":8552:8558   */\n  dup3\n    /* \"#utility.yul\":8545:8587   */\n  sstore\n    /* \"#utility.yul\":8626:8627   */\n  0x01\n    /* \"#utility.yul\":8618:8624   */\n  dup3\n    /* \"#utility.yul\":8614:8628   */\n  add\n    /* \"#utility.yul\":8604:8628   */\n  swap2\n  pop\n    /* \"#utility.yul\":8673:8675   */\n  0x20\n    /* \"#utility.yul\":8662:8671   */\n  dup6\n    /* \"#utility.yul\":8658:8676   */\n  add\n    /* \"#utility.yul\":8645:8676   */\n  swap5\n  pop\n    /* \"#utility.yul\":8519:8523   */\n  0x20\n    /* \"#utility.yul\":8516:8517   */\n  dup2\n    /* \"#utility.yul\":8512:8524   */\n  add\n    /* \"#utility.yul\":8507:8524   */\n  swap1\n  pop\n    /* \"#utility.yul\":8482:8690   */\n  jump(tag_153)\ntag_155:\n    /* \"#utility.yul\":8718:8724   */\n  dup7\n    /* \"#utility.yul\":8709:8716   */\n  dup4\n    /* \"#utility.yul\":8706:8725   */\n  lt\n    /* \"#utility.yul\":8703:8882   */\n  iszero\n  tag_156\n  jumpi\n    /* \"#utility.yul\":8776:8785   */\n  dup5\n    /* \"#utility.yul\":8771:8774   */\n  dup10\n    /* \"#utility.yul\":8767:8786   */\n  add\n    /* \"#utility.yul\":8761:8787   */\n  mload\n    /* \"#utility.yul\":8819:8867   */\n  tag_157\n    /* \"#utility.yul\":8861:8865   */\n  0x1f\n    /* \"#utility.yul\":8853:8859   */\n  dup10\n    /* \"#utility.yul\":8849:8866   */\n  and\n    /* \"#utility.yul\":8838:8847   */\n  dup3\n    /* \"#utility.yul\":8819:8867   */\n  tag_44\n  jump\t// in\ntag_157:\n    /* \"#utility.yul\":8811:8817   */\n  dup4\n    /* \"#utility.yul\":8804:8868   */\n  sstore\n    /* \"#utility.yul\":8726:8882   */\n  pop\n    /* \"#utility.yul\":8703:8882   */\ntag_156:\n    /* \"#utility.yul\":8928:8929   */\n  0x01\n    /* \"#utility.yul\":8924:8925   */\n  0x02\n    /* \"#utility.yul\":8916:8922   */\n  dup9\n    /* \"#utility.yul\":8912:8926   */\n  mul\n    /* \"#utility.yul\":8908:8930   */\n  add\n    /* \"#utility.yul\":8902:8906   */\n  dup9\n    /* \"#utility.yul\":8895:8931   */\n  sstore\n    /* \"#utility.yul\":8330:8941   */\n  pop\n  pop\n  pop\n    /* \"#utility.yul\":8293:9180   */\ntag_148:\n  pop\n    /* \"#utility.yul\":7883:9186   */\n  pop\n  pop\n  pop\n    /* \"#utility.yul\":7791:9186   */\n  pop\n  pop\n  jump\t// out\n    /* \"PersonalRepo/RemixIDE/RemixIDE/contracts/Identity.sol\":74:916  contract Identity {... */\ntag_8:\n  dataSize(sub_0)\n  dup1\n  dataOffset(sub_0)\n  0x00\n  codecopy\n  0x00\n  return\nstop\n\nsub_0: assembly {\n        /* \"PersonalRepo/RemixIDE/RemixIDE/contracts/Identity.sol\":74:916  contract Identity {... */\n      mstore(0x40, 0x80)\n      jumpi(tag_1, lt(calldatasize, 0x04))\n      shr(0xe0, calldataload(0x00))\n      dup1\n      0x48c981e2\n      gt\n      tag_10\n      jumpi\n      dup1\n      0x48c981e2\n      eq\n      tag_6\n      jumpi\n      dup1\n      0x521eb273\n      eq\n      tag_7\n      jumpi\n      dup1\n      0x9967062d\n      eq\n      tag_8\n      jumpi\n      dup1\n      0xf9fbd554\n      eq\n      tag_9\n      jumpi\n      jump(tag_1)\n    tag_10:\n      dup1\n      0x06fdde03\n      eq\n      tag_2\n      jumpi\n      dup1\n      0x099aea0a\n      eq\n      tag_3\n      jumpi\n      dup1\n      0x3694998a\n      eq\n      tag_4\n      jumpi\n      dup1\n      0x3f83ea3b\n      eq\n      tag_5\n      jumpi\n    tag_1:\n      0x00\n      dup1\n      revert\n        /* \"PersonalRepo/RemixIDE/RemixIDE/contracts/Identity.sol\":154:172  string public name */\n    tag_2:\n      callvalue\n      dup1\n      iszero\n      tag_11\n      jumpi\n      0x00\n      dup1\n      revert\n    tag_11:\n      pop\n      tag_12\n      tag_13\n      jump\t// in\n    tag_12:\n      mload(0x40)\n      tag_14\n      swap2\n      swap1\n      tag_15\n      jump\t// in\n    tag_14:\n      mload(0x40)\n      dup1\n      swap2\n      sub\n      swap1\n      return\n        /* \"PersonalRepo/RemixIDE/RemixIDE/contracts/Identity.sol\":126:147  bool public isWorking */\n    tag_3:\n      callvalue\n      dup1\n      iszero\n      tag_16\n      jumpi\n      0x00\n      dup1\n      revert\n    tag_16:\n      pop\n      tag_17\n      tag_18\n      jump\t// in\n    tag_17:\n      mload(0x40)\n      tag_19\n      swap2\n      swap1\n      tag_20\n      jump\t// in\n    tag_19:\n      mload(0x40)\n      dup1\n      swap2\n      sub\n      swap1\n      return\n        /* \"PersonalRepo/RemixIDE/RemixIDE/contracts/Identity.sol\":612:703  function getIdNumber() public view returns (uint number){... */\n    tag_4:\n      callvalue\n      dup1\n      iszero\n      tag_21\n      jumpi\n      0x00\n      dup1\n      revert\n    tag_21:\n      pop\n      tag_22\n      tag_23\n      jump\t// in\n    tag_22:\n      mload(0x40)\n      tag_24\n      swap2\n      swap1\n      tag_25\n      jump\t// in\n    tag_24:\n      mload(0x40)\n      dup1\n      swap2\n      sub\n      swap1\n      return\n        /* \"PersonalRepo/RemixIDE/RemixIDE/contracts/Identity.sol\":99:119  uint public idNumber */\n    tag_5:\n      callvalue\n      dup1\n      iszero\n      tag_26\n      jumpi\n      0x00\n      dup1\n      revert\n    tag_26:\n      pop\n      tag_27\n      tag_28\n      jump\t// in\n    tag_27:\n      mload(0x40)\n      tag_29\n      swap2\n      swap1\n      tag_25\n      jump\t// in\n    tag_29:\n      mload(0x40)\n      dup1\n      swap2\n      sub\n      swap1\n      return\n        /* \"PersonalRepo/RemixIDE/RemixIDE/contracts/Identity.sol\":711:818  function sendEther(address payable receiver) public payable {... */\n    tag_6:\n      tag_30\n      0x04\n      dup1\n      calldatasize\n      sub\n      dup2\n      add\n      swap1\n      tag_31\n      swap2\n      swap1\n      tag_32\n      jump\t// in\n    tag_31:\n      tag_33\n      jump\t// in\n    tag_30:\n      stop\n        /* \"PersonalRepo/RemixIDE/RemixIDE/contracts/Identity.sol\":179:200  address public wallet */\n    tag_7:\n      callvalue\n      dup1\n      iszero\n      tag_34\n      jumpi\n      0x00\n      dup1\n      revert\n    tag_34:\n      pop\n      tag_35\n      tag_36\n      jump\t// in\n    tag_35:\n      mload(0x40)\n      tag_37\n      swap2\n      swap1\n      tag_38\n      jump\t// in\n    tag_37:\n      mload(0x40)\n      dup1\n      swap2\n      sub\n      swap1\n      return\n        /* \"PersonalRepo/RemixIDE/RemixIDE/contracts/Identity.sol\":826:913  function sum(int a, int b) public pure returns(int result){... */\n    tag_8:\n      callvalue\n      dup1\n      iszero\n      tag_39\n      jumpi\n      0x00\n      dup1\n      revert\n    tag_39:\n      pop\n      tag_40\n      0x04\n      dup1\n      calldatasize\n      sub\n      dup2\n      add\n      swap1\n      tag_41\n      swap2\n      swap1\n      tag_42\n      jump\t// in\n    tag_41:\n      tag_43\n      jump\t// in\n    tag_40:\n      mload(0x40)\n      tag_44\n      swap2\n      swap1\n      tag_45\n      jump\t// in\n    tag_44:\n      mload(0x40)\n      dup1\n      swap2\n      sub\n      swap1\n      return\n        /* \"PersonalRepo/RemixIDE/RemixIDE/contracts/Identity.sol\":408:600  function test(string memory param2) public returns (string memory value)... */\n    tag_9:\n      callvalue\n      dup1\n      iszero\n      tag_46\n      jumpi\n      0x00\n      dup1\n      revert\n    tag_46:\n      pop\n      tag_47\n      0x04\n      dup1\n      calldatasize\n      sub\n      dup2\n      add\n      swap1\n      tag_48\n      swap2\n      swap1\n      tag_49\n      jump\t// in\n    tag_48:\n      tag_50\n      jump\t// in\n    tag_47:\n      mload(0x40)\n      tag_51\n      swap2\n      swap1\n      tag_15\n      jump\t// in\n    tag_51:\n      mload(0x40)\n      dup1\n      swap2\n      sub\n      swap1\n      return\n        /* \"PersonalRepo/RemixIDE/RemixIDE/contracts/Identity.sol\":154:172  string public name */\n    tag_13:\n      0x02\n      dup1\n      sload\n      tag_52\n      swap1\n      tag_53\n      jump\t// in\n    tag_52:\n      dup1\n      0x1f\n      add\n      0x20\n      dup1\n      swap2\n      div\n      mul\n      0x20\n      add\n      mload(0x40)\n      swap1\n      dup2\n      add\n      0x40\n      mstore\n      dup1\n      swap3\n      swap2\n      swap1\n      dup2\n      dup2\n      mstore\n      0x20\n      add\n      dup3\n      dup1\n      sload\n      tag_54\n      swap1\n      tag_53\n      jump\t// in\n    tag_54:\n      dup1\n      iszero\n      tag_55\n      jumpi\n      dup1\n      0x1f\n      lt\n      tag_56\n      jumpi\n      0x0100\n      dup1\n      dup4\n      sload\n      div\n      mul\n      dup4\n      mstore\n      swap2\n      0x20\n      add\n      swap2\n      jump(tag_55)\n    tag_56:\n      dup3\n      add\n      swap2\n      swap1\n      0x00\n      mstore\n      keccak256(0x00, 0x20)\n      swap1\n    tag_57:\n      dup2\n      sload\n      dup2\n      mstore\n      swap1\n      0x01\n      add\n      swap1\n      0x20\n      add\n      dup1\n      dup4\n      gt\n      tag_57\n      jumpi\n      dup3\n      swap1\n      sub\n      0x1f\n      and\n      dup3\n      add\n      swap2\n    tag_55:\n      pop\n      pop\n      pop\n      pop\n      pop\n      dup2\n      jump\t// out\n        /* \"PersonalRepo/RemixIDE/RemixIDE/contracts/Identity.sol\":126:147  bool public isWorking */\n    tag_18:\n      0x01\n      0x00\n      swap1\n      sload\n      swap1\n      0x0100\n      exp\n      swap1\n      div\n      0xff\n      and\n      dup2\n      jump\t// out\n        /* \"PersonalRepo/RemixIDE/RemixIDE/contracts/Identity.sol\":612:703  function getIdNumber() public view returns (uint number){... */\n    tag_23:\n        /* \"PersonalRepo/RemixIDE/RemixIDE/contracts/Identity.sol\":656:667  uint number */\n      0x00\n        /* \"PersonalRepo/RemixIDE/RemixIDE/contracts/Identity.sol\":687:695  idNumber */\n      dup1\n      sload\n        /* \"PersonalRepo/RemixIDE/RemixIDE/contracts/Identity.sol\":679:695  number= idNumber */\n      swap1\n      pop\n        /* \"PersonalRepo/RemixIDE/RemixIDE/contracts/Identity.sol\":612:703  function getIdNumber() public view returns (uint number){... */\n      swap1\n      jump\t// out\n        /* \"PersonalRepo/RemixIDE/RemixIDE/contracts/Identity.sol\":99:119  uint public idNumber */\n    tag_28:\n      sload(0x00)\n      dup2\n      jump\t// out\n        /* \"PersonalRepo/RemixIDE/RemixIDE/contracts/Identity.sol\":711:818  function sendEther(address payable receiver) public payable {... */\n    tag_33:\n        /* \"PersonalRepo/RemixIDE/RemixIDE/contracts/Identity.sol\":782:790  receiver */\n      dup1\n        /* \"PersonalRepo/RemixIDE/RemixIDE/contracts/Identity.sol\":782:799  receiver.transfer */\n      0xffffffffffffffffffffffffffffffffffffffff\n      and\n        /* \"PersonalRepo/RemixIDE/RemixIDE/contracts/Identity.sol\":782:810  receiver.transfer(msg.value) */\n      0x08fc\n        /* \"PersonalRepo/RemixIDE/RemixIDE/contracts/Identity.sol\":800:809  msg.value */\n      callvalue\n        /* \"PersonalRepo/RemixIDE/RemixIDE/contracts/Identity.sol\":782:810  receiver.transfer(msg.value) */\n      swap1\n      dup2\n      iszero\n      mul\n      swap1\n      mload(0x40)\n      0x00\n      mload(0x40)\n      dup1\n      dup4\n      sub\n      dup2\n      dup6\n      dup9\n      dup9\n      call\n      swap4\n      pop\n      pop\n      pop\n      pop\n      iszero\n      dup1\n      iszero\n      tag_61\n      jumpi\n      returndatasize\n      0x00\n      dup1\n      returndatacopy\n      revert(0x00, returndatasize)\n    tag_61:\n      pop\n        /* \"PersonalRepo/RemixIDE/RemixIDE/contracts/Identity.sol\":711:818  function sendEther(address payable receiver) public payable {... */\n      pop\n      jump\t// out\n        /* \"PersonalRepo/RemixIDE/RemixIDE/contracts/Identity.sol\":179:200  address public wallet */\n    tag_36:\n      0x03\n      0x00\n      swap1\n      sload\n      swap1\n      0x0100\n      exp\n      swap1\n      div\n      0xffffffffffffffffffffffffffffffffffffffff\n      and\n      dup2\n      jump\t// out\n        /* \"PersonalRepo/RemixIDE/RemixIDE/contracts/Identity.sol\":826:913  function sum(int a, int b) public pure returns(int result){... */\n    tag_43:\n        /* \"PersonalRepo/RemixIDE/RemixIDE/contracts/Identity.sol\":873:883  int result */\n      0x00\n        /* \"PersonalRepo/RemixIDE/RemixIDE/contracts/Identity.sol\":904:905  b */\n      dup2\n        /* \"PersonalRepo/RemixIDE/RemixIDE/contracts/Identity.sol\":902:903  a */\n      dup4\n        /* \"PersonalRepo/RemixIDE/RemixIDE/contracts/Identity.sol\":902:905  a+b */\n      tag_63\n      swap2\n      swap1\n      tag_64\n      jump\t// in\n    tag_63:\n        /* \"PersonalRepo/RemixIDE/RemixIDE/contracts/Identity.sol\":895:905  result=a+b */\n      swap1\n      pop\n        /* \"PersonalRepo/RemixIDE/RemixIDE/contracts/Identity.sol\":826:913  function sum(int a, int b) public pure returns(int result){... */\n      swap3\n      swap2\n      pop\n      pop\n      jump\t// out\n        /* \"PersonalRepo/RemixIDE/RemixIDE/contracts/Identity.sol\":408:600  function test(string memory param2) public returns (string memory value)... */\n    tag_50:\n        /* \"PersonalRepo/RemixIDE/RemixIDE/contracts/Identity.sol\":460:479  string memory value */\n      0x60\n        /* \"PersonalRepo/RemixIDE/RemixIDE/contracts/Identity.sol\":522:523  0 */\n      0x00\n        /* \"PersonalRepo/RemixIDE/RemixIDE/contracts/Identity.sol\":506:512  param2 */\n      dup3\n        /* \"PersonalRepo/RemixIDE/RemixIDE/contracts/Identity.sol\":500:520  bytes(param2).length */\n      mload\n        /* \"PersonalRepo/RemixIDE/RemixIDE/contracts/Identity.sol\":500:523  bytes(param2).length==0 */\n      sub\n        /* \"PersonalRepo/RemixIDE/RemixIDE/contracts/Identity.sol\":497:592  if(bytes(param2).length==0)... */\n      tag_66\n      jumpi\n        /* \"PersonalRepo/RemixIDE/RemixIDE/contracts/Identity.sol\":549:562  return 'null' */\n      mload(0x40)\n      dup1\n      0x40\n      add\n      0x40\n      mstore\n      dup1\n      0x04\n      dup2\n      mstore\n      0x20\n      add\n      0x6e756c6c00000000000000000000000000000000000000000000000000000000\n      dup2\n      mstore\n      pop\n      swap1\n      pop\n      jump(tag_65)\n        /* \"PersonalRepo/RemixIDE/RemixIDE/contracts/Identity.sol\":497:592  if(bytes(param2).length==0)... */\n    tag_66:\n        /* \"PersonalRepo/RemixIDE/RemixIDE/contracts/Identity.sol\":586:592  param2 */\n      dup2\n        /* \"PersonalRepo/RemixIDE/RemixIDE/contracts/Identity.sol\":579:592  return param2 */\n      swap1\n      pop\n        /* \"PersonalRepo/RemixIDE/RemixIDE/contracts/Identity.sol\":408:600  function test(string memory param2) public returns (string memory value)... */\n    tag_65:\n      swap2\n      swap1\n      pop\n      jump\t// out\n        /* \"#utility.yul\":7:106   */\n    tag_68:\n        /* \"#utility.yul\":59:65   */\n      0x00\n        /* \"#utility.yul\":93:98   */\n      dup2\n        /* \"#utility.yul\":87:99   */\n      mload\n        /* \"#utility.yul\":77:99   */\n      swap1\n      pop\n        /* \"#utility.yul\":7:106   */\n      swap2\n      swap1\n      pop\n      jump\t// out\n        /* \"#utility.yul\":112:281   */\n    tag_69:\n        /* \"#utility.yul\":196:207   */\n      0x00\n        /* \"#utility.yul\":230:236   */\n      dup3\n        /* \"#utility.yul\":225:228   */\n      dup3\n        /* \"#utility.yul\":218:237   */\n      mstore\n        /* \"#utility.yul\":270:274   */\n      0x20\n        /* \"#utility.yul\":265:268   */\n      dup3\n        /* \"#utility.yul\":261:275   */\n      add\n        /* \"#utility.yul\":246:275   */\n      swap1\n      pop\n        /* \"#utility.yul\":112:281   */\n      swap3\n      swap2\n      pop\n      pop\n      jump\t// out\n        /* \"#utility.yul\":287:533   */\n    tag_70:\n        /* \"#utility.yul\":368:369   */\n      0x00\n        /* \"#utility.yul\":378:491   */\n    tag_105:\n        /* \"#utility.yul\":392:398   */\n      dup4\n        /* \"#utility.yul\":389:390   */\n      dup2\n        /* \"#utility.yul\":386:399   */\n      lt\n        /* \"#utility.yul\":378:491   */\n      iszero\n      tag_107\n      jumpi\n        /* \"#utility.yul\":477:478   */\n      dup1\n        /* \"#utility.yul\":472:475   */\n      dup3\n        /* \"#utility.yul\":468:479   */\n      add\n        /* \"#utility.yul\":462:480   */\n      mload\n        /* \"#utility.yul\":458:459   */\n      dup2\n        /* \"#utility.yul\":453:456   */\n      dup5\n        /* \"#utility.yul\":449:460   */\n      add\n        /* \"#utility.yul\":442:481   */\n      mstore\n        /* \"#utility.yul\":414:416   */\n      0x20\n        /* \"#utility.yul\":411:412   */\n      dup2\n        /* \"#utility.yul\":407:417   */\n      add\n        /* \"#utility.yul\":402:417   */\n      swap1\n      pop\n        /* \"#utility.yul\":378:491   */\n      jump(tag_105)\n    tag_107:\n        /* \"#utility.yul\":525:526   */\n      0x00\n        /* \"#utility.yul\":516:522   */\n      dup5\n        /* \"#utility.yul\":511:514   */\n      dup5\n        /* \"#utility.yul\":507:523   */\n      add\n        /* \"#utility.yul\":500:527   */\n      mstore\n        /* \"#utility.yul\":349:533   */\n      pop\n        /* \"#utility.yul\":287:533   */\n      pop\n      pop\n      pop\n      jump\t// out\n        /* \"#utility.yul\":539:641   */\n    tag_71:\n        /* \"#utility.yul\":580:586   */\n      0x00\n        /* \"#utility.yul\":631:633   */\n      0x1f\n        /* \"#utility.yul\":627:634   */\n      not\n        /* \"#utility.yul\":622:624   */\n      0x1f\n        /* \"#utility.yul\":615:620   */\n      dup4\n        /* \"#utility.yul\":611:625   */\n      add\n        /* \"#utility.yul\":607:635   */\n      and\n        /* \"#utility.yul\":597:635   */\n      swap1\n      pop\n        /* \"#utility.yul\":539:641   */\n      swap2\n      swap1\n      pop\n      jump\t// out\n        /* \"#utility.yul\":647:1024   */\n    tag_72:\n        /* \"#utility.yul\":735:738   */\n      0x00\n        /* \"#utility.yul\":763:802   */\n      tag_110\n        /* \"#utility.yul\":796:801   */\n      dup3\n        /* \"#utility.yul\":763:802   */\n      tag_68\n      jump\t// in\n    tag_110:\n        /* \"#utility.yul\":818:889   */\n      tag_111\n        /* \"#utility.yul\":882:888   */\n      dup2\n        /* \"#utility.yul\":877:880   */\n      dup6\n        /* \"#utility.yul\":818:889   */\n      tag_69\n      jump\t// in\n    tag_111:\n        /* \"#utility.yul\":811:889   */\n      swap4\n      pop\n        /* \"#utility.yul\":898:963   */\n      tag_112\n        /* \"#utility.yul\":956:962   */\n      dup2\n        /* \"#utility.yul\":951:954   */\n      dup6\n        /* \"#utility.yul\":944:948   */\n      0x20\n        /* \"#utility.yul\":937:942   */\n      dup7\n        /* \"#utility.yul\":933:949   */\n      add\n        /* \"#utility.yul\":898:963   */\n      tag_70\n      jump\t// in\n    tag_112:\n        /* \"#utility.yul\":988:1017   */\n      tag_113\n        /* \"#utility.yul\":1010:1016   */\n      dup2\n        /* \"#utility.yul\":988:1017   */\n      tag_71\n      jump\t// in\n    tag_113:\n        /* \"#utility.yul\":983:986   */\n      dup5\n        /* \"#utility.yul\":979:1018   */\n      add\n        /* \"#utility.yul\":972:1018   */\n      swap2\n      pop\n        /* \"#utility.yul\":739:1024   */\n      pop\n        /* \"#utility.yul\":647:1024   */\n      swap3\n      swap2\n      pop\n      pop\n      jump\t// out\n        /* \"#utility.yul\":1030:1343   */\n    tag_15:\n        /* \"#utility.yul\":1143:1147   */\n      0x00\n        /* \"#utility.yul\":1181:1183   */\n      0x20\n        /* \"#utility.yul\":1170:1179   */\n      dup3\n        /* \"#utility.yul\":1166:1184   */\n      add\n        /* \"#utility.yul\":1158:1184   */\n      swap1\n      pop\n        /* \"#utility.yul\":1230:1239   */\n      dup2\n        /* \"#utility.yul\":1224:1228   */\n      dup2\n        /* \"#utility.yul\":1220:1240   */\n      sub\n        /* \"#utility.yul\":1216:1217   */\n      0x00\n        /* \"#utility.yul\":1205:1214   */\n      dup4\n        /* \"#utility.yul\":1201:1218   */\n      add\n        /* \"#utility.yul\":1194:1241   */\n      mstore\n        /* \"#utility.yul\":1258:1336   */\n      tag_115\n        /* \"#utility.yul\":1331:1335   */\n      dup2\n        /* \"#utility.yul\":1322:1328   */\n      dup5\n        /* \"#utility.yul\":1258:1336   */\n      tag_72\n      jump\t// in\n    tag_115:\n        /* \"#utility.yul\":1250:1336   */\n      swap1\n      pop\n        /* \"#utility.yul\":1030:1343   */\n      swap3\n      swap2\n      pop\n      pop\n      jump\t// out\n        /* \"#utility.yul\":1349:1439   */\n    tag_73:\n        /* \"#utility.yul\":1383:1390   */\n      0x00\n        /* \"#utility.yul\":1426:1431   */\n      dup2\n        /* \"#utility.yul\":1419:1432   */\n      iszero\n        /* \"#utility.yul\":1412:1433   */\n      iszero\n        /* \"#utility.yul\":1401:1433   */\n      swap1\n      pop\n        /* \"#utility.yul\":1349:1439   */\n      swap2\n      swap1\n      pop\n      jump\t// out\n        /* \"#utility.yul\":1445:1554   */\n    tag_74:\n        /* \"#utility.yul\":1526:1547   */\n      tag_118\n        /* \"#utility.yul\":1541:1546   */\n      dup2\n        /* \"#utility.yul\":1526:1547   */\n      tag_73\n      jump\t// in\n    tag_118:\n        /* \"#utility.yul\":1521:1524   */\n      dup3\n        /* \"#utility.yul\":1514:1548   */\n      mstore\n        /* \"#utility.yul\":1445:1554   */\n      pop\n      pop\n      jump\t// out\n        /* \"#utility.yul\":1560:1770   */\n    tag_20:\n        /* \"#utility.yul\":1647:1651   */\n      0x00\n        /* \"#utility.yul\":1685:1687   */\n      0x20\n        /* \"#utility.yul\":1674:1683   */\n      dup3\n        /* \"#utility.yul\":1670:1688   */\n      add\n        /* \"#utility.yul\":1662:1688   */\n      swap1\n      pop\n        /* \"#utility.yul\":1698:1763   */\n      tag_120\n        /* \"#utility.yul\":1760:1761   */\n      0x00\n        /* \"#utility.yul\":1749:1758   */\n      dup4\n        /* \"#utility.yul\":1745:1762   */\n      add\n        /* \"#utility.yul\":1736:1742   */\n      dup5\n        /* \"#utility.yul\":1698:1763   */\n      tag_74\n      jump\t// in\n    tag_120:\n        /* \"#utility.yul\":1560:1770   */\n      swap3\n      swap2\n      pop\n      pop\n      jump\t// out\n        /* \"#utility.yul\":1776:1853   */\n    tag_75:\n        /* \"#utility.yul\":1813:1820   */\n      0x00\n        /* \"#utility.yul\":1842:1847   */\n      dup2\n        /* \"#utility.yul\":1831:1847   */\n      swap1\n      pop\n        /* \"#utility.yul\":1776:1853   */\n      swap2\n      swap1\n      pop\n      jump\t// out\n        /* \"#utility.yul\":1859:1977   */\n    tag_76:\n        /* \"#utility.yul\":1946:1970   */\n      tag_123\n        /* \"#utility.yul\":1964:1969   */\n      dup2\n        /* \"#utility.yul\":1946:1970   */\n      tag_75\n      jump\t// in\n    tag_123:\n        /* \"#utility.yul\":1941:1944   */\n      dup3\n        /* \"#utility.yul\":1934:1971   */\n      mstore\n        /* \"#utility.yul\":1859:1977   */\n      pop\n      pop\n      jump\t// out\n        /* \"#utility.yul\":1983:2205   */\n    tag_25:\n        /* \"#utility.yul\":2076:2080   */\n      0x00\n        /* \"#utility.yul\":2114:2116   */\n      0x20\n        /* \"#utility.yul\":2103:2112   */\n      dup3\n        /* \"#utility.yul\":2099:2117   */\n      add\n        /* \"#utility.yul\":2091:2117   */\n      swap1\n      pop\n        /* \"#utility.yul\":2127:2198   */\n      tag_125\n        /* \"#utility.yul\":2195:2196   */\n      0x00\n        /* \"#utility.yul\":2184:2193   */\n      dup4\n        /* \"#utility.yul\":2180:2197   */\n      add\n        /* \"#utility.yul\":2171:2177   */\n      dup5\n        /* \"#utility.yul\":2127:2198   */\n      tag_76\n      jump\t// in\n    tag_125:\n        /* \"#utility.yul\":1983:2205   */\n      swap3\n      swap2\n      pop\n      pop\n      jump\t// out\n        /* \"#utility.yul\":2211:2286   */\n    tag_77:\n        /* \"#utility.yul\":2244:2250   */\n      0x00\n        /* \"#utility.yul\":2277:2279   */\n      0x40\n        /* \"#utility.yul\":2271:2280   */\n      mload\n        /* \"#utility.yul\":2261:2280   */\n      swap1\n      pop\n        /* \"#utility.yul\":2211:2286   */\n      swap1\n      jump\t// out\n        /* \"#utility.yul\":2292:2409   */\n    tag_78:\n        /* \"#utility.yul\":2401:2402   */\n      0x00\n        /* \"#utility.yul\":2398:2399   */\n      dup1\n        /* \"#utility.yul\":2391:2403   */\n      revert\n        /* \"#utility.yul\":2415:2532   */\n    tag_79:\n        /* \"#utility.yul\":2524:2525   */\n      0x00\n        /* \"#utility.yul\":2521:2522   */\n      dup1\n        /* \"#utility.yul\":2514:2526   */\n      revert\n        /* \"#utility.yul\":2538:2664   */\n    tag_80:\n        /* \"#utility.yul\":2575:2582   */\n      0x00\n        /* \"#utility.yul\":2615:2657   */\n      0xffffffffffffffffffffffffffffffffffffffff\n        /* \"#utility.yul\":2608:2613   */\n      dup3\n        /* \"#utility.yul\":2604:2658   */\n      and\n        /* \"#utility.yul\":2593:2658   */\n      swap1\n      pop\n        /* \"#utility.yul\":2538:2664   */\n      swap2\n      swap1\n      pop\n      jump\t// out\n        /* \"#utility.yul\":2670:2774   */\n    tag_81:\n        /* \"#utility.yul\":2715:2722   */\n      0x00\n        /* \"#utility.yul\":2744:2768   */\n      tag_131\n        /* \"#utility.yul\":2762:2767   */\n      dup3\n        /* \"#utility.yul\":2744:2768   */\n      tag_80\n      jump\t// in\n    tag_131:\n        /* \"#utility.yul\":2733:2768   */\n      swap1\n      pop\n        /* \"#utility.yul\":2670:2774   */\n      swap2\n      swap1\n      pop\n      jump\t// out\n        /* \"#utility.yul\":2780:2918   */\n    tag_82:\n        /* \"#utility.yul\":2861:2893   */\n      tag_133\n        /* \"#utility.yul\":2887:2892   */\n      dup2\n        /* \"#utility.yul\":2861:2893   */\n      tag_81\n      jump\t// in\n    tag_133:\n        /* \"#utility.yul\":2854:2859   */\n      dup2\n        /* \"#utility.yul\":2851:2894   */\n      eq\n        /* \"#utility.yul\":2841:2912   */\n      tag_134\n      jumpi\n        /* \"#utility.yul\":2908:2909   */\n      0x00\n        /* \"#utility.yul\":2905:2906   */\n      dup1\n        /* \"#utility.yul\":2898:2910   */\n      revert\n        /* \"#utility.yul\":2841:2912   */\n    tag_134:\n        /* \"#utility.yul\":2780:2918   */\n      pop\n      jump\t// out\n        /* \"#utility.yul\":2924:3079   */\n    tag_83:\n        /* \"#utility.yul\":2978:2983   */\n      0x00\n        /* \"#utility.yul\":3016:3022   */\n      dup2\n        /* \"#utility.yul\":3003:3023   */\n      calldataload\n        /* \"#utility.yul\":2994:3023   */\n      swap1\n      pop\n        /* \"#utility.yul\":3032:3073   */\n      tag_136\n        /* \"#utility.yul\":3067:3072   */\n      dup2\n        /* \"#utility.yul\":3032:3073   */\n      tag_82\n      jump\t// in\n    tag_136:\n        /* \"#utility.yul\":2924:3079   */\n      swap3\n      swap2\n      pop\n      pop\n      jump\t// out\n        /* \"#utility.yul\":3085:3430   */\n    tag_32:\n        /* \"#utility.yul\":3152:3158   */\n      0x00\n        /* \"#utility.yul\":3201:3203   */\n      0x20\n        /* \"#utility.yul\":3189:3198   */\n      dup3\n        /* \"#utility.yul\":3180:3187   */\n      dup5\n        /* \"#utility.yul\":3176:3199   */\n      sub\n        /* \"#utility.yul\":3172:3204   */\n      slt\n        /* \"#utility.yul\":3169:3288   */\n      iszero\n      tag_138\n      jumpi\n        /* \"#utility.yul\":3207:3286   */\n      tag_139\n      tag_78\n      jump\t// in\n    tag_139:\n        /* \"#utility.yul\":3169:3288   */\n    tag_138:\n        /* \"#utility.yul\":3327:3328   */\n      0x00\n        /* \"#utility.yul\":3352:3413   */\n      tag_140\n        /* \"#utility.yul\":3405:3412   */\n      dup5\n        /* \"#utility.yul\":3396:3402   */\n      dup3\n        /* \"#utility.yul\":3385:3394   */\n      dup6\n        /* \"#utility.yul\":3381:3403   */\n      add\n        /* \"#utility.yul\":3352:3413   */\n      tag_83\n      jump\t// in\n    tag_140:\n        /* \"#utility.yul\":3342:3413   */\n      swap2\n      pop\n        /* \"#utility.yul\":3298:3423   */\n      pop\n        /* \"#utility.yul\":3085:3430   */\n      swap3\n      swap2\n      pop\n      pop\n      jump\t// out\n        /* \"#utility.yul\":3436:3532   */\n    tag_84:\n        /* \"#utility.yul\":3473:3480   */\n      0x00\n        /* \"#utility.yul\":3502:3526   */\n      tag_142\n        /* \"#utility.yul\":3520:3525   */\n      dup3\n        /* \"#utility.yul\":3502:3526   */\n      tag_80\n      jump\t// in\n    tag_142:\n        /* \"#utility.yul\":3491:3526   */\n      swap1\n      pop\n        /* \"#utility.yul\":3436:3532   */\n      swap2\n      swap1\n      pop\n      jump\t// out\n        /* \"#utility.yul\":3538:3656   */\n    tag_85:\n        /* \"#utility.yul\":3625:3649   */\n      tag_144\n        /* \"#utility.yul\":3643:3648   */\n      dup2\n        /* \"#utility.yul\":3625:3649   */\n      tag_84\n      jump\t// in\n    tag_144:\n        /* \"#utility.yul\":3620:3623   */\n      dup3\n        /* \"#utility.yul\":3613:3650   */\n      mstore\n        /* \"#utility.yul\":3538:3656   */\n      pop\n      pop\n      jump\t// out\n        /* \"#utility.yul\":3662:3884   */\n    tag_38:\n        /* \"#utility.yul\":3755:3759   */\n      0x00\n        /* \"#utility.yul\":3793:3795   */\n      0x20\n        /* \"#utility.yul\":3782:3791   */\n      dup3\n        /* \"#utility.yul\":3778:3796   */\n      add\n        /* \"#utility.yul\":3770:3796   */\n      swap1\n      pop\n        /* \"#utility.yul\":3806:3877   */\n      tag_146\n        /* \"#utility.yul\":3874:3875   */\n      0x00\n        /* \"#utility.yul\":3863:3872   */\n      dup4\n        /* \"#utility.yul\":3859:3876   */\n      add\n        /* \"#utility.yul\":3850:3856   */\n      dup5\n        /* \"#utility.yul\":3806:3877   */\n      tag_85\n      jump\t// in\n    tag_146:\n        /* \"#utility.yul\":3662:3884   */\n      swap3\n      swap2\n      pop\n      pop\n      jump\t// out\n        /* \"#utility.yul\":3890:3966   */\n    tag_86:\n        /* \"#utility.yul\":3926:3933   */\n      0x00\n        /* \"#utility.yul\":3955:3960   */\n      dup2\n        /* \"#utility.yul\":3944:3960   */\n      swap1\n      pop\n        /* \"#utility.yul\":3890:3966   */\n      swap2\n      swap1\n      pop\n      jump\t// out\n        /* \"#utility.yul\":3972:4092   */\n    tag_87:\n        /* \"#utility.yul\":4044:4067   */\n      tag_149\n        /* \"#utility.yul\":4061:4066   */\n      dup2\n        /* \"#utility.yul\":4044:4067   */\n      tag_86\n      jump\t// in\n    tag_149:\n        /* \"#utility.yul\":4037:4042   */\n      dup2\n        /* \"#utility.yul\":4034:4068   */\n      eq\n        /* \"#utility.yul\":4024:4086   */\n      tag_150\n      jumpi\n        /* \"#utility.yul\":4082:4083   */\n      0x00\n        /* \"#utility.yul\":4079:4080   */\n      dup1\n        /* \"#utility.yul\":4072:4084   */\n      revert\n        /* \"#utility.yul\":4024:4086   */\n    tag_150:\n        /* \"#utility.yul\":3972:4092   */\n      pop\n      jump\t// out\n        /* \"#utility.yul\":4098:4235   */\n    tag_88:\n        /* \"#utility.yul\":4143:4148   */\n      0x00\n        /* \"#utility.yul\":4181:4187   */\n      dup2\n        /* \"#utility.yul\":4168:4188   */\n      calldataload\n        /* \"#utility.yul\":4159:4188   */\n      swap1\n      pop\n        /* \"#utility.yul\":4197:4229   */\n      tag_152\n        /* \"#utility.yul\":4223:4228   */\n      dup2\n        /* \"#utility.yul\":4197:4229   */\n      tag_87\n      jump\t// in\n    tag_152:\n        /* \"#utility.yul\":4098:4235   */\n      swap3\n      swap2\n      pop\n      pop\n      jump\t// out\n        /* \"#utility.yul\":4241:4711   */\n    tag_42:\n        /* \"#utility.yul\":4307:4313   */\n      0x00\n        /* \"#utility.yul\":4315:4321   */\n      dup1\n        /* \"#utility.yul\":4364:4366   */\n      0x40\n        /* \"#utility.yul\":4352:4361   */\n      dup4\n        /* \"#utility.yul\":4343:4350   */\n      dup6\n        /* \"#utility.yul\":4339:4362   */\n      sub\n        /* \"#utility.yul\":4335:4367   */\n      slt\n        /* \"#utility.yul\":4332:4451   */\n      iszero\n      tag_154\n      jumpi\n        /* \"#utility.yul\":4370:4449   */\n      tag_155\n      tag_78\n      jump\t// in\n    tag_155:\n        /* \"#utility.yul\":4332:4451   */\n    tag_154:\n        /* \"#utility.yul\":4490:4491   */\n      0x00\n        /* \"#utility.yul\":4515:4567   */\n      tag_156\n        /* \"#utility.yul\":4559:4566   */\n      dup6\n        /* \"#utility.yul\":4550:4556   */\n      dup3\n        /* \"#utility.yul\":4539:4548   */\n      dup7\n        /* \"#utility.yul\":4535:4557   */\n      add\n        /* \"#utility.yul\":4515:4567   */\n      tag_88\n      jump\t// in\n    tag_156:\n        /* \"#utility.yul\":4505:4567   */\n      swap3\n      pop\n        /* \"#utility.yul\":4461:4577   */\n      pop\n        /* \"#utility.yul\":4616:4618   */\n      0x20\n        /* \"#utility.yul\":4642:4694   */\n      tag_157\n        /* \"#utility.yul\":4686:4693   */\n      dup6\n        /* \"#utility.yul\":4677:4683   */\n      dup3\n        /* \"#utility.yul\":4666:4675   */\n      dup7\n        /* \"#utility.yul\":4662:4684   */\n      add\n        /* \"#utility.yul\":4642:4694   */\n      tag_88\n      jump\t// in\n    tag_157:\n        /* \"#utility.yul\":4632:4694   */\n      swap2\n      pop\n        /* \"#utility.yul\":4587:4704   */\n      pop\n        /* \"#utility.yul\":4241:4711   */\n      swap3\n      pop\n      swap3\n      swap1\n      pop\n      jump\t// out\n        /* \"#utility.yul\":4717:4832   */\n    tag_89:\n        /* \"#utility.yul\":4802:4825   */\n      tag_159\n        /* \"#utility.yul\":4819:4824   */\n      dup2\n        /* \"#utility.yul\":4802:4825   */\n      tag_86\n      jump\t// in\n    tag_159:\n        /* \"#utility.yul\":4797:4800   */\n      dup3\n        /* \"#utility.yul\":4790:4826   */\n      mstore\n        /* \"#utility.yul\":4717:4832   */\n      pop\n      pop\n      jump\t// out\n        /* \"#utility.yul\":4838:5056   */\n    tag_45:\n        /* \"#utility.yul\":4929:4933   */\n      0x00\n        /* \"#utility.yul\":4967:4969   */\n      0x20\n        /* \"#utility.yul\":4956:4965   */\n      dup3\n        /* \"#utility.yul\":4952:4970   */\n      add\n        /* \"#utility.yul\":4944:4970   */\n      swap1\n      pop\n        /* \"#utility.yul\":4980:5049   */\n      tag_161\n        /* \"#utility.yul\":5046:5047   */\n      0x00\n        /* \"#utility.yul\":5035:5044   */\n      dup4\n        /* \"#utility.yul\":5031:5048   */\n      add\n        /* \"#utility.yul\":5022:5028   */\n      dup5\n        /* \"#utility.yul\":4980:5049   */\n      tag_89\n      jump\t// in\n    tag_161:\n        /* \"#utility.yul\":4838:5056   */\n      swap3\n      swap2\n      pop\n      pop\n      jump\t// out\n        /* \"#utility.yul\":5062:5179   */\n    tag_90:\n        /* \"#utility.yul\":5171:5172   */\n      0x00\n        /* \"#utility.yul\":5168:5169   */\n      dup1\n        /* \"#utility.yul\":5161:5173   */\n      revert\n        /* \"#utility.yul\":5185:5302   */\n    tag_91:\n        /* \"#utility.yul\":5294:5295   */\n      0x00\n        /* \"#utility.yul\":5291:5292   */\n      dup1\n        /* \"#utility.yul\":5284:5296   */\n      revert\n        /* \"#utility.yul\":5308:5488   */\n    tag_92:\n        /* \"#utility.yul\":5356:5433   */\n      0x4e487b7100000000000000000000000000000000000000000000000000000000\n        /* \"#utility.yul\":5353:5354   */\n      0x00\n        /* \"#utility.yul\":5346:5434   */\n      mstore\n        /* \"#utility.yul\":5453:5457   */\n      0x41\n        /* \"#utility.yul\":5450:5451   */\n      0x04\n        /* \"#utility.yul\":5443:5458   */\n      mstore\n        /* \"#utility.yul\":5477:5481   */\n      0x24\n        /* \"#utility.yul\":5474:5475   */\n      0x00\n        /* \"#utility.yul\":5467:5482   */\n      revert\n        /* \"#utility.yul\":5494:5775   */\n    tag_93:\n        /* \"#utility.yul\":5577:5604   */\n      tag_166\n        /* \"#utility.yul\":5599:5603   */\n      dup3\n        /* \"#utility.yul\":5577:5604   */\n      tag_71\n      jump\t// in\n    tag_166:\n        /* \"#utility.yul\":5569:5575   */\n      dup2\n        /* \"#utility.yul\":5565:5605   */\n      add\n        /* \"#utility.yul\":5707:5713   */\n      dup2\n        /* \"#utility.yul\":5695:5705   */\n      dup2\n        /* \"#utility.yul\":5692:5714   */\n      lt\n        /* \"#utility.yul\":5671:5689   */\n      0xffffffffffffffff\n        /* \"#utility.yul\":5659:5669   */\n      dup3\n        /* \"#utility.yul\":5656:5690   */\n      gt\n        /* \"#utility.yul\":5653:5715   */\n      or\n        /* \"#utility.yul\":5650:5738   */\n      iszero\n      tag_167\n      jumpi\n        /* \"#utility.yul\":5718:5736   */\n      tag_168\n      tag_92\n      jump\t// in\n    tag_168:\n        /* \"#utility.yul\":5650:5738   */\n    tag_167:\n        /* \"#utility.yul\":5758:5768   */\n      dup1\n        /* \"#utility.yul\":5754:5756   */\n      0x40\n        /* \"#utility.yul\":5747:5769   */\n      mstore\n        /* \"#utility.yul\":5537:5775   */\n      pop\n        /* \"#utility.yul\":5494:5775   */\n      pop\n      pop\n      jump\t// out\n        /* \"#utility.yul\":5781:5910   */\n    tag_94:\n        /* \"#utility.yul\":5815:5821   */\n      0x00\n        /* \"#utility.yul\":5842:5862   */\n      tag_170\n      tag_77\n      jump\t// in\n    tag_170:\n        /* \"#utility.yul\":5832:5862   */\n      swap1\n      pop\n        /* \"#utility.yul\":5871:5904   */\n      tag_171\n        /* \"#utility.yul\":5899:5903   */\n      dup3\n        /* \"#utility.yul\":5891:5897   */\n      dup3\n        /* \"#utility.yul\":5871:5904   */\n      tag_93\n      jump\t// in\n    tag_171:\n        /* \"#utility.yul\":5781:5910   */\n      swap2\n      swap1\n      pop\n      jump\t// out\n        /* \"#utility.yul\":5916:6224   */\n    tag_95:\n        /* \"#utility.yul\":5978:5982   */\n      0x00\n        /* \"#utility.yul\":6068:6086   */\n      0xffffffffffffffff\n        /* \"#utility.yul\":6060:6066   */\n      dup3\n        /* \"#utility.yul\":6057:6087   */\n      gt\n        /* \"#utility.yul\":6054:6110   */\n      iszero\n      tag_173\n      jumpi\n        /* \"#utility.yul\":6090:6108   */\n      tag_174\n      tag_92\n      jump\t// in\n    tag_174:\n        /* \"#utility.yul\":6054:6110   */\n    tag_173:\n        /* \"#utility.yul\":6128:6157   */\n      tag_175\n        /* \"#utility.yul\":6150:6156   */\n      dup3\n        /* \"#utility.yul\":6128:6157   */\n      tag_71\n      jump\t// in\n    tag_175:\n        /* \"#utility.yul\":6120:6157   */\n      swap1\n      pop\n        /* \"#utility.yul\":6212:6216   */\n      0x20\n        /* \"#utility.yul\":6206:6210   */\n      dup2\n        /* \"#utility.yul\":6202:6217   */\n      add\n        /* \"#utility.yul\":6194:6217   */\n      swap1\n      pop\n        /* \"#utility.yul\":5916:6224   */\n      swap2\n      swap1\n      pop\n      jump\t// out\n        /* \"#utility.yul\":6230:6376   */\n    tag_96:\n        /* \"#utility.yul\":6327:6333   */\n      dup3\n        /* \"#utility.yul\":6322:6325   */\n      dup2\n        /* \"#utility.yul\":6317:6320   */\n      dup4\n        /* \"#utility.yul\":6304:6334   */\n      calldatacopy\n        /* \"#utility.yul\":6368:6369   */\n      0x00\n        /* \"#utility.yul\":6359:6365   */\n      dup4\n        /* \"#utility.yul\":6354:6357   */\n      dup4\n        /* \"#utility.yul\":6350:6366   */\n      add\n        /* \"#utility.yul\":6343:6370   */\n      mstore\n        /* \"#utility.yul\":6230:6376   */\n      pop\n      pop\n      pop\n      jump\t// out\n        /* \"#utility.yul\":6382:6807   */\n    tag_97:\n        /* \"#utility.yul\":6460:6465   */\n      0x00\n        /* \"#utility.yul\":6485:6551   */\n      tag_178\n        /* \"#utility.yul\":6501:6550   */\n      tag_179\n        /* \"#utility.yul\":6543:6549   */\n      dup5\n        /* \"#utility.yul\":6501:6550   */\n      tag_95\n      jump\t// in\n    tag_179:\n        /* \"#utility.yul\":6485:6551   */\n      tag_94\n      jump\t// in\n    tag_178:\n        /* \"#utility.yul\":6476:6551   */\n      swap1\n      pop\n        /* \"#utility.yul\":6574:6580   */\n      dup3\n        /* \"#utility.yul\":6567:6572   */\n      dup2\n        /* \"#utility.yul\":6560:6581   */\n      mstore\n        /* \"#utility.yul\":6612:6616   */\n      0x20\n        /* \"#utility.yul\":6605:6610   */\n      dup2\n        /* \"#utility.yul\":6601:6617   */\n      add\n        /* \"#utility.yul\":6650:6653   */\n      dup5\n        /* \"#utility.yul\":6641:6647   */\n      dup5\n        /* \"#utility.yul\":6636:6639   */\n      dup5\n        /* \"#utility.yul\":6632:6648   */\n      add\n        /* \"#utility.yul\":6629:6654   */\n      gt\n        /* \"#utility.yul\":6626:6738   */\n      iszero\n      tag_180\n      jumpi\n        /* \"#utility.yul\":6657:6736   */\n      tag_181\n      tag_91\n      jump\t// in\n    tag_181:\n        /* \"#utility.yul\":6626:6738   */\n    tag_180:\n        /* \"#utility.yul\":6747:6801   */\n      tag_182\n        /* \"#utility.yul\":6794:6800   */\n      dup5\n        /* \"#utility.yul\":6789:6792   */\n      dup3\n        /* \"#utility.yul\":6784:6787   */\n      dup6\n        /* \"#utility.yul\":6747:6801   */\n      tag_96\n      jump\t// in\n    tag_182:\n        /* \"#utility.yul\":6466:6807   */\n      pop\n        /* \"#utility.yul\":6382:6807   */\n      swap4\n      swap3\n      pop\n      pop\n      pop\n      jump\t// out\n        /* \"#utility.yul\":6827:7167   */\n    tag_98:\n        /* \"#utility.yul\":6883:6888   */\n      0x00\n        /* \"#utility.yul\":6932:6935   */\n      dup3\n        /* \"#utility.yul\":6925:6929   */\n      0x1f\n        /* \"#utility.yul\":6917:6923   */\n      dup4\n        /* \"#utility.yul\":6913:6930   */\n      add\n        /* \"#utility.yul\":6909:6936   */\n      slt\n        /* \"#utility.yul\":6899:7021   */\n      tag_184\n      jumpi\n        /* \"#utility.yul\":6940:7019   */\n      tag_185\n      tag_90\n      jump\t// in\n    tag_185:\n        /* \"#utility.yul\":6899:7021   */\n    tag_184:\n        /* \"#utility.yul\":7057:7063   */\n      dup2\n        /* \"#utility.yul\":7044:7064   */\n      calldataload\n        /* \"#utility.yul\":7082:7161   */\n      tag_186\n        /* \"#utility.yul\":7157:7160   */\n      dup5\n        /* \"#utility.yul\":7149:7155   */\n      dup3\n        /* \"#utility.yul\":7142:7146   */\n      0x20\n        /* \"#utility.yul\":7134:7140   */\n      dup7\n        /* \"#utility.yul\":7130:7147   */\n      add\n        /* \"#utility.yul\":7082:7161   */\n      tag_97\n      jump\t// in\n    tag_186:\n        /* \"#utility.yul\":7073:7161   */\n      swap2\n      pop\n        /* \"#utility.yul\":6889:7167   */\n      pop\n        /* \"#utility.yul\":6827:7167   */\n      swap3\n      swap2\n      pop\n      pop\n      jump\t// out\n        /* \"#utility.yul\":7173:7682   */\n    tag_49:\n        /* \"#utility.yul\":7242:7248   */\n      0x00\n        /* \"#utility.yul\":7291:7293   */\n      0x20\n        /* \"#utility.yul\":7279:7288   */\n      dup3\n        /* \"#utility.yul\":7270:7277   */\n      dup5\n        /* \"#utility.yul\":7266:7289   */\n      sub\n        /* \"#utility.yul\":7262:7294   */\n      slt\n        /* \"#utility.yul\":7259:7378   */\n      iszero\n      tag_188\n      jumpi\n        /* \"#utility.yul\":7297:7376   */\n      tag_189\n      tag_78\n      jump\t// in\n    tag_189:\n        /* \"#utility.yul\":7259:7378   */\n    tag_188:\n        /* \"#utility.yul\":7445:7446   */\n      0x00\n        /* \"#utility.yul\":7434:7443   */\n      dup3\n        /* \"#utility.yul\":7430:7447   */\n      add\n        /* \"#utility.yul\":7417:7448   */\n      calldataload\n        /* \"#utility.yul\":7475:7493   */\n      0xffffffffffffffff\n        /* \"#utility.yul\":7467:7473   */\n      dup2\n        /* \"#utility.yul\":7464:7494   */\n      gt\n        /* \"#utility.yul\":7461:7578   */\n      iszero\n      tag_190\n      jumpi\n        /* \"#utility.yul\":7497:7576   */\n      tag_191\n      tag_79\n      jump\t// in\n    tag_191:\n        /* \"#utility.yul\":7461:7578   */\n    tag_190:\n        /* \"#utility.yul\":7602:7665   */\n      tag_192\n        /* \"#utility.yul\":7657:7664   */\n      dup5\n        /* \"#utility.yul\":7648:7654   */\n      dup3\n        /* \"#utility.yul\":7637:7646   */\n      dup6\n        /* \"#utility.yul\":7633:7655   */\n      add\n        /* \"#utility.yul\":7602:7665   */\n      tag_98\n      jump\t// in\n    tag_192:\n        /* \"#utility.yul\":7592:7665   */\n      swap2\n      pop\n        /* \"#utility.yul\":7388:7675   */\n      pop\n        /* \"#utility.yul\":7173:7682   */\n      swap3\n      swap2\n      pop\n      pop\n      jump\t// out\n        /* \"#utility.yul\":7688:7868   */\n    tag_99:\n        /* \"#utility.yul\":7736:7813   */\n      0x4e487b7100000000000000000000000000000000000000000000000000000000\n        /* \"#utility.yul\":7733:7734   */\n      0x00\n        /* \"#utility.yul\":7726:7814   */\n      mstore\n        /* \"#utility.yul\":7833:7837   */\n      0x22\n        /* \"#utility.yul\":7830:7831   */\n      0x04\n        /* \"#utility.yul\":7823:7838   */\n      mstore\n        /* \"#utility.yul\":7857:7861   */\n      0x24\n        /* \"#utility.yul\":7854:7855   */\n      0x00\n        /* \"#utility.yul\":7847:7862   */\n      revert\n        /* \"#utility.yul\":7874:8194   */\n    tag_53:\n        /* \"#utility.yul\":7918:7924   */\n      0x00\n        /* \"#utility.yul\":7955:7956   */\n      0x02\n        /* \"#utility.yul\":7949:7953   */\n      dup3\n        /* \"#utility.yul\":7945:7957   */\n      div\n        /* \"#utility.yul\":7935:7957   */\n      swap1\n      pop\n        /* \"#utility.yul\":8002:8003   */\n      0x01\n        /* \"#utility.yul\":7996:8000   */\n      dup3\n        /* \"#utility.yul\":7992:8004   */\n      and\n        /* \"#utility.yul\":8023:8041   */\n      dup1\n        /* \"#utility.yul\":8013:8094   */\n      tag_195\n      jumpi\n        /* \"#utility.yul\":8079:8083   */\n      0x7f\n        /* \"#utility.yul\":8071:8077   */\n      dup3\n        /* \"#utility.yul\":8067:8084   */\n      and\n        /* \"#utility.yul\":8057:8084   */\n      swap2\n      pop\n        /* \"#utility.yul\":8013:8094   */\n    tag_195:\n        /* \"#utility.yul\":8141:8143   */\n      0x20\n        /* \"#utility.yul\":8133:8139   */\n      dup3\n        /* \"#utility.yul\":8130:8144   */\n      lt\n        /* \"#utility.yul\":8110:8128   */\n      dup2\n        /* \"#utility.yul\":8107:8145   */\n      sub\n        /* \"#utility.yul\":8104:8188   */\n      tag_196\n      jumpi\n        /* \"#utility.yul\":8160:8178   */\n      tag_197\n      tag_99\n      jump\t// in\n    tag_197:\n        /* \"#utility.yul\":8104:8188   */\n    tag_196:\n        /* \"#utility.yul\":7925:8194   */\n      pop\n        /* \"#utility.yul\":7874:8194   */\n      swap2\n      swap1\n      pop\n      jump\t// out\n        /* \"#utility.yul\":8200:8380   */\n    tag_100:\n        /* \"#utility.yul\":8248:8325   */\n      0x4e487b7100000000000000000000000000000000000000000000000000000000\n        /* \"#utility.yul\":8245:8246   */\n      0x00\n        /* \"#utility.yul\":8238:8326   */\n      mstore\n        /* \"#utility.yul\":8345:8349   */\n      0x11\n        /* \"#utility.yul\":8342:8343   */\n      0x04\n        /* \"#utility.yul\":8335:8350   */\n      mstore\n        /* \"#utility.yul\":8369:8373   */\n      0x24\n        /* \"#utility.yul\":8366:8367   */\n      0x00\n        /* \"#utility.yul\":8359:8374   */\n      revert\n        /* \"#utility.yul\":8386:8761   */\n    tag_64:\n        /* \"#utility.yul\":8425:8428   */\n      0x00\n        /* \"#utility.yul\":8444:8463   */\n      tag_200\n        /* \"#utility.yul\":8461:8462   */\n      dup3\n        /* \"#utility.yul\":8444:8463   */\n      tag_86\n      jump\t// in\n    tag_200:\n        /* \"#utility.yul\":8439:8463   */\n      swap2\n      pop\n        /* \"#utility.yul\":8477:8496   */\n      tag_201\n        /* \"#utility.yul\":8494:8495   */\n      dup4\n        /* \"#utility.yul\":8477:8496   */\n      tag_86\n      jump\t// in\n    tag_201:\n        /* \"#utility.yul\":8472:8496   */\n      swap3\n      pop\n        /* \"#utility.yul\":8519:8520   */\n      dup3\n        /* \"#utility.yul\":8516:8517   */\n      dup3\n        /* \"#utility.yul\":8512:8521   */\n      add\n        /* \"#utility.yul\":8505:8521   */\n      swap1\n      pop\n        /* \"#utility.yul\":8717:8718   */\n      dup3\n        /* \"#utility.yul\":8712:8715   */\n      dup2\n        /* \"#utility.yul\":8708:8719   */\n      slt\n        /* \"#utility.yul\":8701:8720   */\n      iszero\n        /* \"#utility.yul\":8697:8698   */\n      0x00\n        /* \"#utility.yul\":8694:8695   */\n      dup4\n        /* \"#utility.yul\":8690:8699   */\n      slt\n        /* \"#utility.yul\":8686:8721   */\n      and\n        /* \"#utility.yul\":8669:8670   */\n      dup4\n        /* \"#utility.yul\":8664:8667   */\n      dup3\n        /* \"#utility.yul\":8660:8671   */\n      slt\n        /* \"#utility.yul\":8655:8656   */\n      0x00\n        /* \"#utility.yul\":8652:8653   */\n      dup5\n        /* \"#utility.yul\":8648:8657   */\n      slt\n        /* \"#utility.yul\":8641:8658   */\n      iszero\n        /* \"#utility.yul\":8637:8672   */\n      and\n        /* \"#utility.yul\":8621:8731   */\n      or\n        /* \"#utility.yul\":8618:8754   */\n      iszero\n      tag_202\n      jumpi\n        /* \"#utility.yul\":8734:8752   */\n      tag_203\n      tag_100\n      jump\t// in\n    tag_203:\n        /* \"#utility.yul\":8618:8754   */\n    tag_202:\n        /* \"#utility.yul\":8386:8761   */\n      swap3\n      swap2\n      pop\n      pop\n      jump\t// out\n\n    auxdata: 0xa2646970667358221220210b6e43f73237052cbe41ce6b30be701e32fab7a25e5cc63a1d5bf6c7eaa42064736f6c63430008120033\n}\n",
				"bytecode": {
					"linkReferences": {},
					"object": "60806040523480156200001157600080fd5b5060405162000f0438038062000f048339818101604052810190620000379190620002bf565b8260008190555081600160006101000a81548160ff02191690831515021790555080600290816200006991906200057b565b5033600360006101000a81548173ffffffffffffffffffffffffffffffffffffffff021916908373ffffffffffffffffffffffffffffffffffffffff16021790555050505062000662565b6000604051905090565b600080fd5b600080fd5b6000819050919050565b620000dd81620000c8565b8114620000e957600080fd5b50565b600081519050620000fd81620000d2565b92915050565b60008115159050919050565b6200011a8162000103565b81146200012657600080fd5b50565b6000815190506200013a816200010f565b92915050565b600080fd5b600080fd5b6000601f19601f8301169050919050565b7f4e487b7100000000000000000000000000000000000000000000000000000000600052604160045260246000fd5b62000195826200014a565b810181811067ffffffffffffffff82111715620001b757620001b66200015b565b5b80604052505050565b6000620001cc620000b4565b9050620001da82826200018a565b919050565b600067ffffffffffffffff821115620001fd57620001fc6200015b565b5b62000208826200014a565b9050602081019050919050565b60005b838110156200023557808201518184015260208101905062000218565b60008484015250505050565b6000620002586200025284620001df565b620001c0565b90508281526020810184848401111562000277576200027662000145565b5b6200028484828562000215565b509392505050565b600082601f830112620002a457620002a362000140565b5b8151620002b684826020860162000241565b91505092915050565b600080600060608486031215620002db57620002da620000be565b5b6000620002eb86828701620000ec565b9350506020620002fe8682870162000129565b925050604084015167ffffffffffffffff811115620003225762000321620000c3565b5b62000330868287016200028c565b9150509250925092565b600081519050919050565b7f4e487b7100000000000000000000000000000000000000000000000000000000600052602260045260246000fd5b600060028204905060018216806200038d57607f821691505b602082108103620003a357620003a262000345565b5b50919050565b60008190508160005260206000209050919050565b60006020601f8301049050919050565b600082821b905092915050565b6000600883026200040d7fffffffffffffffffffffffffffffffffffffffffffffffffffffffffffffffff82620003ce565b620004198683620003ce565b95508019841693508086168417925050509392505050565b6000819050919050565b60006200045c620004566200045084620000c8565b62000431565b620000c8565b9050919050565b6000819050919050565b62000478836200043b565b62000490620004878262000463565b848454620003db565b825550505050565b600090565b620004a762000498565b620004b48184846200046d565b505050565b5b81811015620004dc57620004d06000826200049d565b600181019050620004ba565b5050565b601f8211156200052b57620004f581620003a9565b6200050084620003be565b8101602085101562000510578190505b620005286200051f85620003be565b830182620004b9565b50505b505050565b600082821c905092915050565b6000620005506000198460080262000530565b1980831691505092915050565b60006200056b83836200053d565b9150826002028217905092915050565b62000586826200033a565b67ffffffffffffffff811115620005a257620005a16200015b565b5b620005ae825462000374565b620005bb828285620004e0565b600060209050601f831160018114620005f35760008415620005de578287015190505b620005ea85826200055d565b8655506200065a565b601f1984166200060386620003a9565b60005b828110156200062d5784890151825560018201915060208501945060208101905062000606565b868310156200064d578489015162000649601f8916826200053d565b8355505b6001600288020188555050505b505050505050565b61089280620006726000396000f3fe60806040526004361061007b5760003560e01c806348c981e21161004e57806348c981e21461012c578063521eb273146101485780639967062d14610173578063f9fbd554146101b05761007b565b806306fdde0314610080578063099aea0a146100ab5780633694998a146100d65780633f83ea3b14610101575b600080fd5b34801561008c57600080fd5b506100956101ed565b6040516100a29190610404565b60405180910390f35b3480156100b757600080fd5b506100c061027b565b6040516100cd9190610441565b60405180910390f35b3480156100e257600080fd5b506100eb61028e565b6040516100f89190610475565b60405180910390f35b34801561010d57600080fd5b50610116610297565b6040516101239190610475565b60405180910390f35b61014660048036038101906101419190610502565b61029d565b005b34801561015457600080fd5b5061015d6102e7565b60405161016a9190610550565b60405180910390f35b34801561017f57600080fd5b5061019a600480360381019061019591906105a1565b61030d565b6040516101a791906105f0565b60405180910390f35b3480156101bc57600080fd5b506101d760048036038101906101d29190610740565b610323565b6040516101e49190610404565b60405180910390f35b600280546101fa906107b8565b80601f0160208091040260200160405190810160405280929190818152602001828054610226906107b8565b80156102735780601f1061024857610100808354040283529160200191610273565b820191906000526020600020905b81548152906001019060200180831161025657829003601f168201915b505050505081565b600160009054906101000a900460ff1681565b60008054905090565b60005481565b8073ffffffffffffffffffffffffffffffffffffffff166108fc349081150290604051600060405180830381858888f193505050501580156102e3573d6000803e3d6000fd5b5050565b600360009054906101000a900473ffffffffffffffffffffffffffffffffffffffff1681565b6000818361031b9190610818565b905092915050565b6060600082510361036b576040518060400160405280600481526020017f6e756c6c00000000000000000000000000000000000000000000000000000000815250905061036f565b8190505b919050565b600081519050919050565b600082825260208201905092915050565b60005b838110156103ae578082015181840152602081019050610393565b60008484015250505050565b6000601f19601f8301169050919050565b60006103d682610374565b6103e0818561037f565b93506103f0818560208601610390565b6103f9816103ba565b840191505092915050565b6000602082019050818103600083015261041e81846103cb565b905092915050565b60008115159050919050565b61043b81610426565b82525050565b60006020820190506104566000830184610432565b92915050565b6000819050919050565b61046f8161045c565b82525050565b600060208201905061048a6000830184610466565b92915050565b6000604051905090565b600080fd5b600080fd5b600073ffffffffffffffffffffffffffffffffffffffff82169050919050565b60006104cf826104a4565b9050919050565b6104df816104c4565b81146104ea57600080fd5b50565b6000813590506104fc816104d6565b92915050565b6000602082840312156105185761051761049a565b5b6000610526848285016104ed565b91505092915050565b600061053a826104a4565b9050919050565b61054a8161052f565b82525050565b60006020820190506105656000830184610541565b92915050565b6000819050919050565b61057e8161056b565b811461058957600080fd5b50565b60008135905061059b81610575565b92915050565b600080604083850312156105b8576105b761049a565b5b60006105c68582860161058c565b92505060206105d78582860161058c565b9150509250929050565b6105ea8161056b565b82525050565b600060208201905061060560008301846105e1565b92915050565b600080fd5b600080fd5b7f4e487b7100000000000000000000000000000000000000000000000000000000600052604160045260246000fd5b61064d826103ba565b810181811067ffffffffffffffff8211171561066c5761066b610615565b5b80604052505050565b600061067f610490565b905061068b8282610644565b919050565b600067ffffffffffffffff8211156106ab576106aa610615565b5b6106b4826103ba565b9050602081019050919050565b82818337600083830152505050565b60006106e36106de84610690565b610675565b9050828152602081018484840111156106ff576106fe610610565b5b61070a8482856106c1565b509392505050565b600082601f8301126107275761072661060b565b5b81356107378482602086016106d0565b91505092915050565b6000602082840312156107565761075561049a565b5b600082013567ffffffffffffffff8111156107745761077361049f565b5b61078084828501610712565b91505092915050565b7f4e487b7100000000000000000000000000000000000000000000000000000000600052602260045260246000fd5b600060028204905060018216806107d057607f821691505b6020821081036107e3576107e2610789565b5b50919050565b7f4e487b7100000000000000000000000000000000000000000000000000000000600052601160045260246000fd5b60006108238261056b565b915061082e8361056b565b925082820190508281121560008312168382126000841215161715610856576108556107e9565b5b9291505056fea2646970667358221220210b6e43f73237052cbe41ce6b30be701e32fab7a25e5cc63a1d5bf6c7eaa42064736f6c63430008120033",
					"opcodes": "PUSH1 0x80 PUSH1 0x40 MSTORE CALLVALUE DUP1 ISZERO PUSH3 0x11 JUMPI PUSH1 0x0 DUP1 REVERT JUMPDEST POP PUSH1 0x40 MLOAD PUSH3 0xF04 CODESIZE SUB DUP1 PUSH3 0xF04 DUP4 CODECOPY DUP2 DUP2 ADD PUSH1 0x40 MSTORE DUP2 ADD SWAP1 PUSH3 0x37 SWAP2 SWAP1 PUSH3 0x2BF JUMP JUMPDEST DUP3 PUSH1 0x0 DUP2 SWAP1 SSTORE POP DUP2 PUSH1 0x1 PUSH1 0x0 PUSH2 0x100 EXP DUP2 SLOAD DUP2 PUSH1 0xFF MUL NOT AND SWAP1 DUP4 ISZERO ISZERO MUL OR SWAP1 SSTORE POP DUP1 PUSH1 0x2 SWAP1 DUP2 PUSH3 0x69 SWAP2 SWAP1 PUSH3 0x57B JUMP JUMPDEST POP CALLER PUSH1 0x3 PUSH1 0x0 PUSH2 0x100 EXP DUP2 SLOAD DUP2 PUSH20 0xFFFFFFFFFFFFFFFFFFFFFFFFFFFFFFFFFFFFFFFF MUL NOT AND SWAP1 DUP4 PUSH20 0xFFFFFFFFFFFFFFFFFFFFFFFFFFFFFFFFFFFFFFFF AND MUL OR SWAP1 SSTORE POP POP POP POP PUSH3 0x662 JUMP JUMPDEST PUSH1 0x0 PUSH1 0x40 MLOAD SWAP1 POP SWAP1 JUMP JUMPDEST PUSH1 0x0 DUP1 REVERT JUMPDEST PUSH1 0x0 DUP1 REVERT JUMPDEST PUSH1 0x0 DUP2 SWAP1 POP SWAP2 SWAP1 POP JUMP JUMPDEST PUSH3 0xDD DUP2 PUSH3 0xC8 JUMP JUMPDEST DUP2 EQ PUSH3 0xE9 JUMPI PUSH1 0x0 DUP1 REVERT JUMPDEST POP JUMP JUMPDEST PUSH1 0x0 DUP2 MLOAD SWAP1 POP PUSH3 0xFD DUP2 PUSH3 0xD2 JUMP JUMPDEST SWAP3 SWAP2 POP POP JUMP JUMPDEST PUSH1 0x0 DUP2 ISZERO ISZERO SWAP1 POP SWAP2 SWAP1 POP JUMP JUMPDEST PUSH3 0x11A DUP2 PUSH3 0x103 JUMP JUMPDEST DUP2 EQ PUSH3 0x126 JUMPI PUSH1 0x0 DUP1 REVERT JUMPDEST POP JUMP JUMPDEST PUSH1 0x0 DUP2 MLOAD SWAP1 POP PUSH3 0x13A DUP2 PUSH3 0x10F JUMP JUMPDEST SWAP3 SWAP2 POP POP JUMP JUMPDEST PUSH1 0x0 DUP1 REVERT JUMPDEST PUSH1 0x0 DUP1 REVERT JUMPDEST PUSH1 0x0 PUSH1 0x1F NOT PUSH1 0x1F DUP4 ADD AND SWAP1 POP SWAP2 SWAP1 POP JUMP JUMPDEST PUSH32 0x4E487B7100000000000000000000000000000000000000000000000000000000 PUSH1 0x0 MSTORE PUSH1 0x41 PUSH1 0x4 MSTORE PUSH1 0x24 PUSH1 0x0 REVERT JUMPDEST PUSH3 0x195 DUP3 PUSH3 0x14A JUMP JUMPDEST DUP2 ADD DUP2 DUP2 LT PUSH8 0xFFFFFFFFFFFFFFFF DUP3 GT OR ISZERO PUSH3 0x1B7 JUMPI PUSH3 0x1B6 PUSH3 0x15B JUMP JUMPDEST JUMPDEST DUP1 PUSH1 0x40 MSTORE POP POP POP JUMP JUMPDEST PUSH1 0x0 PUSH3 0x1CC PUSH3 0xB4 JUMP JUMPDEST SWAP1 POP PUSH3 0x1DA DUP3 DUP3 PUSH3 0x18A JUMP JUMPDEST SWAP2 SWAP1 POP JUMP JUMPDEST PUSH1 0x0 PUSH8 0xFFFFFFFFFFFFFFFF DUP3 GT ISZERO PUSH3 0x1FD JUMPI PUSH3 0x1FC PUSH3 0x15B JUMP JUMPDEST JUMPDEST PUSH3 0x208 DUP3 PUSH3 0x14A JUMP JUMPDEST SWAP1 POP PUSH1 0x20 DUP2 ADD SWAP1 POP SWAP2 SWAP1 POP JUMP JUMPDEST PUSH1 0x0 JUMPDEST DUP4 DUP2 LT ISZERO PUSH3 0x235 JUMPI DUP1 DUP3 ADD MLOAD DUP2 DUP5 ADD MSTORE PUSH1 0x20 DUP2 ADD SWAP1 POP PUSH3 0x218 JUMP JUMPDEST PUSH1 0x0 DUP5 DUP5 ADD MSTORE POP POP POP POP JUMP JUMPDEST PUSH1 0x0 PUSH3 0x258 PUSH3 0x252 DUP5 PUSH3 0x1DF JUMP JUMPDEST PUSH3 0x1C0 JUMP JUMPDEST SWAP1 POP DUP3 DUP2 MSTORE PUSH1 0x20 DUP2 ADD DUP5 DUP5 DUP5 ADD GT ISZERO PUSH3 0x277 JUMPI PUSH3 0x276 PUSH3 0x145 JUMP JUMPDEST JUMPDEST PUSH3 0x284 DUP5 DUP3 DUP6 PUSH3 0x215 JUMP JUMPDEST POP SWAP4 SWAP3 POP POP POP JUMP JUMPDEST PUSH1 0x0 DUP3 PUSH1 0x1F DUP4 ADD SLT PUSH3 0x2A4 JUMPI PUSH3 0x2A3 PUSH3 0x140 JUMP JUMPDEST JUMPDEST DUP2 MLOAD PUSH3 0x2B6 DUP5 DUP3 PUSH1 0x20 DUP7 ADD PUSH3 0x241 JUMP JUMPDEST SWAP2 POP POP SWAP3 SWAP2 POP POP JUMP JUMPDEST PUSH1 0x0 DUP1 PUSH1 0x0 PUSH1 0x60 DUP5 DUP7 SUB SLT ISZERO PUSH3 0x2DB JUMPI PUSH3 0x2DA PUSH3 0xBE JUMP JUMPDEST JUMPDEST PUSH1 0x0 PUSH3 0x2EB DUP7 DUP3 DUP8 ADD PUSH3 0xEC JUMP JUMPDEST SWAP4 POP POP PUSH1 0x20 PUSH3 0x2FE DUP7 DUP3 DUP8 ADD PUSH3 0x129 JUMP JUMPDEST SWAP3 POP POP PUSH1 0x40 DUP5 ADD MLOAD PUSH8 0xFFFFFFFFFFFFFFFF DUP2 GT ISZERO PUSH3 0x322 JUMPI PUSH3 0x321 PUSH3 0xC3 JUMP JUMPDEST JUMPDEST PUSH3 0x330 DUP7 DUP3 DUP8 ADD PUSH3 0x28C JUMP JUMPDEST SWAP2 POP POP SWAP3 POP SWAP3 POP SWAP3 JUMP JUMPDEST PUSH1 0x0 DUP2 MLOAD SWAP1 POP SWAP2 SWAP1 POP JUMP JUMPDEST PUSH32 0x4E487B7100000000000000000000000000000000000000000000000000000000 PUSH1 0x0 MSTORE PUSH1 0x22 PUSH1 0x4 MSTORE PUSH1 0x24 PUSH1 0x0 REVERT JUMPDEST PUSH1 0x0 PUSH1 0x2 DUP3 DIV SWAP1 POP PUSH1 0x1 DUP3 AND DUP1 PUSH3 0x38D JUMPI PUSH1 0x7F DUP3 AND SWAP2 POP JUMPDEST PUSH1 0x20 DUP3 LT DUP2 SUB PUSH3 0x3A3 JUMPI PUSH3 0x3A2 PUSH3 0x345 JUMP JUMPDEST JUMPDEST POP SWAP2 SWAP1 POP JUMP JUMPDEST PUSH1 0x0 DUP2 SWAP1 POP DUP2 PUSH1 0x0 MSTORE PUSH1 0x20 PUSH1 0x0 KECCAK256 SWAP1 POP SWAP2 SWAP1 POP JUMP JUMPDEST PUSH1 0x0 PUSH1 0x20 PUSH1 0x1F DUP4 ADD DIV SWAP1 POP SWAP2 SWAP1 POP JUMP JUMPDEST PUSH1 0x0 DUP3 DUP3 SHL SWAP1 POP SWAP3 SWAP2 POP POP JUMP JUMPDEST PUSH1 0x0 PUSH1 0x8 DUP4 MUL PUSH3 0x40D PUSH32 0xFFFFFFFFFFFFFFFFFFFFFFFFFFFFFFFFFFFFFFFFFFFFFFFFFFFFFFFFFFFFFFFF DUP3 PUSH3 0x3CE JUMP JUMPDEST PUSH3 0x419 DUP7 DUP4 PUSH3 0x3CE JUMP JUMPDEST SWAP6 POP DUP1 NOT DUP5 AND SWAP4 POP DUP1 DUP7 AND DUP5 OR SWAP3 POP POP POP SWAP4 SWAP3 POP POP POP JUMP JUMPDEST PUSH1 0x0 DUP2 SWAP1 POP SWAP2 SWAP1 POP JUMP JUMPDEST PUSH1 0x0 PUSH3 0x45C PUSH3 0x456 PUSH3 0x450 DUP5 PUSH3 0xC8 JUMP JUMPDEST PUSH3 0x431 JUMP JUMPDEST PUSH3 0xC8 JUMP JUMPDEST SWAP1 POP SWAP2 SWAP1 POP JUMP JUMPDEST PUSH1 0x0 DUP2 SWAP1 POP SWAP2 SWAP1 POP JUMP JUMPDEST PUSH3 0x478 DUP4 PUSH3 0x43B JUMP JUMPDEST PUSH3 0x490 PUSH3 0x487 DUP3 PUSH3 0x463 JUMP JUMPDEST DUP5 DUP5 SLOAD PUSH3 0x3DB JUMP JUMPDEST DUP3 SSTORE POP POP POP POP JUMP JUMPDEST PUSH1 0x0 SWAP1 JUMP JUMPDEST PUSH3 0x4A7 PUSH3 0x498 JUMP JUMPDEST PUSH3 0x4B4 DUP2 DUP5 DUP5 PUSH3 0x46D JUMP JUMPDEST POP POP POP JUMP JUMPDEST JUMPDEST DUP2 DUP2 LT ISZERO PUSH3 0x4DC JUMPI PUSH3 0x4D0 PUSH1 0x0 DUP3 PUSH3 0x49D JUMP JUMPDEST PUSH1 0x1 DUP2 ADD SWAP1 POP PUSH3 0x4BA JUMP JUMPDEST POP POP JUMP JUMPDEST PUSH1 0x1F DUP3 GT ISZERO PUSH3 0x52B JUMPI PUSH3 0x4F5 DUP2 PUSH3 0x3A9 JUMP JUMPDEST PUSH3 0x500 DUP5 PUSH3 0x3BE JUMP JUMPDEST DUP2 ADD PUSH1 0x20 DUP6 LT ISZERO PUSH3 0x510 JUMPI DUP2 SWAP1 POP JUMPDEST PUSH3 0x528 PUSH3 0x51F DUP6 PUSH3 0x3BE JUMP JUMPDEST DUP4 ADD DUP3 PUSH3 0x4B9 JUMP JUMPDEST POP POP JUMPDEST POP POP POP JUMP JUMPDEST PUSH1 0x0 DUP3 DUP3 SHR SWAP1 POP SWAP3 SWAP2 POP POP JUMP JUMPDEST PUSH1 0x0 PUSH3 0x550 PUSH1 0x0 NOT DUP5 PUSH1 0x8 MUL PUSH3 0x530 JUMP JUMPDEST NOT DUP1 DUP4 AND SWAP2 POP POP SWAP3 SWAP2 POP POP JUMP JUMPDEST PUSH1 0x0 PUSH3 0x56B DUP4 DUP4 PUSH3 0x53D JUMP JUMPDEST SWAP2 POP DUP3 PUSH1 0x2 MUL DUP3 OR SWAP1 POP SWAP3 SWAP2 POP POP JUMP JUMPDEST PUSH3 0x586 DUP3 PUSH3 0x33A JUMP JUMPDEST PUSH8 0xFFFFFFFFFFFFFFFF DUP2 GT ISZERO PUSH3 0x5A2 JUMPI PUSH3 0x5A1 PUSH3 0x15B JUMP JUMPDEST JUMPDEST PUSH3 0x5AE DUP3 SLOAD PUSH3 0x374 JUMP JUMPDEST PUSH3 0x5BB DUP3 DUP3 DUP6 PUSH3 0x4E0 JUMP JUMPDEST PUSH1 0x0 PUSH1 0x20 SWAP1 POP PUSH1 0x1F DUP4 GT PUSH1 0x1 DUP2 EQ PUSH3 0x5F3 JUMPI PUSH1 0x0 DUP5 ISZERO PUSH3 0x5DE JUMPI DUP3 DUP8 ADD MLOAD SWAP1 POP JUMPDEST PUSH3 0x5EA DUP6 DUP3 PUSH3 0x55D JUMP JUMPDEST DUP7 SSTORE POP PUSH3 0x65A JUMP JUMPDEST PUSH1 0x1F NOT DUP5 AND PUSH3 0x603 DUP7 PUSH3 0x3A9 JUMP JUMPDEST PUSH1 0x0 JUMPDEST DUP3 DUP2 LT ISZERO PUSH3 0x62D JUMPI DUP5 DUP10 ADD MLOAD DUP3 SSTORE PUSH1 0x1 DUP3 ADD SWAP2 POP PUSH1 0x20 DUP6 ADD SWAP5 POP PUSH1 0x20 DUP2 ADD SWAP1 POP PUSH3 0x606 JUMP JUMPDEST DUP7 DUP4 LT ISZERO PUSH3 0x64D JUMPI DUP5 DUP10 ADD MLOAD PUSH3 0x649 PUSH1 0x1F DUP10 AND DUP3 PUSH3 0x53D JUMP JUMPDEST DUP4 SSTORE POP JUMPDEST PUSH1 0x1 PUSH1 0x2 DUP9 MUL ADD DUP9 SSTORE POP POP POP JUMPDEST POP POP POP POP POP POP JUMP JUMPDEST PUSH2 0x892 DUP1 PUSH3 0x672 PUSH1 0x0 CODECOPY PUSH1 0x0 RETURN INVALID PUSH1 0x80 PUSH1 0x40 MSTORE PUSH1 0x4 CALLDATASIZE LT PUSH2 0x7B JUMPI PUSH1 0x0 CALLDATALOAD PUSH1 0xE0 SHR DUP1 PUSH4 0x48C981E2 GT PUSH2 0x4E JUMPI DUP1 PUSH4 0x48C981E2 EQ PUSH2 0x12C JUMPI DUP1 PUSH4 0x521EB273 EQ PUSH2 0x148 JUMPI DUP1 PUSH4 0x9967062D EQ PUSH2 0x173 JUMPI DUP1 PUSH4 0xF9FBD554 EQ PUSH2 0x1B0 JUMPI PUSH2 0x7B JUMP JUMPDEST DUP1 PUSH4 0x6FDDE03 EQ PUSH2 0x80 JUMPI DUP1 PUSH4 0x99AEA0A EQ PUSH2 0xAB JUMPI DUP1 PUSH4 0x3694998A EQ PUSH2 0xD6 JUMPI DUP1 PUSH4 0x3F83EA3B EQ PUSH2 0x101 JUMPI JUMPDEST PUSH1 0x0 DUP1 REVERT JUMPDEST CALLVALUE DUP1 ISZERO PUSH2 0x8C JUMPI PUSH1 0x0 DUP1 REVERT JUMPDEST POP PUSH2 0x95 PUSH2 0x1ED JUMP JUMPDEST PUSH1 0x40 MLOAD PUSH2 0xA2 SWAP2 SWAP1 PUSH2 0x404 JUMP JUMPDEST PUSH1 0x40 MLOAD DUP1 SWAP2 SUB SWAP1 RETURN JUMPDEST CALLVALUE DUP1 ISZERO PUSH2 0xB7 JUMPI PUSH1 0x0 DUP1 REVERT JUMPDEST POP PUSH2 0xC0 PUSH2 0x27B JUMP JUMPDEST PUSH1 0x40 MLOAD PUSH2 0xCD SWAP2 SWAP1 PUSH2 0x441 JUMP JUMPDEST PUSH1 0x40 MLOAD DUP1 SWAP2 SUB SWAP1 RETURN JUMPDEST CALLVALUE DUP1 ISZERO PUSH2 0xE2 JUMPI PUSH1 0x0 DUP1 REVERT JUMPDEST POP PUSH2 0xEB PUSH2 0x28E JUMP JUMPDEST PUSH1 0x40 MLOAD PUSH2 0xF8 SWAP2 SWAP1 PUSH2 0x475 JUMP JUMPDEST PUSH1 0x40 MLOAD DUP1 SWAP2 SUB SWAP1 RETURN JUMPDEST CALLVALUE DUP1 ISZERO PUSH2 0x10D JUMPI PUSH1 0x0 DUP1 REVERT JUMPDEST POP PUSH2 0x116 PUSH2 0x297 JUMP JUMPDEST PUSH1 0x40 MLOAD PUSH2 0x123 SWAP2 SWAP1 PUSH2 0x475 JUMP JUMPDEST PUSH1 0x40 MLOAD DUP1 SWAP2 SUB SWAP1 RETURN JUMPDEST PUSH2 0x146 PUSH1 0x4 DUP1 CALLDATASIZE SUB DUP2 ADD SWAP1 PUSH2 0x141 SWAP2 SWAP1 PUSH2 0x502 JUMP JUMPDEST PUSH2 0x29D JUMP JUMPDEST STOP JUMPDEST CALLVALUE DUP1 ISZERO PUSH2 0x154 JUMPI PUSH1 0x0 DUP1 REVERT JUMPDEST POP PUSH2 0x15D PUSH2 0x2E7 JUMP JUMPDEST PUSH1 0x40 MLOAD PUSH2 0x16A SWAP2 SWAP1 PUSH2 0x550 JUMP JUMPDEST PUSH1 0x40 MLOAD DUP1 SWAP2 SUB SWAP1 RETURN JUMPDEST CALLVALUE DUP1 ISZERO PUSH2 0x17F JUMPI PUSH1 0x0 DUP1 REVERT JUMPDEST POP PUSH2 0x19A PUSH1 0x4 DUP1 CALLDATASIZE SUB DUP2 ADD SWAP1 PUSH2 0x195 SWAP2 SWAP1 PUSH2 0x5A1 JUMP JUMPDEST PUSH2 0x30D JUMP JUMPDEST PUSH1 0x40 MLOAD PUSH2 0x1A7 SWAP2 SWAP1 PUSH2 0x5F0 JUMP JUMPDEST PUSH1 0x40 MLOAD DUP1 SWAP2 SUB SWAP1 RETURN JUMPDEST CALLVALUE DUP1 ISZERO PUSH2 0x1BC JUMPI PUSH1 0x0 DUP1 REVERT JUMPDEST POP PUSH2 0x1D7 PUSH1 0x4 DUP1 CALLDATASIZE SUB DUP2 ADD SWAP1 PUSH2 0x1D2 SWAP2 SWAP1 PUSH2 0x740 JUMP JUMPDEST PUSH2 0x323 JUMP JUMPDEST PUSH1 0x40 MLOAD PUSH2 0x1E4 SWAP2 SWAP1 PUSH2 0x404 JUMP JUMPDEST PUSH1 0x40 MLOAD DUP1 SWAP2 SUB SWAP1 RETURN JUMPDEST PUSH1 0x2 DUP1 SLOAD PUSH2 0x1FA SWAP1 PUSH2 0x7B8 JUMP JUMPDEST DUP1 PUSH1 0x1F ADD PUSH1 0x20 DUP1 SWAP2 DIV MUL PUSH1 0x20 ADD PUSH1 0x40 MLOAD SWAP1 DUP2 ADD PUSH1 0x40 MSTORE DUP1 SWAP3 SWAP2 SWAP1 DUP2 DUP2 MSTORE PUSH1 0x20 ADD DUP3 DUP1 SLOAD PUSH2 0x226 SWAP1 PUSH2 0x7B8 JUMP JUMPDEST DUP1 ISZERO PUSH2 0x273 JUMPI DUP1 PUSH1 0x1F LT PUSH2 0x248 JUMPI PUSH2 0x100 DUP1 DUP4 SLOAD DIV MUL DUP4 MSTORE SWAP2 PUSH1 0x20 ADD SWAP2 PUSH2 0x273 JUMP JUMPDEST DUP3 ADD SWAP2 SWAP1 PUSH1 0x0 MSTORE PUSH1 0x20 PUSH1 0x0 KECCAK256 SWAP1 JUMPDEST DUP2 SLOAD DUP2 MSTORE SWAP1 PUSH1 0x1 ADD SWAP1 PUSH1 0x20 ADD DUP1 DUP4 GT PUSH2 0x256 JUMPI DUP3 SWAP1 SUB PUSH1 0x1F AND DUP3 ADD SWAP2 JUMPDEST POP POP POP POP POP DUP2 JUMP JUMPDEST PUSH1 0x1 PUSH1 0x0 SWAP1 SLOAD SWAP1 PUSH2 0x100 EXP SWAP1 DIV PUSH1 0xFF AND DUP2 JUMP JUMPDEST PUSH1 0x0 DUP1 SLOAD SWAP1 POP SWAP1 JUMP JUMPDEST PUSH1 0x0 SLOAD DUP2 JUMP JUMPDEST DUP1 PUSH20 0xFFFFFFFFFFFFFFFFFFFFFFFFFFFFFFFFFFFFFFFF AND PUSH2 0x8FC CALLVALUE SWAP1 DUP2 ISZERO MUL SWAP1 PUSH1 0x40 MLOAD PUSH1 0x0 PUSH1 0x40 MLOAD DUP1 DUP4 SUB DUP2 DUP6 DUP9 DUP9 CALL SWAP4 POP POP POP POP ISZERO DUP1 ISZERO PUSH2 0x2E3 JUMPI RETURNDATASIZE PUSH1 0x0 DUP1 RETURNDATACOPY RETURNDATASIZE PUSH1 0x0 REVERT JUMPDEST POP POP JUMP JUMPDEST PUSH1 0x3 PUSH1 0x0 SWAP1 SLOAD SWAP1 PUSH2 0x100 EXP SWAP1 DIV PUSH20 0xFFFFFFFFFFFFFFFFFFFFFFFFFFFFFFFFFFFFFFFF AND DUP2 JUMP JUMPDEST PUSH1 0x0 DUP2 DUP4 PUSH2 0x31B SWAP2 SWAP1 PUSH2 0x818 JUMP JUMPDEST SWAP1 POP SWAP3 SWAP2 POP POP JUMP JUMPDEST PUSH1 0x60 PUSH1 0x0 DUP3 MLOAD SUB PUSH2 0x36B JUMPI PUSH1 0x40 MLOAD DUP1 PUSH1 0x40 ADD PUSH1 0x40 MSTORE DUP1 PUSH1 0x4 DUP2 MSTORE PUSH1 0x20 ADD PUSH32 0x6E756C6C00000000000000000000000000000000000000000000000000000000 DUP2 MSTORE POP SWAP1 POP PUSH2 0x36F JUMP JUMPDEST DUP2 SWAP1 POP JUMPDEST SWAP2 SWAP1 POP JUMP JUMPDEST PUSH1 0x0 DUP2 MLOAD SWAP1 POP SWAP2 SWAP1 POP JUMP JUMPDEST PUSH1 0x0 DUP3 DUP3 MSTORE PUSH1 0x20 DUP3 ADD SWAP1 POP SWAP3 SWAP2 POP POP JUMP JUMPDEST PUSH1 0x0 JUMPDEST DUP4 DUP2 LT ISZERO PUSH2 0x3AE JUMPI DUP1 DUP3 ADD MLOAD DUP2 DUP5 ADD MSTORE PUSH1 0x20 DUP2 ADD SWAP1 POP PUSH2 0x393 JUMP JUMPDEST PUSH1 0x0 DUP5 DUP5 ADD MSTORE POP POP POP POP JUMP JUMPDEST PUSH1 0x0 PUSH1 0x1F NOT PUSH1 0x1F DUP4 ADD AND SWAP1 POP SWAP2 SWAP1 POP JUMP JUMPDEST PUSH1 0x0 PUSH2 0x3D6 DUP3 PUSH2 0x374 JUMP JUMPDEST PUSH2 0x3E0 DUP2 DUP6 PUSH2 0x37F JUMP JUMPDEST SWAP4 POP PUSH2 0x3F0 DUP2 DUP6 PUSH1 0x20 DUP7 ADD PUSH2 0x390 JUMP JUMPDEST PUSH2 0x3F9 DUP2 PUSH2 0x3BA JUMP JUMPDEST DUP5 ADD SWAP2 POP POP SWAP3 SWAP2 POP POP JUMP JUMPDEST PUSH1 0x0 PUSH1 0x20 DUP3 ADD SWAP1 POP DUP2 DUP2 SUB PUSH1 0x0 DUP4 ADD MSTORE PUSH2 0x41E DUP2 DUP5 PUSH2 0x3CB JUMP JUMPDEST SWAP1 POP SWAP3 SWAP2 POP POP JUMP JUMPDEST PUSH1 0x0 DUP2 ISZERO ISZERO SWAP1 POP SWAP2 SWAP1 POP JUMP JUMPDEST PUSH2 0x43B DUP2 PUSH2 0x426 JUMP JUMPDEST DUP3 MSTORE POP POP JUMP JUMPDEST PUSH1 0x0 PUSH1 0x20 DUP3 ADD SWAP1 POP PUSH2 0x456 PUSH1 0x0 DUP4 ADD DUP5 PUSH2 0x432 JUMP JUMPDEST SWAP3 SWAP2 POP POP JUMP JUMPDEST PUSH1 0x0 DUP2 SWAP1 POP SWAP2 SWAP1 POP JUMP JUMPDEST PUSH2 0x46F DUP2 PUSH2 0x45C JUMP JUMPDEST DUP3 MSTORE POP POP JUMP JUMPDEST PUSH1 0x0 PUSH1 0x20 DUP3 ADD SWAP1 POP PUSH2 0x48A PUSH1 0x0 DUP4 ADD DUP5 PUSH2 0x466 JUMP JUMPDEST SWAP3 SWAP2 POP POP JUMP JUMPDEST PUSH1 0x0 PUSH1 0x40 MLOAD SWAP1 POP SWAP1 JUMP JUMPDEST PUSH1 0x0 DUP1 REVERT JUMPDEST PUSH1 0x0 DUP1 REVERT JUMPDEST PUSH1 0x0 PUSH20 0xFFFFFFFFFFFFFFFFFFFFFFFFFFFFFFFFFFFFFFFF DUP3 AND SWAP1 POP SWAP2 SWAP1 POP JUMP JUMPDEST PUSH1 0x0 PUSH2 0x4CF DUP3 PUSH2 0x4A4 JUMP JUMPDEST SWAP1 POP SWAP2 SWAP1 POP JUMP JUMPDEST PUSH2 0x4DF DUP2 PUSH2 0x4C4 JUMP JUMPDEST DUP2 EQ PUSH2 0x4EA JUMPI PUSH1 0x0 DUP1 REVERT JUMPDEST POP JUMP JUMPDEST PUSH1 0x0 DUP2 CALLDATALOAD SWAP1 POP PUSH2 0x4FC DUP2 PUSH2 0x4D6 JUMP JUMPDEST SWAP3 SWAP2 POP POP JUMP JUMPDEST PUSH1 0x0 PUSH1 0x20 DUP3 DUP5 SUB SLT ISZERO PUSH2 0x518 JUMPI PUSH2 0x517 PUSH2 0x49A JUMP JUMPDEST JUMPDEST PUSH1 0x0 PUSH2 0x526 DUP5 DUP3 DUP6 ADD PUSH2 0x4ED JUMP JUMPDEST SWAP2 POP POP SWAP3 SWAP2 POP POP JUMP JUMPDEST PUSH1 0x0 PUSH2 0x53A DUP3 PUSH2 0x4A4 JUMP JUMPDEST SWAP1 POP SWAP2 SWAP1 POP JUMP JUMPDEST PUSH2 0x54A DUP2 PUSH2 0x52F JUMP JUMPDEST DUP3 MSTORE POP POP JUMP JUMPDEST PUSH1 0x0 PUSH1 0x20 DUP3 ADD SWAP1 POP PUSH2 0x565 PUSH1 0x0 DUP4 ADD DUP5 PUSH2 0x541 JUMP JUMPDEST SWAP3 SWAP2 POP POP JUMP JUMPDEST PUSH1 0x0 DUP2 SWAP1 POP SWAP2 SWAP1 POP JUMP JUMPDEST PUSH2 0x57E DUP2 PUSH2 0x56B JUMP JUMPDEST DUP2 EQ PUSH2 0x589 JUMPI PUSH1 0x0 DUP1 REVERT JUMPDEST POP JUMP JUMPDEST PUSH1 0x0 DUP2 CALLDATALOAD SWAP1 POP PUSH2 0x59B DUP2 PUSH2 0x575 JUMP JUMPDEST SWAP3 SWAP2 POP POP JUMP JUMPDEST PUSH1 0x0 DUP1 PUSH1 0x40 DUP4 DUP6 SUB SLT ISZERO PUSH2 0x5B8 JUMPI PUSH2 0x5B7 PUSH2 0x49A JUMP JUMPDEST JUMPDEST PUSH1 0x0 PUSH2 0x5C6 DUP6 DUP3 DUP7 ADD PUSH2 0x58C JUMP JUMPDEST SWAP3 POP POP PUSH1 0x20 PUSH2 0x5D7 DUP6 DUP3 DUP7 ADD PUSH2 0x58C JUMP JUMPDEST SWAP2 POP POP SWAP3 POP SWAP3 SWAP1 POP JUMP JUMPDEST PUSH2 0x5EA DUP2 PUSH2 0x56B JUMP JUMPDEST DUP3 MSTORE POP POP JUMP JUMPDEST PUSH1 0x0 PUSH1 0x20 DUP3 ADD SWAP1 POP PUSH2 0x605 PUSH1 0x0 DUP4 ADD DUP5 PUSH2 0x5E1 JUMP JUMPDEST SWAP3 SWAP2 POP POP JUMP JUMPDEST PUSH1 0x0 DUP1 REVERT JUMPDEST PUSH1 0x0 DUP1 REVERT JUMPDEST PUSH32 0x4E487B7100000000000000000000000000000000000000000000000000000000 PUSH1 0x0 MSTORE PUSH1 0x41 PUSH1 0x4 MSTORE PUSH1 0x24 PUSH1 0x0 REVERT JUMPDEST PUSH2 0x64D DUP3 PUSH2 0x3BA JUMP JUMPDEST DUP2 ADD DUP2 DUP2 LT PUSH8 0xFFFFFFFFFFFFFFFF DUP3 GT OR ISZERO PUSH2 0x66C JUMPI PUSH2 0x66B PUSH2 0x615 JUMP JUMPDEST JUMPDEST DUP1 PUSH1 0x40 MSTORE POP POP POP JUMP JUMPDEST PUSH1 0x0 PUSH2 0x67F PUSH2 0x490 JUMP JUMPDEST SWAP1 POP PUSH2 0x68B DUP3 DUP3 PUSH2 0x644 JUMP JUMPDEST SWAP2 SWAP1 POP JUMP JUMPDEST PUSH1 0x0 PUSH8 0xFFFFFFFFFFFFFFFF DUP3 GT ISZERO PUSH2 0x6AB JUMPI PUSH2 0x6AA PUSH2 0x615 JUMP JUMPDEST JUMPDEST PUSH2 0x6B4 DUP3 PUSH2 0x3BA JUMP JUMPDEST SWAP1 POP PUSH1 0x20 DUP2 ADD SWAP1 POP SWAP2 SWAP1 POP JUMP JUMPDEST DUP3 DUP2 DUP4 CALLDATACOPY PUSH1 0x0 DUP4 DUP4 ADD MSTORE POP POP POP JUMP JUMPDEST PUSH1 0x0 PUSH2 0x6E3 PUSH2 0x6DE DUP5 PUSH2 0x690 JUMP JUMPDEST PUSH2 0x675 JUMP JUMPDEST SWAP1 POP DUP3 DUP2 MSTORE PUSH1 0x20 DUP2 ADD DUP5 DUP5 DUP5 ADD GT ISZERO PUSH2 0x6FF JUMPI PUSH2 0x6FE PUSH2 0x610 JUMP JUMPDEST JUMPDEST PUSH2 0x70A DUP5 DUP3 DUP6 PUSH2 0x6C1 JUMP JUMPDEST POP SWAP4 SWAP3 POP POP POP JUMP JUMPDEST PUSH1 0x0 DUP3 PUSH1 0x1F DUP4 ADD SLT PUSH2 0x727 JUMPI PUSH2 0x726 PUSH2 0x60B JUMP JUMPDEST JUMPDEST DUP2 CALLDATALOAD PUSH2 0x737 DUP5 DUP3 PUSH1 0x20 DUP7 ADD PUSH2 0x6D0 JUMP JUMPDEST SWAP2 POP POP SWAP3 SWAP2 POP POP JUMP JUMPDEST PUSH1 0x0 PUSH1 0x20 DUP3 DUP5 SUB SLT ISZERO PUSH2 0x756 JUMPI PUSH2 0x755 PUSH2 0x49A JUMP JUMPDEST JUMPDEST PUSH1 0x0 DUP3 ADD CALLDATALOAD PUSH8 0xFFFFFFFFFFFFFFFF DUP2 GT ISZERO PUSH2 0x774 JUMPI PUSH2 0x773 PUSH2 0x49F JUMP JUMPDEST JUMPDEST PUSH2 0x780 DUP5 DUP3 DUP6 ADD PUSH2 0x712 JUMP JUMPDEST SWAP2 POP POP SWAP3 SWAP2 POP POP JUMP JUMPDEST PUSH32 0x4E487B7100000000000000000000000000000000000000000000000000000000 PUSH1 0x0 MSTORE PUSH1 0x22 PUSH1 0x4 MSTORE PUSH1 0x24 PUSH1 0x0 REVERT JUMPDEST PUSH1 0x0 PUSH1 0x2 DUP3 DIV SWAP1 POP PUSH1 0x1 DUP3 AND DUP1 PUSH2 0x7D0 JUMPI PUSH1 0x7F DUP3 AND SWAP2 POP JUMPDEST PUSH1 0x20 DUP3 LT DUP2 SUB PUSH2 0x7E3 JUMPI PUSH2 0x7E2 PUSH2 0x789 JUMP JUMPDEST JUMPDEST POP SWAP2 SWAP1 POP JUMP JUMPDEST PUSH32 0x4E487B7100000000000000000000000000000000000000000000000000000000 PUSH1 0x0 MSTORE PUSH1 0x11 PUSH1 0x4 MSTORE PUSH1 0x24 PUSH1 0x0 REVERT JUMPDEST PUSH1 0x0 PUSH2 0x823 DUP3 PUSH2 0x56B JUMP JUMPDEST SWAP2 POP PUSH2 0x82E DUP4 PUSH2 0x56B JUMP JUMPDEST SWAP3 POP DUP3 DUP3 ADD SWAP1 POP DUP3 DUP2 SLT ISZERO PUSH1 0x0 DUP4 SLT AND DUP4 DUP3 SLT PUSH1 0x0 DUP5 SLT ISZERO AND OR ISZERO PUSH2 0x856 JUMPI PUSH2 0x855 PUSH2 0x7E9 JUMP JUMPDEST JUMPDEST SWAP3 SWAP2 POP POP JUMP INVALID LOG2 PUSH5 0x6970667358 0x22 SLT KECCAK256 0x21 SIGNEXTEND PUSH15 0x43F73237052CBE41CE6B30BE701E32 STATICCALL 0xB7 LOG2 0x5E 0x5C 0xC6 GASPRICE SAR JUMPDEST 0xF6 0xC7 0xEA LOG4 KECCAK256 PUSH5 0x736F6C6343 STOP ADDMOD SLT STOP CALLER "
				},
				"gasEstimates": {
					"creation": {
						"codeDepositCost": "438800",
						"executionCost": "infinite",
						"totalCost": "infinite"
					},
					"external": {
						"getIdNumber()": "2482",
						"idNumber()": "2496",
						"isWorking()": "2494",
						"name()": "infinite",
						"sendEther(address)": "infinite",
						"sum(int256,int256)": "infinite",
						"test(string)": "infinite",
						"wallet()": "2536"
					}
				},
				"methodIdentifiers": {
					"getIdNumber()": "3694998a",
					"idNumber()": "3f83ea3b",
					"isWorking()": "099aea0a",
					"name()": "06fdde03",
					"sendEther(address)": "48c981e2",
					"sum(int256,int256)": "9967062d",
					"test(string)": "f9fbd554",
					"wallet()": "521eb273"
				}
			},
			"storageLayout": {
				"storage": [
					{
						"astId": 3,
						"contract": "PersonalRepo/RemixIDE/RemixIDE/contracts/Identity.sol:Identity",
						"label": "idNumber",
						"offset": 0,
						"slot": "0",
						"type": "t_uint256"
					},
					{
						"astId": 5,
						"contract": "PersonalRepo/RemixIDE/RemixIDE/contracts/Identity.sol:Identity",
						"label": "isWorking",
						"offset": 0,
						"slot": "1",
						"type": "t_bool"
					},
					{
						"astId": 7,
						"contract": "PersonalRepo/RemixIDE/RemixIDE/contracts/Identity.sol:Identity",
						"label": "name",
						"offset": 0,
						"slot": "2",
						"type": "t_string_storage"
					},
					{
						"astId": 9,
						"contract": "PersonalRepo/RemixIDE/RemixIDE/contracts/Identity.sol:Identity",
						"label": "wallet",
						"offset": 0,
						"slot": "3",
						"type": "t_address"
					}
				],
				"types": {
					"t_address": {
						"encoding": "inplace",
						"label": "address",
						"numberOfBytes": "20"
					},
					"t_bool": {
						"encoding": "inplace",
						"label": "bool",
						"numberOfBytes": "1"
					},
					"t_string_storage": {
						"encoding": "bytes",
						"label": "string",
						"numberOfBytes": "32"
					},
					"t_uint256": {
						"encoding": "inplace",
						"label": "uint256",
						"numberOfBytes": "32"
					}
				}
			},
			"userdoc": {
				"kind": "user",
				"methods": {},
				"version": 1
			}
		}
	}
}