{
	"PersonalRepo/Ethereum/RemixIDE/contracts/Visitors.sol": {
		"Visitors": {
			"abi": [
				{
					"anonymous": false,
					"inputs": [
						{
							"indexed": false,
							"internalType": "address",
							"name": "visitor",
							"type": "address"
						},
						{
							"indexed": false,
							"internalType": "uint256",
							"name": "visitors",
							"type": "uint256"
						},
						{
							"indexed": false,
							"internalType": "uint256",
							"name": "timestamp",
							"type": "uint256"
						}
					],
					"name": "visitorEvent",
					"type": "event"
				},
				{
					"inputs": [],
					"name": "visit",
					"outputs": [],
					"stateMutability": "nonpayable",
					"type": "function"
				},
				{
					"inputs": [],
					"name": "visitors",
					"outputs": [
						{
							"internalType": "uint256",
							"name": "",
							"type": "uint256"
						}
					],
					"stateMutability": "view",
					"type": "function"
				}
			],
			"devdoc": {
				"kind": "dev",
				"methods": {},
				"version": 1
			},
			"evm": {
				"assembly": "    /* \"PersonalRepo/Ethereum/RemixIDE/contracts/Visitors.sol\":74:332  contract Visitors {... */\n  mstore(0x40, 0x80)\n  callvalue\n  dup1\n  iszero\n  tag_1\n  jumpi\n  0x00\n  dup1\n  revert\ntag_1:\n  pop\n  dataSize(sub_0)\n  dup1\n  dataOffset(sub_0)\n  0x00\n  codecopy\n  0x00\n  return\nstop\n\nsub_0: assembly {\n        /* \"PersonalRepo/Ethereum/RemixIDE/contracts/Visitors.sol\":74:332  contract Visitors {... */\n      mstore(0x40, 0x80)\n      callvalue\n      dup1\n      iszero\n      tag_1\n      jumpi\n      0x00\n      dup1\n      revert\n    tag_1:\n      pop\n      jumpi(tag_2, lt(calldatasize, 0x04))\n      shr(0xe0, calldataload(0x00))\n      dup1\n      0x0cc4330c\n      eq\n      tag_3\n      jumpi\n      dup1\n      0xcb391b0b\n      eq\n      tag_4\n      jumpi\n    tag_2:\n      0x00\n      dup1\n      revert\n        /* \"PersonalRepo/Ethereum/RemixIDE/contracts/Visitors.sol\":209:329  function visit() public {... */\n    tag_3:\n      tag_5\n      tag_6\n      jump\t// in\n    tag_5:\n      stop\n        /* \"PersonalRepo/Ethereum/RemixIDE/contracts/Visitors.sol\":99:122  uint256 public visitors */\n    tag_4:\n      tag_7\n      tag_8\n      jump\t// in\n    tag_7:\n      mload(0x40)\n      tag_9\n      swap2\n      swap1\n      tag_10\n      jump\t// in\n    tag_9:\n      mload(0x40)\n      dup1\n      swap2\n      sub\n      swap1\n      return\n        /* \"PersonalRepo/Ethereum/RemixIDE/contracts/Visitors.sol\":209:329  function visit() public {... */\n    tag_6:\n        /* \"PersonalRepo/Ethereum/RemixIDE/contracts/Visitors.sol\":244:252  visitors */\n      0x00\n      dup1\n        /* \"PersonalRepo/Ethereum/RemixIDE/contracts/Visitors.sol\":244:254  visitors++ */\n      dup2\n      sload\n      dup1\n      swap3\n      swap2\n      swap1\n      tag_12\n      swap1\n      tag_13\n      jump\t// in\n    tag_12:\n      swap2\n      swap1\n      pop\n      sstore\n      pop\n        /* \"PersonalRepo/Ethereum/RemixIDE/contracts/Visitors.sol\":270:321  visitorEvent(msg.sender, visitors, block.timestamp) */\n      0xde449aa34f532f7fdb3b1e109817244b049bf321743ccdcafa41b9eb23d83be0\n        /* \"PersonalRepo/Ethereum/RemixIDE/contracts/Visitors.sol\":283:293  msg.sender */\n      caller\n        /* \"PersonalRepo/Ethereum/RemixIDE/contracts/Visitors.sol\":295:303  visitors */\n      sload(0x00)\n        /* \"PersonalRepo/Ethereum/RemixIDE/contracts/Visitors.sol\":305:320  block.timestamp */\n      timestamp\n        /* \"PersonalRepo/Ethereum/RemixIDE/contracts/Visitors.sol\":270:321  visitorEvent(msg.sender, visitors, block.timestamp) */\n      mload(0x40)\n      tag_14\n      swap4\n      swap3\n      swap2\n      swap1\n      tag_15\n      jump\t// in\n    tag_14:\n      mload(0x40)\n      dup1\n      swap2\n      sub\n      swap1\n      log1\n        /* \"PersonalRepo/Ethereum/RemixIDE/contracts/Visitors.sol\":209:329  function visit() public {... */\n      jump\t// out\n        /* \"PersonalRepo/Ethereum/RemixIDE/contracts/Visitors.sol\":99:122  uint256 public visitors */\n    tag_8:\n      sload(0x00)\n      dup2\n      jump\t// out\n        /* \"#utility.yul\":7:84   */\n    tag_16:\n        /* \"#utility.yul\":44:51   */\n      0x00\n        /* \"#utility.yul\":73:78   */\n      dup2\n        /* \"#utility.yul\":62:78   */\n      swap1\n      pop\n        /* \"#utility.yul\":7:84   */\n      swap2\n      swap1\n      pop\n      jump\t// out\n        /* \"#utility.yul\":90:208   */\n    tag_17:\n        /* \"#utility.yul\":177:201   */\n      tag_25\n        /* \"#utility.yul\":195:200   */\n      dup2\n        /* \"#utility.yul\":177:201   */\n      tag_16\n      jump\t// in\n    tag_25:\n        /* \"#utility.yul\":172:175   */\n      dup3\n        /* \"#utility.yul\":165:202   */\n      mstore\n        /* \"#utility.yul\":90:208   */\n      pop\n      pop\n      jump\t// out\n        /* \"#utility.yul\":214:436   */\n    tag_10:\n        /* \"#utility.yul\":307:311   */\n      0x00\n        /* \"#utility.yul\":345:347   */\n      0x20\n        /* \"#utility.yul\":334:343   */\n      dup3\n        /* \"#utility.yul\":330:348   */\n      add\n        /* \"#utility.yul\":322:348   */\n      swap1\n      pop\n        /* \"#utility.yul\":358:429   */\n      tag_27\n        /* \"#utility.yul\":426:427   */\n      0x00\n        /* \"#utility.yul\":415:424   */\n      dup4\n        /* \"#utility.yul\":411:428   */\n      add\n        /* \"#utility.yul\":402:408   */\n      dup5\n        /* \"#utility.yul\":358:429   */\n      tag_17\n      jump\t// in\n    tag_27:\n        /* \"#utility.yul\":214:436   */\n      swap3\n      swap2\n      pop\n      pop\n      jump\t// out\n        /* \"#utility.yul\":442:622   */\n    tag_18:\n        /* \"#utility.yul\":490:567   */\n      0x4e487b7100000000000000000000000000000000000000000000000000000000\n        /* \"#utility.yul\":487:488   */\n      0x00\n        /* \"#utility.yul\":480:568   */\n      mstore\n        /* \"#utility.yul\":587:591   */\n      0x11\n        /* \"#utility.yul\":584:585   */\n      0x04\n        /* \"#utility.yul\":577:592   */\n      mstore\n        /* \"#utility.yul\":611:615   */\n      0x24\n        /* \"#utility.yul\":608:609   */\n      0x00\n        /* \"#utility.yul\":601:616   */\n      revert\n        /* \"#utility.yul\":628:861   */\n    tag_13:\n        /* \"#utility.yul\":667:670   */\n      0x00\n        /* \"#utility.yul\":690:714   */\n      tag_30\n        /* \"#utility.yul\":708:713   */\n      dup3\n        /* \"#utility.yul\":690:714   */\n      tag_16\n      jump\t// in\n    tag_30:\n        /* \"#utility.yul\":681:714   */\n      swap2\n      pop\n        /* \"#utility.yul\":736:802   */\n      0xffffffffffffffffffffffffffffffffffffffffffffffffffffffffffffffff\n        /* \"#utility.yul\":729:734   */\n      dup3\n        /* \"#utility.yul\":726:803   */\n      sub\n        /* \"#utility.yul\":723:826   */\n      tag_31\n      jumpi\n        /* \"#utility.yul\":806:824   */\n      tag_32\n      tag_18\n      jump\t// in\n    tag_32:\n        /* \"#utility.yul\":723:826   */\n    tag_31:\n        /* \"#utility.yul\":853:854   */\n      0x01\n        /* \"#utility.yul\":846:851   */\n      dup3\n        /* \"#utility.yul\":842:855   */\n      add\n        /* \"#utility.yul\":835:855   */\n      swap1\n      pop\n        /* \"#utility.yul\":628:861   */\n      swap2\n      swap1\n      pop\n      jump\t// out\n        /* \"#utility.yul\":867:993   */\n    tag_19:\n        /* \"#utility.yul\":904:911   */\n      0x00\n        /* \"#utility.yul\":944:986   */\n      0xffffffffffffffffffffffffffffffffffffffff\n        /* \"#utility.yul\":937:942   */\n      dup3\n        /* \"#utility.yul\":933:987   */\n      and\n        /* \"#utility.yul\":922:987   */\n      swap1\n      pop\n        /* \"#utility.yul\":867:993   */\n      swap2\n      swap1\n      pop\n      jump\t// out\n        /* \"#utility.yul\":999:1095   */\n    tag_20:\n        /* \"#utility.yul\":1036:1043   */\n      0x00\n        /* \"#utility.yul\":1065:1089   */\n      tag_35\n        /* \"#utility.yul\":1083:1088   */\n      dup3\n        /* \"#utility.yul\":1065:1089   */\n      tag_19\n      jump\t// in\n    tag_35:\n        /* \"#utility.yul\":1054:1089   */\n      swap1\n      pop\n        /* \"#utility.yul\":999:1095   */\n      swap2\n      swap1\n      pop\n      jump\t// out\n        /* \"#utility.yul\":1101:1219   */\n    tag_21:\n        /* \"#utility.yul\":1188:1212   */\n      tag_37\n        /* \"#utility.yul\":1206:1211   */\n      dup2\n        /* \"#utility.yul\":1188:1212   */\n      tag_20\n      jump\t// in\n    tag_37:\n        /* \"#utility.yul\":1183:1186   */\n      dup3\n        /* \"#utility.yul\":1176:1213   */\n      mstore\n        /* \"#utility.yul\":1101:1219   */\n      pop\n      pop\n      jump\t// out\n        /* \"#utility.yul\":1225:1667   */\n    tag_15:\n        /* \"#utility.yul\":1374:1378   */\n      0x00\n        /* \"#utility.yul\":1412:1414   */\n      0x60\n        /* \"#utility.yul\":1401:1410   */\n      dup3\n        /* \"#utility.yul\":1397:1415   */\n      add\n        /* \"#utility.yul\":1389:1415   */\n      swap1\n      pop\n        /* \"#utility.yul\":1425:1496   */\n      tag_39\n        /* \"#utility.yul\":1493:1494   */\n      0x00\n        /* \"#utility.yul\":1482:1491   */\n      dup4\n        /* \"#utility.yul\":1478:1495   */\n      add\n        /* \"#utility.yul\":1469:1475   */\n      dup7\n        /* \"#utility.yul\":1425:1496   */\n      tag_21\n      jump\t// in\n    tag_39:\n        /* \"#utility.yul\":1506:1578   */\n      tag_40\n        /* \"#utility.yul\":1574:1576   */\n      0x20\n        /* \"#utility.yul\":1563:1572   */\n      dup4\n        /* \"#utility.yul\":1559:1577   */\n      add\n        /* \"#utility.yul\":1550:1556   */\n      dup6\n        /* \"#utility.yul\":1506:1578   */\n      tag_17\n      jump\t// in\n    tag_40:\n        /* \"#utility.yul\":1588:1660   */\n      tag_41\n        /* \"#utility.yul\":1656:1658   */\n      0x40\n        /* \"#utility.yul\":1645:1654   */\n      dup4\n        /* \"#utility.yul\":1641:1659   */\n      add\n        /* \"#utility.yul\":1632:1638   */\n      dup5\n        /* \"#utility.yul\":1588:1660   */\n      tag_17\n      jump\t// in\n    tag_41:\n        /* \"#utility.yul\":1225:1667   */\n      swap5\n      swap4\n      pop\n      pop\n      pop\n      pop\n      jump\t// out\n\n    auxdata: 0xa26469706673582212206a4b277397363bb6628389e8129aaf2cf75a5c7fdb90948ca52104599ffb279a64736f6c63430008120033\n}\n",
				"bytecode": {
					"linkReferences": {},
					"object": "608060405234801561001057600080fd5b50610218806100206000396000f3fe608060405234801561001057600080fd5b50600436106100365760003560e01c80630cc4330c1461003b578063cb391b0b14610045575b600080fd5b610043610063565b005b61004d6100b9565b60405161005a91906100d8565b60405180910390f35b60008081548092919061007590610122565b91905055507fde449aa34f532f7fdb3b1e109817244b049bf321743ccdcafa41b9eb23d83be033600054426040516100af939291906101ab565b60405180910390a1565b60005481565b6000819050919050565b6100d2816100bf565b82525050565b60006020820190506100ed60008301846100c9565b92915050565b7f4e487b7100000000000000000000000000000000000000000000000000000000600052601160045260246000fd5b600061012d826100bf565b91507fffffffffffffffffffffffffffffffffffffffffffffffffffffffffffffffff820361015f5761015e6100f3565b5b600182019050919050565b600073ffffffffffffffffffffffffffffffffffffffff82169050919050565b60006101958261016a565b9050919050565b6101a58161018a565b82525050565b60006060820190506101c0600083018661019c565b6101cd60208301856100c9565b6101da60408301846100c9565b94935050505056fea26469706673582212206a4b277397363bb6628389e8129aaf2cf75a5c7fdb90948ca52104599ffb279a64736f6c63430008120033",
					"opcodes": "PUSH1 0x80 PUSH1 0x40 MSTORE CALLVALUE DUP1 ISZERO PUSH2 0x10 JUMPI PUSH1 0x0 DUP1 REVERT JUMPDEST POP PUSH2 0x218 DUP1 PUSH2 0x20 PUSH1 0x0 CODECOPY PUSH1 0x0 RETURN INVALID PUSH1 0x80 PUSH1 0x40 MSTORE CALLVALUE DUP1 ISZERO PUSH2 0x10 JUMPI PUSH1 0x0 DUP1 REVERT JUMPDEST POP PUSH1 0x4 CALLDATASIZE LT PUSH2 0x36 JUMPI PUSH1 0x0 CALLDATALOAD PUSH1 0xE0 SHR DUP1 PUSH4 0xCC4330C EQ PUSH2 0x3B JUMPI DUP1 PUSH4 0xCB391B0B EQ PUSH2 0x45 JUMPI JUMPDEST PUSH1 0x0 DUP1 REVERT JUMPDEST PUSH2 0x43 PUSH2 0x63 JUMP JUMPDEST STOP JUMPDEST PUSH2 0x4D PUSH2 0xB9 JUMP JUMPDEST PUSH1 0x40 MLOAD PUSH2 0x5A SWAP2 SWAP1 PUSH2 0xD8 JUMP JUMPDEST PUSH1 0x40 MLOAD DUP1 SWAP2 SUB SWAP1 RETURN JUMPDEST PUSH1 0x0 DUP1 DUP2 SLOAD DUP1 SWAP3 SWAP2 SWAP1 PUSH2 0x75 SWAP1 PUSH2 0x122 JUMP JUMPDEST SWAP2 SWAP1 POP SSTORE POP PUSH32 0xDE449AA34F532F7FDB3B1E109817244B049BF321743CCDCAFA41B9EB23D83BE0 CALLER PUSH1 0x0 SLOAD TIMESTAMP PUSH1 0x40 MLOAD PUSH2 0xAF SWAP4 SWAP3 SWAP2 SWAP1 PUSH2 0x1AB JUMP JUMPDEST PUSH1 0x40 MLOAD DUP1 SWAP2 SUB SWAP1 LOG1 JUMP JUMPDEST PUSH1 0x0 SLOAD DUP2 JUMP JUMPDEST PUSH1 0x0 DUP2 SWAP1 POP SWAP2 SWAP1 POP JUMP JUMPDEST PUSH2 0xD2 DUP2 PUSH2 0xBF JUMP JUMPDEST DUP3 MSTORE POP POP JUMP JUMPDEST PUSH1 0x0 PUSH1 0x20 DUP3 ADD SWAP1 POP PUSH2 0xED PUSH1 0x0 DUP4 ADD DUP5 PUSH2 0xC9 JUMP JUMPDEST SWAP3 SWAP2 POP POP JUMP JUMPDEST PUSH32 0x4E487B7100000000000000000000000000000000000000000000000000000000 PUSH1 0x0 MSTORE PUSH1 0x11 PUSH1 0x4 MSTORE PUSH1 0x24 PUSH1 0x0 REVERT JUMPDEST PUSH1 0x0 PUSH2 0x12D DUP3 PUSH2 0xBF JUMP JUMPDEST SWAP2 POP PUSH32 0xFFFFFFFFFFFFFFFFFFFFFFFFFFFFFFFFFFFFFFFFFFFFFFFFFFFFFFFFFFFFFFFF DUP3 SUB PUSH2 0x15F JUMPI PUSH2 0x15E PUSH2 0xF3 JUMP JUMPDEST JUMPDEST PUSH1 0x1 DUP3 ADD SWAP1 POP SWAP2 SWAP1 POP JUMP JUMPDEST PUSH1 0x0 PUSH20 0xFFFFFFFFFFFFFFFFFFFFFFFFFFFFFFFFFFFFFFFF DUP3 AND SWAP1 POP SWAP2 SWAP1 POP JUMP JUMPDEST PUSH1 0x0 PUSH2 0x195 DUP3 PUSH2 0x16A JUMP JUMPDEST SWAP1 POP SWAP2 SWAP1 POP JUMP JUMPDEST PUSH2 0x1A5 DUP2 PUSH2 0x18A JUMP JUMPDEST DUP3 MSTORE POP POP JUMP JUMPDEST PUSH1 0x0 PUSH1 0x60 DUP3 ADD SWAP1 POP PUSH2 0x1C0 PUSH1 0x0 DUP4 ADD DUP7 PUSH2 0x19C JUMP JUMPDEST PUSH2 0x1CD PUSH1 0x20 DUP4 ADD DUP6 PUSH2 0xC9 JUMP JUMPDEST PUSH2 0x1DA PUSH1 0x40 DUP4 ADD DUP5 PUSH2 0xC9 JUMP JUMPDEST SWAP5 SWAP4 POP POP POP POP JUMP INVALID LOG2 PUSH5 0x6970667358 0x22 SLT KECCAK256 PUSH11 0x4B277397363BB6628389E8 SLT SWAP11 0xAF 0x2C 0xF7 GAS 0x5C PUSH32 0xDB90948CA52104599FFB279A64736F6C63430008120033000000000000000000 "
				},
				"gasEstimates": {
					"creation": {
						"codeDepositCost": "107200",
						"executionCost": "153",
						"totalCost": "107353"
					},
					"external": {
						"visit()": "infinite",
						"visitors()": "2429"
					}
				},
				"methodIdentifiers": {
					"visit()": "0cc4330c",
					"visitors()": "cb391b0b"
				}
			},
			"storageLayout": {
				"storage": [
					{
						"astId": 3,
						"contract": "PersonalRepo/Ethereum/RemixIDE/contracts/Visitors.sol:Visitors",
						"label": "visitors",
						"offset": 0,
						"slot": "0",
						"type": "t_uint256"
					}
				],
				"types": {
					"t_uint256": {
						"encoding": "inplace",
						"label": "uint256",
						"numberOfBytes": "32"
					}
				}
			},
			"userdoc": {
				"kind": "user",
				"methods": {},
				"version": 1
			}
		}
	}
}