{
  "_format": "hh-sol-artifact-1",
  "contractName": "MyTokenV2",
  "sourceName": "contracts/MyTokenV2.sol",
  "abi": [
    {
      "anonymous": false,
      "inputs": [
        {
          "indexed": false,
          "internalType": "address",
          "name": "previousAdmin",
          "type": "address"
        },
        {
          "indexed": false,
          "internalType": "address",
          "name": "newAdmin",
          "type": "address"
        }
      ],
      "name": "AdminChanged",
      "type": "event"
    },
    {
      "anonymous": false,
      "inputs": [
        {
          "indexed": true,
          "internalType": "address",
          "name": "owner",
          "type": "address"
        },
        {
          "indexed": true,
          "internalType": "address",
          "name": "spender",
          "type": "address"
        },
        {
          "indexed": false,
          "internalType": "uint256",
          "name": "value",
          "type": "uint256"
        }
      ],
      "name": "Approval",
      "type": "event"
    },
    {
      "anonymous": false,
      "inputs": [
        {
          "indexed": true,
          "internalType": "address",
          "name": "beacon",
          "type": "address"
        }
      ],
      "name": "BeaconUpgraded",
      "type": "event"
    },
    {
      "anonymous": false,
      "inputs": [
        {
          "indexed": false,
          "internalType": "uint8",
          "name": "version",
          "type": "uint8"
        }
      ],
      "name": "Initialized",
      "type": "event"
    },
    {
      "anonymous": false,
      "inputs": [
        {
          "indexed": true,
          "internalType": "address",
          "name": "previousOwner",
          "type": "address"
        },
        {
          "indexed": true,
          "internalType": "address",
          "name": "newOwner",
          "type": "address"
        }
      ],
      "name": "OwnershipTransferred",
      "type": "event"
    },
    {
      "anonymous": false,
      "inputs": [
        {
          "indexed": true,
          "internalType": "address",
          "name": "from",
          "type": "address"
        },
        {
          "indexed": true,
          "internalType": "address",
          "name": "to",
          "type": "address"
        },
        {
          "indexed": false,
          "internalType": "uint256",
          "name": "value",
          "type": "uint256"
        }
      ],
      "name": "Transfer",
      "type": "event"
    },
    {
      "anonymous": false,
      "inputs": [
        {
          "indexed": true,
          "internalType": "address",
          "name": "implementation",
          "type": "address"
        }
      ],
      "name": "Upgraded",
      "type": "event"
    },
    {
      "inputs": [
        {
          "internalType": "address",
          "name": "owner",
          "type": "address"
        },
        {
          "internalType": "address",
          "name": "spender",
          "type": "address"
        }
      ],
      "name": "allowance",
      "outputs": [
        {
          "internalType": "uint256",
          "name": "",
          "type": "uint256"
        }
      ],
      "stateMutability": "view",
      "type": "function"
    },
    {
      "inputs": [
        {
          "internalType": "address",
          "name": "spender",
          "type": "address"
        },
        {
          "internalType": "uint256",
          "name": "amount",
          "type": "uint256"
        }
      ],
      "name": "approve",
      "outputs": [
        {
          "internalType": "bool",
          "name": "",
          "type": "bool"
        }
      ],
      "stateMutability": "nonpayable",
      "type": "function"
    },
    {
      "inputs": [
        {
          "internalType": "address",
          "name": "account",
          "type": "address"
        }
      ],
      "name": "balanceOf",
      "outputs": [
        {
          "internalType": "uint256",
          "name": "",
          "type": "uint256"
        }
      ],
      "stateMutability": "view",
      "type": "function"
    },
    {
      "inputs": [],
      "name": "decimals",
      "outputs": [
        {
          "internalType": "uint8",
          "name": "",
          "type": "uint8"
        }
      ],
      "stateMutability": "view",
      "type": "function"
    },
    {
      "inputs": [
        {
          "internalType": "address",
          "name": "spender",
          "type": "address"
        },
        {
          "internalType": "uint256",
          "name": "subtractedValue",
          "type": "uint256"
        }
      ],
      "name": "decreaseAllowance",
      "outputs": [
        {
          "internalType": "bool",
          "name": "",
          "type": "bool"
        }
      ],
      "stateMutability": "nonpayable",
      "type": "function"
    },
    {
      "inputs": [
        {
          "internalType": "address",
          "name": "spender",
          "type": "address"
        },
        {
          "internalType": "uint256",
          "name": "addedValue",
          "type": "uint256"
        }
      ],
      "name": "increaseAllowance",
      "outputs": [
        {
          "internalType": "bool",
          "name": "",
          "type": "bool"
        }
      ],
      "stateMutability": "nonpayable",
      "type": "function"
    },
    {
      "inputs": [
        {
          "internalType": "uint256",
          "name": "initialSupply",
          "type": "uint256"
        }
      ],
      "name": "initialize",
      "outputs": [],
      "stateMutability": "nonpayable",
      "type": "function"
    },
    {
      "inputs": [
        {
          "internalType": "address",
          "name": "to",
          "type": "address"
        },
        {
          "internalType": "uint256",
          "name": "amount",
          "type": "uint256"
        }
      ],
      "name": "mint",
      "outputs": [],
      "stateMutability": "nonpayable",
      "type": "function"
    },
    {
      "inputs": [],
      "name": "name",
      "outputs": [
        {
          "internalType": "string",
          "name": "",
          "type": "string"
        }
      ],
      "stateMutability": "view",
      "type": "function"
    },
    {
      "inputs": [],
      "name": "owner",
      "outputs": [
        {
          "internalType": "address",
          "name": "",
          "type": "address"
        }
      ],
      "stateMutability": "view",
      "type": "function"
    },
    {
      "inputs": [],
      "name": "proxiableUUID",
      "outputs": [
        {
          "internalType": "bytes32",
          "name": "",
          "type": "bytes32"
        }
      ],
      "stateMutability": "view",
      "type": "function"
    },
    {
      "inputs": [],
      "name": "renounceOwnership",
      "outputs": [],
      "stateMutability": "nonpayable",
      "type": "function"
    },
    {
      "inputs": [],
      "name": "symbol",
      "outputs": [
        {
          "internalType": "string",
          "name": "",
          "type": "string"
        }
      ],
      "stateMutability": "view",
      "type": "function"
    },
    {
      "inputs": [],
      "name": "totalSupply",
      "outputs": [
        {
          "internalType": "uint256",
          "name": "",
          "type": "uint256"
        }
      ],
      "stateMutability": "view",
      "type": "function"
    },
    {
      "inputs": [
        {
          "internalType": "address",
          "name": "to",
          "type": "address"
        },
        {
          "internalType": "uint256",
          "name": "amount",
          "type": "uint256"
        }
      ],
      "name": "transfer",
      "outputs": [
        {
          "internalType": "bool",
          "name": "",
          "type": "bool"
        }
      ],
      "stateMutability": "nonpayable",
      "type": "function"
    },
    {
      "inputs": [
        {
          "internalType": "address",
          "name": "from",
          "type": "address"
        },
        {
          "internalType": "address",
          "name": "to",
          "type": "address"
        },
        {
          "internalType": "uint256",
          "name": "amount",
          "type": "uint256"
        }
      ],
      "name": "transferFrom",
      "outputs": [
        {
          "internalType": "bool",
          "name": "",
          "type": "bool"
        }
      ],
      "stateMutability": "nonpayable",
      "type": "function"
    },
    {
      "inputs": [
        {
          "internalType": "address",
          "name": "newOwner",
          "type": "address"
        }
      ],
      "name": "transferOwnership",
      "outputs": [],
      "stateMutability": "nonpayable",
      "type": "function"
    },
    {
      "inputs": [
        {
          "internalType": "address",
          "name": "newImplementation",
          "type": "address"
        }
      ],
      "name": "upgradeTo",
      "outputs": [],
      "stateMutability": "nonpayable",
      "type": "function"
    },
    {
      "inputs": [
        {
          "internalType": "address",
          "name": "newImplementation",
          "type": "address"
        },
        {
          "internalType": "bytes",
          "name": "data",
          "type": "bytes"
        }
      ],
      "name": "upgradeToAndCall",
      "outputs": [],
      "stateMutability": "payable",
      "type": "function"
    }
  ],
  "bytecode": "0x60a06040523073ffffffffffffffffffffffffffffffffffffffff1660809073ffffffffffffffffffffffffffffffffffffffff1681525034801561004357600080fd5b5060805161316861007b60003960008181610596015281816106240152818161076b015281816107f901526108a901526131686000f3fe6080604052600436106101145760003560e01c806352d1902d116100a0578063a457c2d711610064578063a457c2d714610394578063a9059cbb146103d1578063dd62ed3e1461040e578063f2fde38b1461044b578063fe4b84df1461047457610114565b806352d1902d146102bf57806370a08231146102ea578063715018a6146103275780638da5cb5b1461033e57806395d89b411461036957610114565b8063313ce567116100e7578063313ce567146101e95780633659cfe614610214578063395093511461023d57806340c10f191461027a5780634f1ef286146102a357610114565b806306fdde0314610119578063095ea7b31461014457806318160ddd1461018157806323b872dd146101ac575b600080fd5b34801561012557600080fd5b5061012e61049d565b60405161013b9190611c1c565b60405180910390f35b34801561015057600080fd5b5061016b60048036038101906101669190611ce6565b61052f565b6040516101789190611d41565b60405180910390f35b34801561018d57600080fd5b50610196610552565b6040516101a39190611d6b565b60405180910390f35b3480156101b857600080fd5b506101d360048036038101906101ce9190611d86565b61055c565b6040516101e09190611d41565b60405180910390f35b3480156101f557600080fd5b506101fe61058b565b60405161020b9190611df5565b60405180910390f35b34801561022057600080fd5b5061023b60048036038101906102369190611e10565b610594565b005b34801561024957600080fd5b50610264600480360381019061025f9190611ce6565b61071c565b6040516102719190611d41565b60405180910390f35b34801561028657600080fd5b506102a1600480360381019061029c9190611ce6565b610753565b005b6102bd60048036038101906102b89190611f72565b610769565b005b3480156102cb57600080fd5b506102d46108a5565b6040516102e19190611fe7565b60405180910390f35b3480156102f657600080fd5b50610311600480360381019061030c9190611e10565b61095e565b60405161031e9190611d6b565b60405180910390f35b34801561033357600080fd5b5061033c6109a7565b005b34801561034a57600080fd5b506103536109bb565b6040516103609190612011565b60405180910390f35b34801561037557600080fd5b5061037e6109e5565b60405161038b9190611c1c565b60405180910390f35b3480156103a057600080fd5b506103bb60048036038101906103b69190611ce6565b610a77565b6040516103c89190611d41565b60405180910390f35b3480156103dd57600080fd5b506103f860048036038101906103f39190611ce6565b610aee565b6040516104059190611d41565b60405180910390f35b34801561041a57600080fd5b506104356004803603810190610430919061202c565b610b11565b6040516104429190611d6b565b60405180910390f35b34801561045757600080fd5b50610472600480360381019061046d9190611e10565b610b98565b005b34801561048057600080fd5b5061049b6004803603810190610496919061206c565b610c1b565b005b6060603680546104ac906120c8565b80601f01602080910402602001604051908101604052809291908181526020018280546104d8906120c8565b80156105255780601f106104fa57610100808354040283529160200191610525565b820191906000526020600020905b81548152906001019060200180831161050857829003601f168201915b5050505050905090565b60008061053a610dfe565b9050610547818585610e06565b600191505092915050565b6000603554905090565b600080610567610dfe565b9050610574858285610fcf565b61057f85858561105b565b60019150509392505050565b60006012905090565b7f000000000000000000000000000000000000000000000000000000000000000073ffffffffffffffffffffffffffffffffffffffff163073ffffffffffffffffffffffffffffffffffffffff1603610622576040517f08c379a00000000000000000000000000000000000000000000000000000000081526004016106199061216b565b60405180910390fd5b7f000000000000000000000000000000000000000000000000000000000000000073ffffffffffffffffffffffffffffffffffffffff166106616112d4565b73ffffffffffffffffffffffffffffffffffffffff16146106b7576040517f08c379a00000000000000000000000000000000000000000000000000000000081526004016106ae906121fd565b60405180910390fd5b6106c08161132b565b61071981600067ffffffffffffffff8111156106df576106de611e47565b5b6040519080825280601f01601f1916602001820160405280156107115781602001600182028036833780820191505090505b506000611336565b50565b600080610727610dfe565b90506107488185856107398589610b11565b610743919061224c565b610e06565b600191505092915050565b61075b6114a4565b6107658282611522565b5050565b7f000000000000000000000000000000000000000000000000000000000000000073ffffffffffffffffffffffffffffffffffffffff163073ffffffffffffffffffffffffffffffffffffffff16036107f7576040517f08c379a00000000000000000000000000000000000000000000000000000000081526004016107ee9061216b565b60405180910390fd5b7f000000000000000000000000000000000000000000000000000000000000000073ffffffffffffffffffffffffffffffffffffffff166108366112d4565b73ffffffffffffffffffffffffffffffffffffffff161461088c576040517f08c379a0000000000000000000000000000000000000000000000000000000008152600401610883906121fd565b60405180910390fd5b6108958261132b565b6108a182826001611336565b5050565b60007f000000000000000000000000000000000000000000000000000000000000000073ffffffffffffffffffffffffffffffffffffffff163073ffffffffffffffffffffffffffffffffffffffff1614610935576040517f08c379a000000000000000000000000000000000000000000000000000000000815260040161092c906122f2565b60405180910390fd5b7f360894a13ba1a3210667c828492db98dca3e2076cc3735a920a3ca505d382bbc60001b905090565b6000603360008373ffffffffffffffffffffffffffffffffffffffff1673ffffffffffffffffffffffffffffffffffffffff168152602001908152602001600020549050919050565b6109af6114a4565b6109b96000611679565b565b6000606560009054906101000a900473ffffffffffffffffffffffffffffffffffffffff16905090565b6060603780546109f4906120c8565b80601f0160208091040260200160405190810160405280929190818152602001828054610a20906120c8565b8015610a6d5780601f10610a4257610100808354040283529160200191610a6d565b820191906000526020600020905b815481529060010190602001808311610a5057829003601f168201915b5050505050905090565b600080610a82610dfe565b90506000610a908286610b11565b905083811015610ad5576040517f08c379a0000000000000000000000000000000000000000000000000000000008152600401610acc90612384565b60405180910390fd5b610ae28286868403610e06565b60019250505092915050565b600080610af9610dfe565b9050610b0681858561105b565b600191505092915050565b6000603460008473ffffffffffffffffffffffffffffffffffffffff1673ffffffffffffffffffffffffffffffffffffffff16815260200190815260200160002060008373ffffffffffffffffffffffffffffffffffffffff1673ffffffffffffffffffffffffffffffffffffffff16815260200190815260200160002054905092915050565b610ba06114a4565b600073ffffffffffffffffffffffffffffffffffffffff168173ffffffffffffffffffffffffffffffffffffffff1603610c0f576040517f08c379a0000000000000000000000000000000000000000000000000000000008152600401610c0690612416565b60405180910390fd5b610c1881611679565b50565b60008060019054906101000a900460ff16159050808015610c4c5750600160008054906101000a900460ff1660ff16105b80610c795750610c5b3061173f565b158015610c785750600160008054906101000a900460ff1660ff16145b5b610cb8576040517f08c379a0000000000000000000000000000000000000000000000000000000008152600401610caf906124a8565b60405180910390fd5b60016000806101000a81548160ff021916908360ff1602179055508015610cf5576001600060016101000a81548160ff0219169083151502179055505b610d696040518060400160405280600c81526020017f4b566965726120546f6b656e00000000000000000000000000000000000000008152506040518060400160405280600381526020017f4b56540000000000000000000000000000000000000000000000000000000000815250611762565b610d716117bf565b610d79611820565b610da133610d8561058b565b600a610d9191906125fb565b84610d9c9190612646565b611522565b8015610dfa5760008060016101000a81548160ff0219169083151502179055507f7f26b83ff96e1f2b6a682f133852f6798a09c465da95921460cefb38474024986001604051610df191906126cd565b60405180910390a15b5050565b600033905090565b600073ffffffffffffffffffffffffffffffffffffffff168373ffffffffffffffffffffffffffffffffffffffff1603610e75576040517f08c379a0000000000000000000000000000000000000000000000000000000008152600401610e6c9061275a565b60405180910390fd5b600073ffffffffffffffffffffffffffffffffffffffff168273ffffffffffffffffffffffffffffffffffffffff1603610ee4576040517f08c379a0000000000000000000000000000000000000000000000000000000008152600401610edb906127ec565b60405180910390fd5b80603460008573ffffffffffffffffffffffffffffffffffffffff1673ffffffffffffffffffffffffffffffffffffffff16815260200190815260200160002060008473ffffffffffffffffffffffffffffffffffffffff1673ffffffffffffffffffffffffffffffffffffffff168152602001908152602001600020819055508173ffffffffffffffffffffffffffffffffffffffff168373ffffffffffffffffffffffffffffffffffffffff167f8c5be1e5ebec7d5bd14f71427d1e84f3dd0314c0f7b2291e5b200ac8c7c3b92583604051610fc29190611d6b565b60405180910390a3505050565b6000610fdb8484610b11565b90507fffffffffffffffffffffffffffffffffffffffffffffffffffffffffffffffff81146110555781811015611047576040517f08c379a000000000000000000000000000000000000000000000000000000000815260040161103e90612858565b60405180910390fd5b6110548484848403610e06565b5b50505050565b600073ffffffffffffffffffffffffffffffffffffffff168373ffffffffffffffffffffffffffffffffffffffff16036110ca576040517f08c379a00000000000000000000000000000000000000000000000000000000081526004016110c1906128ea565b60405180910390fd5b600073ffffffffffffffffffffffffffffffffffffffff168273ffffffffffffffffffffffffffffffffffffffff1603611139576040517f08c379a00000000000000000000000000000000000000000000000000000000081526004016111309061297c565b60405180910390fd5b611144838383611871565b6000603360008573ffffffffffffffffffffffffffffffffffffffff1673ffffffffffffffffffffffffffffffffffffffff168152602001908152602001600020549050818110156111cb576040517f08c379a00000000000000000000000000000000000000000000000000000000081526004016111c290612a0e565b60405180910390fd5b818103603360008673ffffffffffffffffffffffffffffffffffffffff1673ffffffffffffffffffffffffffffffffffffffff1681526020019081526020016000208190555081603360008573ffffffffffffffffffffffffffffffffffffffff1673ffffffffffffffffffffffffffffffffffffffff168152602001908152602001600020600082825401925050819055508273ffffffffffffffffffffffffffffffffffffffff168473ffffffffffffffffffffffffffffffffffffffff167fddf252ad1be2c89b69c2b068fc378daa952ba7f163c4a11628f55a4df523b3ef846040516112bb9190611d6b565b60405180910390a36112ce848484611876565b50505050565b60006113027f360894a13ba1a3210667c828492db98dca3e2076cc3735a920a3ca505d382bbc60001b61187b565b60000160009054906101000a900473ffffffffffffffffffffffffffffffffffffffff16905090565b6113336114a4565b50565b6113627f4910fdfa16fed3260ed0e7147f7cc6da11a60208b5b9406d12a635614ffd914360001b611885565b60000160009054906101000a900460ff1615611386576113818361188f565b61149f565b8273ffffffffffffffffffffffffffffffffffffffff166352d1902d6040518163ffffffff1660e01b8152600401602060405180830381865afa9250505080156113ee57506040513d601f19601f820116820180604052508101906113eb9190612a5a565b60015b61142d576040517f08c379a000000000000000000000000000000000000000000000000000000000815260040161142490612af9565b60405180910390fd5b7f360894a13ba1a3210667c828492db98dca3e2076cc3735a920a3ca505d382bbc60001b8114611492576040517f08c379a000000000000000000000000000000000000000000000000000000000815260040161148990612b8b565b60405180910390fd5b5061149e838383611948565b5b505050565b6114ac610dfe565b73ffffffffffffffffffffffffffffffffffffffff166114ca6109bb565b73ffffffffffffffffffffffffffffffffffffffff1614611520576040517f08c379a000000000000000000000000000000000000000000000000000000000815260040161151790612bf7565b60405180910390fd5b565b600073ffffffffffffffffffffffffffffffffffffffff168273ffffffffffffffffffffffffffffffffffffffff1603611591576040517f08c379a000000000000000000000000000000000000000000000000000000000815260040161158890612c63565b60405180910390fd5b61159d60008383611871565b80603560008282546115af919061224c565b9250508190555080603360008473ffffffffffffffffffffffffffffffffffffffff1673ffffffffffffffffffffffffffffffffffffffff168152602001908152602001600020600082825401925050819055508173ffffffffffffffffffffffffffffffffffffffff16600073ffffffffffffffffffffffffffffffffffffffff167fddf252ad1be2c89b69c2b068fc378daa952ba7f163c4a11628f55a4df523b3ef836040516116619190611d6b565b60405180910390a361167560008383611876565b5050565b6000606560009054906101000a900473ffffffffffffffffffffffffffffffffffffffff16905081606560006101000a81548173ffffffffffffffffffffffffffffffffffffffff021916908373ffffffffffffffffffffffffffffffffffffffff1602179055508173ffffffffffffffffffffffffffffffffffffffff168173ffffffffffffffffffffffffffffffffffffffff167f8be0079c531659141344cd1fd0a4f28419497f9722a3daafe3b4186f6b6457e060405160405180910390a35050565b6000808273ffffffffffffffffffffffffffffffffffffffff163b119050919050565b600060019054906101000a900460ff166117b1576040517f08c379a00000000000000000000000000000000000000000000000000000000081526004016117a890612cf5565b60405180910390fd5b6117bb8282611974565b5050565b600060019054906101000a900460ff1661180e576040517f08c379a000000000000000000000000000000000000000000000000000000000815260040161180590612cf5565b60405180910390fd5b61181e611819610dfe565b611679565b565b600060019054906101000a900460ff1661186f576040517f08c379a000000000000000000000000000000000000000000000000000000000815260040161186690612cf5565b60405180910390fd5b565b505050565b505050565b6000819050919050565b6000819050919050565b6118988161173f565b6118d7576040517f08c379a00000000000000000000000000000000000000000000000000000000081526004016118ce90612d87565b60405180910390fd5b806119047f360894a13ba1a3210667c828492db98dca3e2076cc3735a920a3ca505d382bbc60001b61187b565b60000160006101000a81548173ffffffffffffffffffffffffffffffffffffffff021916908373ffffffffffffffffffffffffffffffffffffffff16021790555050565b611951836119e7565b60008251118061195e5750805b1561196f5761196d8383611a36565b505b505050565b600060019054906101000a900460ff166119c3576040517f08c379a00000000000000000000000000000000000000000000000000000000081526004016119ba90612cf5565b60405180910390fd5b81603690816119d29190612f49565b5080603790816119e29190612f49565b505050565b6119f08161188f565b8073ffffffffffffffffffffffffffffffffffffffff167fbc7cd75a20ee27fd9adebab32041f755214dbc6bffa90cc0225b39da2e5c2d3b60405160405180910390a250565b6060611a418361173f565b611a80576040517f08c379a0000000000000000000000000000000000000000000000000000000008152600401611a779061308d565b60405180910390fd5b6000808473ffffffffffffffffffffffffffffffffffffffff1684604051611aa891906130f4565b600060405180830381855af49150503d8060008114611ae3576040519150601f19603f3d011682016040523d82523d6000602084013e611ae8565b606091505b5091509150611b10828260405180606001604052806027815260200161310c60279139611b1a565b9250505092915050565b60608315611b2a57829050611b35565b611b348383611b3c565b5b9392505050565b600082511115611b4f5781518083602001fd5b806040517f08c379a0000000000000000000000000000000000000000000000000000000008152600401611b839190611c1c565b60405180910390fd5b600081519050919050565b600082825260208201905092915050565b60005b83811015611bc6578082015181840152602081019050611bab565b60008484015250505050565b6000601f19601f8301169050919050565b6000611bee82611b8c565b611bf88185611b97565b9350611c08818560208601611ba8565b611c1181611bd2565b840191505092915050565b60006020820190508181036000830152611c368184611be3565b905092915050565b6000604051905090565b600080fd5b600080fd5b600073ffffffffffffffffffffffffffffffffffffffff82169050919050565b6000611c7d82611c52565b9050919050565b611c8d81611c72565b8114611c9857600080fd5b50565b600081359050611caa81611c84565b92915050565b6000819050919050565b611cc381611cb0565b8114611cce57600080fd5b50565b600081359050611ce081611cba565b92915050565b60008060408385031215611cfd57611cfc611c48565b5b6000611d0b85828601611c9b565b9250506020611d1c85828601611cd1565b9150509250929050565b60008115159050919050565b611d3b81611d26565b82525050565b6000602082019050611d566000830184611d32565b92915050565b611d6581611cb0565b82525050565b6000602082019050611d806000830184611d5c565b92915050565b600080600060608486031215611d9f57611d9e611c48565b5b6000611dad86828701611c9b565b9350506020611dbe86828701611c9b565b9250506040611dcf86828701611cd1565b9150509250925092565b600060ff82169050919050565b611def81611dd9565b82525050565b6000602082019050611e0a6000830184611de6565b92915050565b600060208284031215611e2657611e25611c48565b5b6000611e3484828501611c9b565b91505092915050565b600080fd5b600080fd5b7f4e487b7100000000000000000000000000000000000000000000000000000000600052604160045260246000fd5b611e7f82611bd2565b810181811067ffffffffffffffff82111715611e9e57611e9d611e47565b5b80604052505050565b6000611eb1611c3e565b9050611ebd8282611e76565b919050565b600067ffffffffffffffff821115611edd57611edc611e47565b5b611ee682611bd2565b9050602081019050919050565b82818337600083830152505050565b6000611f15611f1084611ec2565b611ea7565b905082815260208101848484011115611f3157611f30611e42565b5b611f3c848285611ef3565b509392505050565b600082601f830112611f5957611f58611e3d565b5b8135611f69848260208601611f02565b91505092915050565b60008060408385031215611f8957611f88611c48565b5b6000611f9785828601611c9b565b925050602083013567ffffffffffffffff811115611fb857611fb7611c4d565b5b611fc485828601611f44565b9150509250929050565b6000819050919050565b611fe181611fce565b82525050565b6000602082019050611ffc6000830184611fd8565b92915050565b61200b81611c72565b82525050565b60006020820190506120266000830184612002565b92915050565b6000806040838503121561204357612042611c48565b5b600061205185828601611c9b565b925050602061206285828601611c9b565b9150509250929050565b60006020828403121561208257612081611c48565b5b600061209084828501611cd1565b91505092915050565b7f4e487b7100000000000000000000000000000000000000000000000000000000600052602260045260246000fd5b600060028204905060018216806120e057607f821691505b6020821081036120f3576120f2612099565b5b50919050565b7f46756e6374696f6e206d7573742062652063616c6c6564207468726f7567682060008201527f64656c656761746563616c6c0000000000000000000000000000000000000000602082015250565b6000612155602c83611b97565b9150612160826120f9565b604082019050919050565b6000602082019050818103600083015261218481612148565b9050919050565b7f46756e6374696f6e206d7573742062652063616c6c6564207468726f7567682060008201527f6163746976652070726f78790000000000000000000000000000000000000000602082015250565b60006121e7602c83611b97565b91506121f28261218b565b604082019050919050565b60006020820190508181036000830152612216816121da565b9050919050565b7f4e487b7100000000000000000000000000000000000000000000000000000000600052601160045260246000fd5b600061225782611cb0565b915061226283611cb0565b925082820190508082111561227a5761227961221d565b5b92915050565b7f555550535570677261646561626c653a206d757374206e6f742062652063616c60008201527f6c6564207468726f7567682064656c656761746563616c6c0000000000000000602082015250565b60006122dc603883611b97565b91506122e782612280565b604082019050919050565b6000602082019050818103600083015261230b816122cf565b9050919050565b7f45524332303a2064656372656173656420616c6c6f77616e63652062656c6f7760008201527f207a65726f000000000000000000000000000000000000000000000000000000602082015250565b600061236e602583611b97565b915061237982612312565b604082019050919050565b6000602082019050818103600083015261239d81612361565b9050919050565b7f4f776e61626c653a206e6577206f776e657220697320746865207a65726f206160008201527f6464726573730000000000000000000000000000000000000000000000000000602082015250565b6000612400602683611b97565b915061240b826123a4565b604082019050919050565b6000602082019050818103600083015261242f816123f3565b9050919050565b7f496e697469616c697a61626c653a20636f6e747261637420697320616c72656160008201527f647920696e697469616c697a6564000000000000000000000000000000000000602082015250565b6000612492602e83611b97565b915061249d82612436565b604082019050919050565b600060208201905081810360008301526124c181612485565b9050919050565b60008160011c9050919050565b6000808291508390505b600185111561251f578086048111156124fb576124fa61221d565b5b600185161561250a5780820291505b8081029050612518856124c8565b94506124df565b94509492505050565b60008261253857600190506125f4565b8161254657600090506125f4565b816001811461255c576002811461256657612595565b60019150506125f4565b60ff8411156125785761257761221d565b5b8360020a91508482111561258f5761258e61221d565b5b506125f4565b5060208310610133831016604e8410600b84101617156125ca5782820a9050838111156125c5576125c461221d565b5b6125f4565b6125d784848460016124d5565b925090508184048111156125ee576125ed61221d565b5b81810290505b9392505050565b600061260682611cb0565b915061261183611dd9565b925061263e7fffffffffffffffffffffffffffffffffffffffffffffffffffffffffffffffff8484612528565b905092915050565b600061265182611cb0565b915061265c83611cb0565b925082820261266a81611cb0565b915082820484148315176126815761268061221d565b5b5092915050565b6000819050919050565b6000819050919050565b60006126b76126b26126ad84612688565b612692565b611dd9565b9050919050565b6126c78161269c565b82525050565b60006020820190506126e260008301846126be565b92915050565b7f45524332303a20617070726f76652066726f6d20746865207a65726f2061646460008201527f7265737300000000000000000000000000000000000000000000000000000000602082015250565b6000612744602483611b97565b915061274f826126e8565b604082019050919050565b6000602082019050818103600083015261277381612737565b9050919050565b7f45524332303a20617070726f766520746f20746865207a65726f20616464726560008201527f7373000000000000000000000000000000000000000000000000000000000000602082015250565b60006127d6602283611b97565b91506127e18261277a565b604082019050919050565b60006020820190508181036000830152612805816127c9565b9050919050565b7f45524332303a20696e73756666696369656e7420616c6c6f77616e6365000000600082015250565b6000612842601d83611b97565b915061284d8261280c565b602082019050919050565b6000602082019050818103600083015261287181612835565b9050919050565b7f45524332303a207472616e736665722066726f6d20746865207a65726f20616460008201527f6472657373000000000000000000000000000000000000000000000000000000602082015250565b60006128d4602583611b97565b91506128df82612878565b604082019050919050565b60006020820190508181036000830152612903816128c7565b9050919050565b7f45524332303a207472616e7366657220746f20746865207a65726f206164647260008201527f6573730000000000000000000000000000000000000000000000000000000000602082015250565b6000612966602383611b97565b91506129718261290a565b604082019050919050565b6000602082019050818103600083015261299581612959565b9050919050565b7f45524332303a207472616e7366657220616d6f756e742065786365656473206260008201527f616c616e63650000000000000000000000000000000000000000000000000000602082015250565b60006129f8602683611b97565b9150612a038261299c565b604082019050919050565b60006020820190508181036000830152612a27816129eb565b9050919050565b612a3781611fce565b8114612a4257600080fd5b50565b600081519050612a5481612a2e565b92915050565b600060208284031215612a7057612a6f611c48565b5b6000612a7e84828501612a45565b91505092915050565b7f45524331393637557067726164653a206e657720696d706c656d656e7461746960008201527f6f6e206973206e6f742055555053000000000000000000000000000000000000602082015250565b6000612ae3602e83611b97565b9150612aee82612a87565b604082019050919050565b60006020820190508181036000830152612b1281612ad6565b9050919050565b7f45524331393637557067726164653a20756e737570706f727465642070726f7860008201527f6961626c65555549440000000000000000000000000000000000000000000000602082015250565b6000612b75602983611b97565b9150612b8082612b19565b604082019050919050565b60006020820190508181036000830152612ba481612b68565b9050919050565b7f4f776e61626c653a2063616c6c6572206973206e6f7420746865206f776e6572600082015250565b6000612be1602083611b97565b9150612bec82612bab565b602082019050919050565b60006020820190508181036000830152612c1081612bd4565b9050919050565b7f45524332303a206d696e7420746f20746865207a65726f206164647265737300600082015250565b6000612c4d601f83611b97565b9150612c5882612c17565b602082019050919050565b60006020820190508181036000830152612c7c81612c40565b9050919050565b7f496e697469616c697a61626c653a20636f6e7472616374206973206e6f74206960008201527f6e697469616c697a696e67000000000000000000000000000000000000000000602082015250565b6000612cdf602b83611b97565b9150612cea82612c83565b604082019050919050565b60006020820190508181036000830152612d0e81612cd2565b9050919050565b7f455243313936373a206e657720696d706c656d656e746174696f6e206973206e60008201527f6f74206120636f6e747261637400000000000000000000000000000000000000602082015250565b6000612d71602d83611b97565b9150612d7c82612d15565b604082019050919050565b60006020820190508181036000830152612da081612d64565b9050919050565b60008190508160005260206000209050919050565b60006020601f8301049050919050565b600082821b905092915050565b600060088302612e097fffffffffffffffffffffffffffffffffffffffffffffffffffffffffffffffff82612dcc565b612e138683612dcc565b95508019841693508086168417925050509392505050565b6000612e46612e41612e3c84611cb0565b612692565b611cb0565b9050919050565b6000819050919050565b612e6083612e2b565b612e74612e6c82612e4d565b848454612dd9565b825550505050565b600090565b612e89612e7c565b612e94818484612e57565b505050565b5b81811015612eb857612ead600082612e81565b600181019050612e9a565b5050565b601f821115612efd57612ece81612da7565b612ed784612dbc565b81016020851015612ee6578190505b612efa612ef285612dbc565b830182612e99565b50505b505050565b600082821c905092915050565b6000612f2060001984600802612f02565b1980831691505092915050565b6000612f398383612f0f565b9150826002028217905092915050565b612f5282611b8c565b67ffffffffffffffff811115612f6b57612f6a611e47565b5b612f7582546120c8565b612f80828285612ebc565b600060209050601f831160018114612fb35760008415612fa1578287015190505b612fab8582612f2d565b865550613013565b601f198416612fc186612da7565b60005b82811015612fe957848901518255600182019150602085019450602081019050612fc4565b868310156130065784890151613002601f891682612f0f565b8355505b6001600288020188555050505b505050505050565b7f416464726573733a2064656c65676174652063616c6c20746f206e6f6e2d636f60008201527f6e74726163740000000000000000000000000000000000000000000000000000602082015250565b6000613077602683611b97565b91506130828261301b565b604082019050919050565b600060208201905081810360008301526130a68161306a565b9050919050565b600081519050919050565b600081905092915050565b60006130ce826130ad565b6130d881856130b8565b93506130e8818560208601611ba8565b80840191505092915050565b600061310082846130c3565b91508190509291505056fe416464726573733a206c6f772d6c6576656c2064656c65676174652063616c6c206661696c6564a26469706673582212204da7dba5d891884132ffb8039db2bc559969344d358108374638a2f84b6a9c7064736f6c63430008120033",
  "linkReferences": {},
  "deployedLinkReferences": {}
}